{
  "_format": "hh-sol-artifact-1",
  "contractName": "MockRandomProvider",
  "sourceName": "src/mocks/MockRandomProvider.sol",
  "abi": [
    {
      "inputs": [
        {
          "internalType": "contract IRaffle",
          "name": "_raffle",
          "type": "address"
        }
      ],
      "stateMutability": "nonpayable",
      "type": "constructor"
    },
    {
      "inputs": [],
      "name": "requestRandomNumber",
      "outputs": [],
      "stateMutability": "nonpayable",
      "type": "function"
    },
    {
      "inputs": [],
      "name": "requestRandomNumberReturnZero",
      "outputs": [],
      "stateMutability": "nonpayable",
      "type": "function"
    }
  ],
  "bytecode": "0x608060405234801561001057600080fd5b5060405161020d38038061020d83398101604081905261002f91610054565b600080546001600160a01b0319166001600160a01b0392909216919091179055610084565b60006020828403121561006657600080fd5b81516001600160a01b038116811461007d57600080fd5b9392505050565b61017a806100936000396000f3fe608060405234801561001057600080fd5b50600436106100365760003560e01c8063075f22e31461003b5780638678a7b214610045575b600080fd5b61004361004d565b005b6100436100ad565b600080546040516321d027cf60e21b815260048101929092526001600160a01b0316906387409f3c90602401600060405180830381600087803b15801561009357600080fd5b505af11580156100a7573d6000803e3d6000fd5b50505050565b60006100ba60014361011d565b6000546040516321d027cf60e21b815291406004830181905292506001600160a01b0316906387409f3c90602401600060405180830381600087803b15801561010257600080fd5b505af1158015610116573d6000803e3d6000fd5b5050505050565b8181038181111561013e57634e487b7160e01b600052601160045260246000fd5b9291505056fea2646970667358221220cfc57bb8d652d92a6fd87cd75a62e1bc4befa18665ee47d78c5a9a459482444e64736f6c63430008110033",
  "linkReferences": {},
  "deployedLinkReferences": {}
}