{"src/mocks/MockRandomProvider.sol":{"MockRandomProvider":{"abi":[{"inputs":[{"internalType":"contract IImplementationManager","name":"_implementationManager","type":"address"}],"stateMutability":"nonpayable","type":"constructor"},{"inputs":[{"internalType":"address","name":"","type":"address"}],"name":"callerToRequestId","outputs":[{"internalType":"uint256","name":"","type":"uint256"}],"stateMutability":"view","type":"function"},{"inputs":[{"internalType":"uint256","name":"requestId","type":"uint256"}],"name":"generateRandomNumbers","outputs":[],"stateMutability":"nonpayable","type":"function"},{"inputs":[],"name":"implementationManager","outputs":[{"internalType":"contract IImplementationManager","name":"","type":"address"}],"stateMutability":"view","type":"function"},{"inputs":[{"internalType":"uint256","name":"","type":"uint256"}],"name":"requestIdToCaller","outputs":[{"internalType":"address","name":"","type":"address"}],"stateMutability":"view","type":"function"},{"inputs":[{"internalType":"uint256","name":"","type":"uint256"}],"name":"requestIdToNumWords","outputs":[{"internalType":"uint256","name":"","type":"uint256"}],"stateMutability":"view","type":"function"},{"inputs":[{"internalType":"uint256","name":"requestId","type":"uint256"}],"name":"requestRandomNumberReturnZero","outputs":[],"stateMutability":"nonpayable","type":"function"},{"inputs":[{"internalType":"uint32","name":"numWords","type":"uint32"}],"name":"requestRandomNumbers","outputs":[{"internalType":"uint256","name":"requestId","type":"uint256"}],"stateMutability":"nonpayable","type":"function"}],"devdoc":{"kind":"dev","methods":{"requestRandomNumbers(uint32)":{"params":{"numWords":"number of random number requested"},"returns":{"requestId":"return by ChainLink"}}},"version":1},"evm":{"bytecode":{"linkReferences":{},"object":"608060405234801561001057600080fd5b5060405161067f38038061067f83398101604081905261002f91610054565b600080546001600160a01b0319166001600160a01b0392909216919091179055610084565b60006020828403121561006657600080fd5b81516001600160a01b038116811461007d57600080fd5b9392505050565b6105ec806100936000396000f3fe608060405234801561001057600080fd5b506004361061007d5760003560e01c80638be57c5b1161005b5780638be57c5b146100e8578063a45698fb146100fb578063b6c5a1501461011b578063fedb64651461014457600080fd5b80632bafa11b146100825780636c68ae17146100b25780637705a7f6146100c7575b600080fd5b600054610095906001600160a01b031681565b6040516001600160a01b0390911681526020015b60405180910390f35b6100c56100c036600461048f565b610164565b005b6100da6100d53660046104a8565b610334565b6040519081526020016100a9565b6100c56100f636600461048f565b6103bb565b6100da61010936600461048f565b60036020526000908152604090205481565b61009561012936600461048f565b6002602052600090815260409020546001600160a01b031681565b6100da6101523660046104d5565b60016020526000908152604090205481565b600081815260036020526040812054908167ffffffffffffffff81111561018d5761018d6104fe565b6040519080825280602002602001820160405280156101b6578160200160208202803683370190505b50905060005b828110156102bc5780600003610226576101d760014361052a565b604080519140602083015233908201526060016040516020818303038152906040528051906020012060001c82828151811061021557610215610543565b6020026020010181815250506102aa565b8161023260018361052a565b8151811061024257610242610543565b6020026020010151600143610257919061052a565b40604051602001610272929190918252602082015260400190565b6040516020818303038152906040528051906020012060001c82828151811061029d5761029d610543565b6020026020010181815250505b806102b481610559565b9150506101bc565b506000838152600260205260409081902054905163cb784b4d60e01b81526001600160a01b0390911690819063cb784b4d906102fc908590600401610572565b600060405180830381600087803b15801561031657600080fd5b505af115801561032a573d6000803e3d6000fd5b5050505050505050565b600061034160014361052a565b60045460408051924060208401523390830152606082015260800160408051601f198184030181529181528151602092830120336000818152600185528381208390558281526002855283812080546001600160a01b0319169092179091556003909352912063ffffffff90931690925550600481905590565b60008181526002602090815260408083205460039092528220546001600160a01b03909116918167ffffffffffffffff8111156103fa576103fa6104fe565b604051908082528060200260200182016040528015610423578160200160208202803683370190505b50905060005b8281101561046257600082828151811061044557610445610543565b60209081029190910101528061045a81610559565b915050610429565b5060405163cb784b4d60e01b81526001600160a01b0384169063cb784b4d906102fc908490600401610572565b6000602082840312156104a157600080fd5b5035919050565b6000602082840312156104ba57600080fd5b813563ffffffff811681146104ce57600080fd5b9392505050565b6000602082840312156104e757600080fd5b81356001600160a01b03811681146104ce57600080fd5b634e487b7160e01b600052604160045260246000fd5b634e487b7160e01b600052601160045260246000fd5b8181038181111561053d5761053d610514565b92915050565b634e487b7160e01b600052603260045260246000fd5b60006001820161056b5761056b610514565b5060010190565b6020808252825182820181905260009190848201906040850190845b818110156105aa5783518352928401929184019160010161058e565b5090969550505050505056fea2646970667358221220f12319da527c7839b67680f68f8c52c99ce700168aff194887087213be11413364736f6c63430008110033","opcodes":"PUSH1 0x80 PUSH1 0x40 MSTORE CALLVALUE DUP1 ISZERO PUSH2 0x10 JUMPI PUSH1 0x0 DUP1 REVERT JUMPDEST POP PUSH1 0x40 MLOAD PUSH2 0x67F CODESIZE SUB DUP1 PUSH2 0x67F DUP4 CODECOPY DUP2 ADD PUSH1 0x40 DUP2 SWAP1 MSTORE PUSH2 0x2F SWAP2 PUSH2 0x54 JUMP JUMPDEST PUSH1 0x0 DUP1 SLOAD PUSH1 0x1 PUSH1 0x1 PUSH1 0xA0 SHL SUB NOT AND PUSH1 0x1 PUSH1 0x1 PUSH1 0xA0 SHL SUB SWAP3 SWAP1 SWAP3 AND SWAP2 SWAP1 SWAP2 OR SWAP1 SSTORE PUSH2 0x84 JUMP JUMPDEST PUSH1 0x0 PUSH1 0x20 DUP3 DUP5 SUB SLT ISZERO PUSH2 0x66 JUMPI PUSH1 0x0 DUP1 REVERT JUMPDEST DUP2 MLOAD PUSH1 0x1 PUSH1 0x1 PUSH1 0xA0 SHL SUB DUP2 AND DUP2 EQ PUSH2 0x7D JUMPI PUSH1 0x0 DUP1 REVERT JUMPDEST SWAP4 SWAP3 POP POP POP JUMP JUMPDEST PUSH2 0x5EC DUP1 PUSH2 0x93 PUSH1 0x0 CODECOPY PUSH1 0x0 RETURN INVALID PUSH1 0x80 PUSH1 0x40 MSTORE CALLVALUE DUP1 ISZERO PUSH2 0x10 JUMPI PUSH1 0x0 DUP1 REVERT JUMPDEST POP PUSH1 0x4 CALLDATASIZE LT PUSH2 0x7D JUMPI PUSH1 0x0 CALLDATALOAD PUSH1 0xE0 SHR DUP1 PUSH4 0x8BE57C5B GT PUSH2 0x5B JUMPI DUP1 PUSH4 0x8BE57C5B EQ PUSH2 0xE8 JUMPI DUP1 PUSH4 0xA45698FB EQ PUSH2 0xFB JUMPI DUP1 PUSH4 0xB6C5A150 EQ PUSH2 0x11B JUMPI DUP1 PUSH4 0xFEDB6465 EQ PUSH2 0x144 JUMPI PUSH1 0x0 DUP1 REVERT JUMPDEST DUP1 PUSH4 0x2BAFA11B EQ PUSH2 0x82 JUMPI DUP1 PUSH4 0x6C68AE17 EQ PUSH2 0xB2 JUMPI DUP1 PUSH4 0x7705A7F6 EQ PUSH2 0xC7 JUMPI JUMPDEST PUSH1 0x0 DUP1 REVERT JUMPDEST PUSH1 0x0 SLOAD PUSH2 0x95 SWAP1 PUSH1 0x1 PUSH1 0x1 PUSH1 0xA0 SHL SUB AND DUP2 JUMP JUMPDEST PUSH1 0x40 MLOAD PUSH1 0x1 PUSH1 0x1 PUSH1 0xA0 SHL SUB SWAP1 SWAP2 AND DUP2 MSTORE PUSH1 0x20 ADD JUMPDEST PUSH1 0x40 MLOAD DUP1 SWAP2 SUB SWAP1 RETURN JUMPDEST PUSH2 0xC5 PUSH2 0xC0 CALLDATASIZE PUSH1 0x4 PUSH2 0x48F JUMP JUMPDEST PUSH2 0x164 JUMP JUMPDEST STOP JUMPDEST PUSH2 0xDA PUSH2 0xD5 CALLDATASIZE PUSH1 0x4 PUSH2 0x4A8 JUMP JUMPDEST PUSH2 0x334 JUMP JUMPDEST PUSH1 0x40 MLOAD SWAP1 DUP2 MSTORE PUSH1 0x20 ADD PUSH2 0xA9 JUMP JUMPDEST PUSH2 0xC5 PUSH2 0xF6 CALLDATASIZE PUSH1 0x4 PUSH2 0x48F JUMP JUMPDEST PUSH2 0x3BB JUMP JUMPDEST PUSH2 0xDA PUSH2 0x109 CALLDATASIZE PUSH1 0x4 PUSH2 0x48F JUMP JUMPDEST PUSH1 0x3 PUSH1 0x20 MSTORE PUSH1 0x0 SWAP1 DUP2 MSTORE PUSH1 0x40 SWAP1 KECCAK256 SLOAD DUP2 JUMP JUMPDEST PUSH2 0x95 PUSH2 0x129 CALLDATASIZE PUSH1 0x4 PUSH2 0x48F JUMP JUMPDEST PUSH1 0x2 PUSH1 0x20 MSTORE PUSH1 0x0 SWAP1 DUP2 MSTORE PUSH1 0x40 SWAP1 KECCAK256 SLOAD PUSH1 0x1 PUSH1 0x1 PUSH1 0xA0 SHL SUB AND DUP2 JUMP JUMPDEST PUSH2 0xDA PUSH2 0x152 CALLDATASIZE PUSH1 0x4 PUSH2 0x4D5 JUMP JUMPDEST PUSH1 0x1 PUSH1 0x20 MSTORE PUSH1 0x0 SWAP1 DUP2 MSTORE PUSH1 0x40 SWAP1 KECCAK256 SLOAD DUP2 JUMP JUMPDEST PUSH1 0x0 DUP2 DUP2 MSTORE PUSH1 0x3 PUSH1 0x20 MSTORE PUSH1 0x40 DUP2 KECCAK256 SLOAD SWAP1 DUP2 PUSH8 0xFFFFFFFFFFFFFFFF DUP2 GT ISZERO PUSH2 0x18D JUMPI PUSH2 0x18D PUSH2 0x4FE JUMP JUMPDEST PUSH1 0x40 MLOAD SWAP1 DUP1 DUP3 MSTORE DUP1 PUSH1 0x20 MUL PUSH1 0x20 ADD DUP3 ADD PUSH1 0x40 MSTORE DUP1 ISZERO PUSH2 0x1B6 JUMPI DUP2 PUSH1 0x20 ADD PUSH1 0x20 DUP3 MUL DUP1 CALLDATASIZE DUP4 CALLDATACOPY ADD SWAP1 POP JUMPDEST POP SWAP1 POP PUSH1 0x0 JUMPDEST DUP3 DUP2 LT ISZERO PUSH2 0x2BC JUMPI DUP1 PUSH1 0x0 SUB PUSH2 0x226 JUMPI PUSH2 0x1D7 PUSH1 0x1 NUMBER PUSH2 0x52A JUMP JUMPDEST PUSH1 0x40 DUP1 MLOAD SWAP2 BLOCKHASH PUSH1 0x20 DUP4 ADD MSTORE CALLER SWAP1 DUP3 ADD MSTORE PUSH1 0x60 ADD PUSH1 0x40 MLOAD PUSH1 0x20 DUP2 DUP4 SUB SUB DUP2 MSTORE SWAP1 PUSH1 0x40 MSTORE DUP1 MLOAD SWAP1 PUSH1 0x20 ADD KECCAK256 PUSH1 0x0 SHR DUP3 DUP3 DUP2 MLOAD DUP2 LT PUSH2 0x215 JUMPI PUSH2 0x215 PUSH2 0x543 JUMP JUMPDEST PUSH1 0x20 MUL PUSH1 0x20 ADD ADD DUP2 DUP2 MSTORE POP POP PUSH2 0x2AA JUMP JUMPDEST DUP2 PUSH2 0x232 PUSH1 0x1 DUP4 PUSH2 0x52A JUMP JUMPDEST DUP2 MLOAD DUP2 LT PUSH2 0x242 JUMPI PUSH2 0x242 PUSH2 0x543 JUMP JUMPDEST PUSH1 0x20 MUL PUSH1 0x20 ADD ADD MLOAD PUSH1 0x1 NUMBER PUSH2 0x257 SWAP2 SWAP1 PUSH2 0x52A JUMP JUMPDEST BLOCKHASH PUSH1 0x40 MLOAD PUSH1 0x20 ADD PUSH2 0x272 SWAP3 SWAP2 SWAP1 SWAP2 DUP3 MSTORE PUSH1 0x20 DUP3 ADD MSTORE PUSH1 0x40 ADD SWAP1 JUMP JUMPDEST PUSH1 0x40 MLOAD PUSH1 0x20 DUP2 DUP4 SUB SUB DUP2 MSTORE SWAP1 PUSH1 0x40 MSTORE DUP1 MLOAD SWAP1 PUSH1 0x20 ADD KECCAK256 PUSH1 0x0 SHR DUP3 DUP3 DUP2 MLOAD DUP2 LT PUSH2 0x29D JUMPI PUSH2 0x29D PUSH2 0x543 JUMP JUMPDEST PUSH1 0x20 MUL PUSH1 0x20 ADD ADD DUP2 DUP2 MSTORE POP POP JUMPDEST DUP1 PUSH2 0x2B4 DUP2 PUSH2 0x559 JUMP JUMPDEST SWAP2 POP POP PUSH2 0x1BC JUMP JUMPDEST POP PUSH1 0x0 DUP4 DUP2 MSTORE PUSH1 0x2 PUSH1 0x20 MSTORE PUSH1 0x40 SWAP1 DUP2 SWAP1 KECCAK256 SLOAD SWAP1 MLOAD PUSH4 0xCB784B4D PUSH1 0xE0 SHL DUP2 MSTORE PUSH1 0x1 PUSH1 0x1 PUSH1 0xA0 SHL SUB SWAP1 SWAP2 AND SWAP1 DUP2 SWAP1 PUSH4 0xCB784B4D SWAP1 PUSH2 0x2FC SWAP1 DUP6 SWAP1 PUSH1 0x4 ADD PUSH2 0x572 JUMP JUMPDEST PUSH1 0x0 PUSH1 0x40 MLOAD DUP1 DUP4 SUB DUP2 PUSH1 0x0 DUP8 DUP1 EXTCODESIZE ISZERO DUP1 ISZERO PUSH2 0x316 JUMPI PUSH1 0x0 DUP1 REVERT JUMPDEST POP GAS CALL ISZERO DUP1 ISZERO PUSH2 0x32A JUMPI RETURNDATASIZE PUSH1 0x0 DUP1 RETURNDATACOPY RETURNDATASIZE PUSH1 0x0 REVERT JUMPDEST POP POP POP POP POP POP POP POP JUMP JUMPDEST PUSH1 0x0 PUSH2 0x341 PUSH1 0x1 NUMBER PUSH2 0x52A JUMP JUMPDEST PUSH1 0x4 SLOAD PUSH1 0x40 DUP1 MLOAD SWAP3 BLOCKHASH PUSH1 0x20 DUP5 ADD MSTORE CALLER SWAP1 DUP4 ADD MSTORE PUSH1 0x60 DUP3 ADD MSTORE PUSH1 0x80 ADD PUSH1 0x40 DUP1 MLOAD PUSH1 0x1F NOT DUP2 DUP5 SUB ADD DUP2 MSTORE SWAP2 DUP2 MSTORE DUP2 MLOAD PUSH1 0x20 SWAP3 DUP4 ADD KECCAK256 CALLER PUSH1 0x0 DUP2 DUP2 MSTORE PUSH1 0x1 DUP6 MSTORE DUP4 DUP2 KECCAK256 DUP4 SWAP1 SSTORE DUP3 DUP2 MSTORE PUSH1 0x2 DUP6 MSTORE DUP4 DUP2 KECCAK256 DUP1 SLOAD PUSH1 0x1 PUSH1 0x1 PUSH1 0xA0 SHL SUB NOT AND SWAP1 SWAP3 OR SWAP1 SWAP2 SSTORE PUSH1 0x3 SWAP1 SWAP4 MSTORE SWAP2 KECCAK256 PUSH4 0xFFFFFFFF SWAP1 SWAP4 AND SWAP1 SWAP3 SSTORE POP PUSH1 0x4 DUP2 SWAP1 SSTORE SWAP1 JUMP JUMPDEST PUSH1 0x0 DUP2 DUP2 MSTORE PUSH1 0x2 PUSH1 0x20 SWAP1 DUP2 MSTORE PUSH1 0x40 DUP1 DUP4 KECCAK256 SLOAD PUSH1 0x3 SWAP1 SWAP3 MSTORE DUP3 KECCAK256 SLOAD PUSH1 0x1 PUSH1 0x1 PUSH1 0xA0 SHL SUB SWAP1 SWAP2 AND SWAP2 DUP2 PUSH8 0xFFFFFFFFFFFFFFFF DUP2 GT ISZERO PUSH2 0x3FA JUMPI PUSH2 0x3FA PUSH2 0x4FE JUMP JUMPDEST PUSH1 0x40 MLOAD SWAP1 DUP1 DUP3 MSTORE DUP1 PUSH1 0x20 MUL PUSH1 0x20 ADD DUP3 ADD PUSH1 0x40 MSTORE DUP1 ISZERO PUSH2 0x423 JUMPI DUP2 PUSH1 0x20 ADD PUSH1 0x20 DUP3 MUL DUP1 CALLDATASIZE DUP4 CALLDATACOPY ADD SWAP1 POP JUMPDEST POP SWAP1 POP PUSH1 0x0 JUMPDEST DUP3 DUP2 LT ISZERO PUSH2 0x462 JUMPI PUSH1 0x0 DUP3 DUP3 DUP2 MLOAD DUP2 LT PUSH2 0x445 JUMPI PUSH2 0x445 PUSH2 0x543 JUMP JUMPDEST PUSH1 0x20 SWAP1 DUP2 MUL SWAP2 SWAP1 SWAP2 ADD ADD MSTORE DUP1 PUSH2 0x45A DUP2 PUSH2 0x559 JUMP JUMPDEST SWAP2 POP POP PUSH2 0x429 JUMP JUMPDEST POP PUSH1 0x40 MLOAD PUSH4 0xCB784B4D PUSH1 0xE0 SHL DUP2 MSTORE PUSH1 0x1 PUSH1 0x1 PUSH1 0xA0 SHL SUB DUP5 AND SWAP1 PUSH4 0xCB784B4D SWAP1 PUSH2 0x2FC SWAP1 DUP5 SWAP1 PUSH1 0x4 ADD PUSH2 0x572 JUMP JUMPDEST PUSH1 0x0 PUSH1 0x20 DUP3 DUP5 SUB SLT ISZERO PUSH2 0x4A1 JUMPI PUSH1 0x0 DUP1 REVERT JUMPDEST POP CALLDATALOAD SWAP2 SWAP1 POP JUMP JUMPDEST PUSH1 0x0 PUSH1 0x20 DUP3 DUP5 SUB SLT ISZERO PUSH2 0x4BA JUMPI PUSH1 0x0 DUP1 REVERT JUMPDEST DUP2 CALLDATALOAD PUSH4 0xFFFFFFFF DUP2 AND DUP2 EQ PUSH2 0x4CE JUMPI PUSH1 0x0 DUP1 REVERT JUMPDEST SWAP4 SWAP3 POP POP POP JUMP JUMPDEST PUSH1 0x0 PUSH1 0x20 DUP3 DUP5 SUB SLT ISZERO PUSH2 0x4E7 JUMPI PUSH1 0x0 DUP1 REVERT JUMPDEST DUP2 CALLDATALOAD PUSH1 0x1 PUSH1 0x1 PUSH1 0xA0 SHL SUB DUP2 AND DUP2 EQ PUSH2 0x4CE JUMPI PUSH1 0x0 DUP1 REVERT JUMPDEST PUSH4 0x4E487B71 PUSH1 0xE0 SHL PUSH1 0x0 MSTORE PUSH1 0x41 PUSH1 0x4 MSTORE PUSH1 0x24 PUSH1 0x0 REVERT JUMPDEST PUSH4 0x4E487B71 PUSH1 0xE0 SHL PUSH1 0x0 MSTORE PUSH1 0x11 PUSH1 0x4 MSTORE PUSH1 0x24 PUSH1 0x0 REVERT JUMPDEST DUP2 DUP2 SUB DUP2 DUP2 GT ISZERO PUSH2 0x53D JUMPI PUSH2 0x53D PUSH2 0x514 JUMP JUMPDEST SWAP3 SWAP2 POP POP JUMP JUMPDEST PUSH4 0x4E487B71 PUSH1 0xE0 SHL PUSH1 0x0 MSTORE PUSH1 0x32 PUSH1 0x4 MSTORE PUSH1 0x24 PUSH1 0x0 REVERT JUMPDEST PUSH1 0x0 PUSH1 0x1 DUP3 ADD PUSH2 0x56B JUMPI PUSH2 0x56B PUSH2 0x514 JUMP JUMPDEST POP PUSH1 0x1 ADD SWAP1 JUMP JUMPDEST PUSH1 0x20 DUP1 DUP3 MSTORE DUP3 MLOAD DUP3 DUP3 ADD DUP2 SWAP1 MSTORE PUSH1 0x0 SWAP2 SWAP1 DUP5 DUP3 ADD SWAP1 PUSH1 0x40 DUP6 ADD SWAP1 DUP5 JUMPDEST DUP2 DUP2 LT ISZERO PUSH2 0x5AA JUMPI DUP4 MLOAD DUP4 MSTORE SWAP3 DUP5 ADD SWAP3 SWAP2 DUP5 ADD SWAP2 PUSH1 0x1 ADD PUSH2 0x58E JUMP JUMPDEST POP SWAP1 SWAP7 SWAP6 POP POP POP POP POP POP JUMP INVALID LOG2 PUSH5 0x6970667358 0x22 SLT KECCAK256 CALL 0x23 NOT 0xDA MSTORE PUSH29 0x7839B67680F68F8C52C99CE700168AFF194887087213BE11413364736F PUSH13 0x63430008110033000000000000 "},"gasEstimates":{"creation":{"codeDepositCost":"303200","executionCost":"infinite","totalCost":"infinite"},"external":{"callerToRequestId(address)":"2550","generateRandomNumbers(uint256)":"infinite","implementationManager()":"2327","requestIdToCaller(uint256)":"2510","requestIdToNumWords(uint256)":"2460","requestRandomNumberReturnZero(uint256)":"infinite","requestRandomNumbers(uint32)":"93504"}},"methodIdentifiers":{"callerToRequestId(address)":"fedb6465","generateRandomNumbers(uint256)":"6c68ae17","implementationManager()":"2bafa11b","requestIdToCaller(uint256)":"b6c5a150","requestIdToNumWords(uint256)":"a45698fb","requestRandomNumberReturnZero(uint256)":"8be57c5b","requestRandomNumbers(uint32)":"7705a7f6"}},"storageLayout":{"storage":[{"astId":4877,"contract":"src/mocks/MockRandomProvider.sol:MockRandomProvider","label":"implementationManager","offset":0,"slot":"0","type":"t_contract(IImplementationManager)4523"},{"astId":4881,"contract":"src/mocks/MockRandomProvider.sol:MockRandomProvider","label":"callerToRequestId","offset":0,"slot":"1","type":"t_mapping(t_address,t_uint256)"},{"astId":4885,"contract":"src/mocks/MockRandomProvider.sol:MockRandomProvider","label":"requestIdToCaller","offset":0,"slot":"2","type":"t_mapping(t_uint256,t_address)"},{"astId":4889,"contract":"src/mocks/MockRandomProvider.sol:MockRandomProvider","label":"requestIdToNumWords","offset":0,"slot":"3","type":"t_mapping(t_uint256,t_uint256)"},{"astId":4891,"contract":"src/mocks/MockRandomProvider.sol:MockRandomProvider","label":"nonce","offset":0,"slot":"4","type":"t_uint256"}],"types":{"t_address":{"encoding":"inplace","label":"address","numberOfBytes":"20"},"t_contract(IImplementationManager)4523":{"encoding":"inplace","label":"contract IImplementationManager","numberOfBytes":"20"},"t_mapping(t_address,t_uint256)":{"encoding":"mapping","key":"t_address","label":"mapping(address => uint256)","numberOfBytes":"32","value":"t_uint256"},"t_mapping(t_uint256,t_address)":{"encoding":"mapping","key":"t_uint256","label":"mapping(uint256 => address)","numberOfBytes":"32","value":"t_address"},"t_mapping(t_uint256,t_uint256)":{"encoding":"mapping","key":"t_uint256","label":"mapping(uint256 => uint256)","numberOfBytes":"32","value":"t_uint256"},"t_uint256":{"encoding":"inplace","label":"uint256","numberOfBytes":"32"}}},"userdoc":{"kind":"user","methods":{"requestRandomNumbers(uint32)":{"notice":"Request a random numbers using ChainLinkVRFv2"}},"version":1}}}}