{"src/raffle/Raffle.sol":{"Raffle":{"abi":[{"inputs":[],"name":"CANT_BE_ZERO","type":"error"},{"inputs":[],"name":"MAX_TICKET_SUPPLY_EXCEEDED","type":"error"},{"inputs":[],"name":"MSG_SENDER_NOT_WINNER","type":"error"},{"inputs":[],"name":"NOT_ADDRESS_0","type":"error"},{"inputs":[],"name":"NOT_CREATOR","type":"error"},{"inputs":[],"name":"NOT_ENOUGH_BALANCE","type":"error"},{"inputs":[],"name":"NOT_NFT_OWNER","type":"error"},{"inputs":[],"name":"NOT_RANDOM_PROVIDER_CONTRACT","type":"error"},{"inputs":[],"name":"RAFFLE_CLOSE","type":"error"},{"inputs":[],"name":"RAFFLE_STILL_OPEN","type":"error"},{"inputs":[],"name":"TICKET_ALREADY_DRAWN","type":"error"},{"inputs":[],"name":"TICKET_DRAWN_NOT_REQUESTED","type":"error"},{"inputs":[],"name":"TICKET_NOT_DRAWN","type":"error"},{"anonymous":false,"inputs":[{"indexed":true,"internalType":"address","name":"raffleContract","type":"address"},{"indexed":true,"internalType":"address","name":"winner","type":"address"},{"indexed":false,"internalType":"uint256","name":"amountReceived","type":"uint256"}],"name":"CreatorClaimTicketSalesAmount","type":"event"},{"anonymous":false,"inputs":[{"indexed":false,"internalType":"uint8","name":"version","type":"uint8"}],"name":"Initialized","type":"event"},{"anonymous":false,"inputs":[{"indexed":true,"internalType":"address","name":"raffleContract","type":"address"},{"indexed":true,"internalType":"address","name":"buyer","type":"address"},{"indexed":false,"internalType":"uint256[]","name":"ticketNumbers","type":"uint256[]"}],"name":"TicketPurchased","type":"event"},{"anonymous":false,"inputs":[{"indexed":true,"internalType":"address","name":"raffleContract","type":"address"},{"indexed":true,"internalType":"address","name":"winner","type":"address"},{"indexed":true,"internalType":"address","name":"nftContract","type":"address"},{"indexed":false,"internalType":"uint256","name":"nftId","type":"uint256"}],"name":"WinnerClaimedPrice","type":"event"},{"anonymous":false,"inputs":[{"indexed":true,"internalType":"address","name":"raffleContract","type":"address"},{"indexed":false,"internalType":"uint256","name":"winningTicket","type":"uint256"}],"name":"WinningTicketDrawned","type":"event"},{"inputs":[{"internalType":"address","name":"user","type":"address"}],"name":"balanceOf","outputs":[{"internalType":"uint256[]","name":"","type":"uint256[]"}],"stateMutability":"view","type":"function"},{"inputs":[],"name":"claimPrice","outputs":[],"stateMutability":"nonpayable","type":"function"},{"inputs":[],"name":"claimTicketSalesAmount","outputs":[],"stateMutability":"nonpayable","type":"function"},{"inputs":[],"name":"creator","outputs":[{"internalType":"address","name":"","type":"address"}],"stateMutability":"view","type":"function"},{"inputs":[],"name":"drawnTickets","outputs":[],"stateMutability":"nonpayable","type":"function"},{"inputs":[{"internalType":"uint256[]","name":"randomNumbers","type":"uint256[]"}],"name":"drawnTickets","outputs":[],"stateMutability":"nonpayable","type":"function"},{"inputs":[],"name":"endTicketSales","outputs":[{"internalType":"uint64","name":"","type":"uint64"}],"stateMutability":"view","type":"function"},{"inputs":[{"components":[{"internalType":"contract IImplementationManager","name":"implementationManager","type":"address"},{"internalType":"contract IERC20","name":"purchaseCurrency","type":"address"},{"internalType":"contract IERC721","name":"nftContract","type":"address"},{"internalType":"address","name":"creator","type":"address"},{"internalType":"uint256","name":"nftId","type":"uint256"},{"internalType":"uint256","name":"maxTicketSupply","type":"uint256"},{"internalType":"uint256","name":"ticketPrice","type":"uint256"},{"internalType":"uint64","name":"ticketSaleDuration","type":"uint64"}],"internalType":"struct RaffleDataTypes.InitRaffleParams","name":"_params","type":"tuple"}],"name":"initialize","outputs":[],"stateMutability":"nonpayable","type":"function"},{"inputs":[],"name":"maxSupply","outputs":[{"internalType":"uint256","name":"","type":"uint256"}],"stateMutability":"view","type":"function"},{"inputs":[],"name":"nftToWin","outputs":[{"internalType":"contract IERC721","name":"nftContractAddress","type":"address"},{"internalType":"uint256","name":"nftId","type":"uint256"}],"stateMutability":"view","type":"function"},{"inputs":[{"internalType":"uint256","name":"id","type":"uint256"}],"name":"ownerOf","outputs":[{"internalType":"address","name":"","type":"address"}],"stateMutability":"view","type":"function"},{"inputs":[],"name":"purchaseCurrency","outputs":[{"internalType":"contract IERC20","name":"","type":"address"}],"stateMutability":"view","type":"function"},{"inputs":[{"internalType":"uint256","name":"nbOfTickets","type":"uint256"}],"name":"purchaseTickets","outputs":[],"stateMutability":"nonpayable","type":"function"},{"inputs":[],"name":"raffleStatus","outputs":[{"internalType":"enum RaffleDataTypes.RaffleStatus","name":"","type":"uint8"}],"stateMutability":"view","type":"function"},{"inputs":[],"name":"randomProvider","outputs":[{"internalType":"address","name":"","type":"address"}],"stateMutability":"view","type":"function"},{"inputs":[],"name":"ticketPrice","outputs":[{"internalType":"uint256","name":"","type":"uint256"}],"stateMutability":"view","type":"function"},{"inputs":[],"name":"totalSupply","outputs":[{"internalType":"uint256","name":"","type":"uint256"}],"stateMutability":"view","type":"function"},{"inputs":[],"name":"winnerAddress","outputs":[{"internalType":"address","name":"","type":"address"}],"stateMutability":"view","type":"function"},{"inputs":[],"name":"winningTicket","outputs":[{"internalType":"uint256","name":"","type":"uint256"}],"stateMutability":"view","type":"function"}],"devdoc":{"kind":"dev","methods":{"balanceOf(address)":{"returns":{"_0":"True if ticket has been drawn, False otherwise"}},"claimPrice()":{"details":"Ticket number must be draw and raffle close to new participants"},"claimTicketSalesAmount()":{"details":"The functions should send to the creator his part after fees"},"creator()":{"returns":{"_0":"The address of the creator"}},"drawnTickets()":{"details":"must call the RandomProvider that use ChainLinkVRFv2 "},"drawnTickets(uint256[])":{"details":"must be only called by the RandomProvider contract or the RaffleFactoryfunction must not revert to avoid multi drawn to be reverted","params":{"randomNumbers":"random numbers requested in array"}},"endTicketSales()":{"returns":{"_0":"The time in timestamps"}},"initialize((address,address,address,address,uint256,uint256,uint256,uint64))":{"details":"must be tag by the initializer function ","params":{"_params":"used for initialization (see InitRaffleParams struct)"}},"maxSupply()":{"returns":{"_0":"The total amount of tickets sold"}},"nftToWin()":{"returns":{"nftContractAddress":"The address of the nft","nftId":"The id of the nft"}},"ownerOf(uint256)":{"returns":{"_0":"The address that bought the own the ticket"}},"purchaseCurrency()":{"returns":{"_0":"The address of the ERC20"}},"purchaseTickets(uint256)":{"details":"Only accessible if raffle still open to particpants","params":{"nbOfTickets":"number of tickets purchased"}},"raffleStatus()":{"returns":{"_0":"The status regarding the RaffleStatus enum "}},"randomProvider()":{"returns":{"_0":"The address of the randomProvider contract"}},"ticketPrice()":{"returns":{"_0":"The amount of token that one ticket cost"}},"totalSupply()":{"returns":{"_0":"The total amount of tickets sold"}},"winnerAddress()":{"details":"revert if ticket sales not close and if ticket number hasn't be drawn","returns":{"_0":"The address of the wallet that won the raffle"}},"winningTicket()":{"details":"revert if ticket sales not close and if ticket number hasn't be drawn","returns":{"_0":"The ticket number that win the raffle"}}},"version":1},"evm":{"bytecode":{"linkReferences":{},"object":"608060405234801561001057600080fd5b506113fd806100206000396000f3fe608060405234801561001057600080fd5b50600436106101215760003560e01c80636a4a5b2d116100ad578063cb784b4d11610071578063cb784b4d1461024a578063ccfa213e1461025d578063cf6622ab14610277578063d5abeb0114610292578063ed7a4e0b1461029a57600080fd5b80636a4a5b2d146101f657806370a08231146102075780638f46500e14610227578063a12776001461022f578063c26eea541461024257600080fd5b80633b398ff8116100f45780633b398ff814610174578063413c5f72146101aa5780634d1d3031146101b25780636352211e146101c5578063636ed74c146101ee57600080fd5b806302d05d3f146101265780631209b1f61461015057806315d655c91461016257806318160ddd1461016c575b600080fd5b6003546001600160a01b03165b6040516001600160a01b0390911681526020015b60405180910390f35b600a545b604051908152602001610147565b61016a6102a2565b005b600954610154565b61018b6006546007546001600160a01b0390911691565b604080516001600160a01b039093168352602083019190915201610147565b61016a6103fe565b61016a6101c036600461109f565b6104f3565b6101336101d3366004611153565b6000908152600160205260409020546001600160a01b031690565b61016a6106af565b6004546001600160a01b0316610133565b61021a61021536600461116c565b61086c565b6040516101479190611190565b6101336108d8565b61016a61023d366004611153565b61095b565b610154610c17565b61016a6102583660046111d4565b610c99565b600c54600160401b900460ff16604051610147919061128f565b600c546040516001600160401b039091168152602001610147565b600854610154565b610133610dce565b600c546001600160401b03164210156102ce57604051630c2695bf60e11b815260040160405180910390fd5b6002600c54600160401b900460ff1660028111156102ee576102ee611279565b1461030c576040516316de234960e11b815260040160405180910390fd5b610314610dce565b6001600160a01b0316336001600160a01b0316146103455760405163b4e5b12160e01b815260040160405180910390fd5b600654600754604051632142170760e11b815230600482015233602482015260448101919091526001600160a01b03909116906342842e0e90606401600060405180830381600087803b15801561039b57600080fd5b505af11580156103af573d6000803e3d6000fd5b50506006546007546040519081526001600160a01b03909116925033915030907f1fc6b0218aceb86978fcfee181f91a4a3f28d1eddff4e6df0c3dc99c79ace6d49060200160405180910390a4565b600c546001600160401b031642101561042a57604051630c2695bf60e11b815260040160405180910390fd5b6002600c54600160401b900460ff16600281111561044a5761044a611279565b0361046857604051630a7f733d60e41b815260040160405180910390fd5b600c805460ff60401b1916600160401b1790556104836108d8565b604051633b82d3fb60e11b8152600160048201526001600160a01b039190911690637705a7f6906024016020604051808303816000875af11580156104cc573d6000803e3d6000fd5b505050506040513d601f19601f820116820180604052508101906104f091906112b7565b50565b600054610100900460ff16158080156105135750600054600160ff909116105b8061052d5750303b15801561052d575060005460ff166001145b6105945760405162461bcd60e51b815260206004820152602e60248201527f496e697469616c697a61626c653a20636f6e747261637420697320616c72656160448201526d191e481a5b9a5d1a585b1a5e995960921b606482015260840160405180910390fd5b6000805460ff1916600117905580156105b7576000805461ff0019166101001790555b6105c082610e68565b8151600580546001600160a01b039283166001600160a01b031991821617909155606084015160038054918416918316919091179055602084015160048054918416918316919091179055604084015160068054919093169116179055608082015160075560a082015160085560c0820151600a5560e082015161064490426112e6565b600c805467ffffffffffffffff19166001600160401b039290921691909117905580156106ab576000805461ff0019169055604051600181527f7f26b83ff96e1f2b6a682f133852f6798a09c465da95921460cefb38474024989060200160405180910390a15b5050565b600c546001600160401b03164210156106db57604051630c2695bf60e11b815260040160405180910390fd5b6002600c54600160401b900460ff1660028111156106fb576106fb611279565b14610719576040516316de234960e11b815260040160405180910390fd5b6003546001600160a01b0316331461074457604051632cff942760e01b815260040160405180910390fd5b600480546040516370a0823160e01b815230928101929092526000916001600160a01b03909116906370a0823190602401602060405180830381865afa158015610792573d6000803e3d6000fd5b505050506040513d601f19601f820116820180604052508101906107b691906112b7565b6004805460405163a9059cbb60e01b81523392810192909252602482018390529192506001600160a01b039091169063a9059cbb906044016020604051808303816000875af115801561080d573d6000803e3d6000fd5b505050506040513d601f19601f82011682018060405250810190610831919061130d565b50604051818152339030907f2427926a2340a250197c73c9c1a12ca71ee0f1f53f8e08badda42770afc6ecf69060200160405180910390a350565b6001600160a01b0381166000908152600260209081526040918290208054835181840281018401909452808452606093928301828280156108cc57602002820191906000526020600020905b8154815260200190600101908083116108b8575b50505050509050919050565b6005546040516302abf57960e61b81526d2930b73237b6a83937bb34b232b960911b60048201526000916001600160a01b03169063aafd5e4090602401602060405180830381865afa158015610932573d6000803e3d6000fd5b505050506040513d601f19601f82011682018060405250810190610956919061132f565b905090565b600c546001600160401b031642106109865760405163377d0b8560e11b815260040160405180910390fd5b806000036109a7576040516398fccb2760e01b815260040160405180910390fd5b600854816109b460095490565b6109be919061134c565b11156109dd576040516384bfcb9560e01b815260040160405180910390fd5b600480546040516370a0823160e01b815233928101929092526001600160a01b0316906370a0823190602401602060405180830381865afa158015610a26573d6000803e3d6000fd5b505050506040513d601f19601f82011682018060405250810190610a4a91906112b7565b610a5382611006565b1115610a725760405163119563e560e31b815260040160405180910390fd5b6004546001600160a01b03166323b872dd3330610a8e85611006565b6040516001600160e01b031960e086901b1681526001600160a01b03938416600482015292909116602483015260448201526064016020604051808303816000875af1158015610ae2573d6000803e3d6000fd5b505050506040513d601f19601f82011682018060405250810190610b06919061130d565b503360009081526002602052604081206009549091836001600160401b03811115610b3357610b3361101d565b604051908082528060200260200182016040528015610b5c578160200160208202803683370190505b50905060005b84811015610bcf57610b738361135f565b925082828281518110610b8857610b88611378565b6020908102919091018101919091528454600181810187556000878152838120909201869055858252918290526040902080546001600160a01b0319163317905501610b62565b506009829055604051339030907f3298f998adc3ec4bdcc9bb12f2a924f1d28c61596124855d7d6d4d09e231847a90610c09908590611190565b60405180910390a350505050565b6000610c2b600c546001600160401b031690565b6001600160401b0316421015610c5457604051630c2695bf60e11b815260040160405180910390fd5b6002600c54600160401b900460ff166002811115610c7457610c74611279565b14610c92576040516316de234960e11b815260040160405180910390fd5b50600b5490565b33610ca26108d8565b6001600160a01b031614610cc95760405163170cd40b60e31b815260040160405180910390fd5b6001600c54600160401b900460ff166002811115610ce957610ce9611279565b14610d07576040516345a4ca3b60e11b815260040160405180910390fd5b80600081518110610d1a57610d1a611378565b60200260200101516000148015610d3057508051155b15610d4357600c805460ff60401b191690555b60036006015481600081518110610d5c57610d5c611378565b6020026020010151610d6e919061138e565b610d7990600161134c565b600b819055600c805460ff60401b191668020000000000000000179055604080519182525130917fbd2ef7d8e723142e22eed26d859400cda0ac602edacddc8b13f96c921011a9ac919081900360200190a250565b6000610de2600c546001600160401b031690565b6001600160401b0316421015610e0b57604051630c2695bf60e11b815260040160405180910390fd5b6002600c54600160401b900460ff166002811115610e2b57610e2b611279565b14610e49576040516316de234960e11b815260040160405180910390fd5b50600b546000908152600160205260409020546001600160a01b031690565b80516001600160a01b0316610e9057604051639f34e01960e01b815260040160405180910390fd5b60208101516001600160a01b0316610ebb57604051639f34e01960e01b815260040160405180910390fd5b306001600160a01b031681604001516001600160a01b0316636352211e83608001516040518263ffffffff1660e01b8152600401610efb91815260200190565b602060405180830381865afa158015610f18573d6000803e3d6000fd5b505050506040513d601f19601f82011682018060405250810190610f3c919061132f565b6001600160a01b031614610f6357604051637bed417b60e01b815260040160405180910390fd5b60608101516001600160a01b0316610f8e57604051639f34e01960e01b815260040160405180910390fd5b8060c00151600003610fb3576040516398fccb2760e01b815260040160405180910390fd5b8060a00151600003610fd8576040516398fccb2760e01b815260040160405180910390fd5b8060e001516001600160401b03166000036104f0576040516398fccb2760e01b815260040160405180910390fd5b600a546000906110179083906113b0565b92915050565b634e487b7160e01b600052604160045260246000fd5b604051601f8201601f191681016001600160401b038111828210171561105b5761105b61101d565b604052919050565b6001600160a01b03811681146104f057600080fd5b803561108381611063565b919050565b80356001600160401b038116811461108357600080fd5b60006101008083850312156110b357600080fd5b604051908101906001600160401b03821181831017156110d5576110d561101d565b81604052833591506110e682611063565b8181526110f560208501611078565b602082015261110660408501611078565b604082015261111760608501611078565b60608201526080840135608082015260a084013560a082015260c084013560c082015261114660e08501611088565b60e0820152949350505050565b60006020828403121561116557600080fd5b5035919050565b60006020828403121561117e57600080fd5b813561118981611063565b9392505050565b6020808252825182820181905260009190848201906040850190845b818110156111c8578351835292840192918401916001016111ac565b50909695505050505050565b600060208083850312156111e757600080fd5b82356001600160401b03808211156111fe57600080fd5b818501915085601f83011261121257600080fd5b8135818111156112245761122461101d565b8060051b9150611235848301611033565b818152918301840191848101908884111561124f57600080fd5b938501935b8385101561126d57843582529385019390850190611254565b98975050505050505050565b634e487b7160e01b600052602160045260246000fd5b60208101600383106112b157634e487b7160e01b600052602160045260246000fd5b91905290565b6000602082840312156112c957600080fd5b5051919050565b634e487b7160e01b600052601160045260246000fd5b6001600160401b03818116838216019080821115611306576113066112d0565b5092915050565b60006020828403121561131f57600080fd5b8151801515811461118957600080fd5b60006020828403121561134157600080fd5b815161118981611063565b80820180821115611017576110176112d0565b600060018201611371576113716112d0565b5060010190565b634e487b7160e01b600052603260045260246000fd5b6000826113ab57634e487b7160e01b600052601260045260246000fd5b500690565b8082028115828204841417611017576110176112d056fea26469706673582212209a841ee6824654e8df3cf07d9507d6a2fdc386bc4e4496850ba1b3264e0440d564736f6c63430008110033","opcodes":"PUSH1 0x80 PUSH1 0x40 MSTORE CALLVALUE DUP1 ISZERO PUSH2 0x10 JUMPI PUSH1 0x0 DUP1 REVERT JUMPDEST POP PUSH2 0x13FD DUP1 PUSH2 0x20 PUSH1 0x0 CODECOPY PUSH1 0x0 RETURN INVALID PUSH1 0x80 PUSH1 0x40 MSTORE CALLVALUE DUP1 ISZERO PUSH2 0x10 JUMPI PUSH1 0x0 DUP1 REVERT JUMPDEST POP PUSH1 0x4 CALLDATASIZE LT PUSH2 0x121 JUMPI PUSH1 0x0 CALLDATALOAD PUSH1 0xE0 SHR DUP1 PUSH4 0x6A4A5B2D GT PUSH2 0xAD JUMPI DUP1 PUSH4 0xCB784B4D GT PUSH2 0x71 JUMPI DUP1 PUSH4 0xCB784B4D EQ PUSH2 0x24A JUMPI DUP1 PUSH4 0xCCFA213E EQ PUSH2 0x25D JUMPI DUP1 PUSH4 0xCF6622AB EQ PUSH2 0x277 JUMPI DUP1 PUSH4 0xD5ABEB01 EQ PUSH2 0x292 JUMPI DUP1 PUSH4 0xED7A4E0B EQ PUSH2 0x29A JUMPI PUSH1 0x0 DUP1 REVERT JUMPDEST DUP1 PUSH4 0x6A4A5B2D EQ PUSH2 0x1F6 JUMPI DUP1 PUSH4 0x70A08231 EQ PUSH2 0x207 JUMPI DUP1 PUSH4 0x8F46500E EQ PUSH2 0x227 JUMPI DUP1 PUSH4 0xA1277600 EQ PUSH2 0x22F JUMPI DUP1 PUSH4 0xC26EEA54 EQ PUSH2 0x242 JUMPI PUSH1 0x0 DUP1 REVERT JUMPDEST DUP1 PUSH4 0x3B398FF8 GT PUSH2 0xF4 JUMPI DUP1 PUSH4 0x3B398FF8 EQ PUSH2 0x174 JUMPI DUP1 PUSH4 0x413C5F72 EQ PUSH2 0x1AA JUMPI DUP1 PUSH4 0x4D1D3031 EQ PUSH2 0x1B2 JUMPI DUP1 PUSH4 0x6352211E EQ PUSH2 0x1C5 JUMPI DUP1 PUSH4 0x636ED74C EQ PUSH2 0x1EE JUMPI PUSH1 0x0 DUP1 REVERT JUMPDEST DUP1 PUSH4 0x2D05D3F EQ PUSH2 0x126 JUMPI DUP1 PUSH4 0x1209B1F6 EQ PUSH2 0x150 JUMPI DUP1 PUSH4 0x15D655C9 EQ PUSH2 0x162 JUMPI DUP1 PUSH4 0x18160DDD EQ PUSH2 0x16C JUMPI JUMPDEST PUSH1 0x0 DUP1 REVERT JUMPDEST PUSH1 0x3 SLOAD PUSH1 0x1 PUSH1 0x1 PUSH1 0xA0 SHL SUB AND JUMPDEST PUSH1 0x40 MLOAD PUSH1 0x1 PUSH1 0x1 PUSH1 0xA0 SHL SUB SWAP1 SWAP2 AND DUP2 MSTORE PUSH1 0x20 ADD JUMPDEST PUSH1 0x40 MLOAD DUP1 SWAP2 SUB SWAP1 RETURN JUMPDEST PUSH1 0xA SLOAD JUMPDEST PUSH1 0x40 MLOAD SWAP1 DUP2 MSTORE PUSH1 0x20 ADD PUSH2 0x147 JUMP JUMPDEST PUSH2 0x16A PUSH2 0x2A2 JUMP JUMPDEST STOP JUMPDEST PUSH1 0x9 SLOAD PUSH2 0x154 JUMP JUMPDEST PUSH2 0x18B PUSH1 0x6 SLOAD PUSH1 0x7 SLOAD PUSH1 0x1 PUSH1 0x1 PUSH1 0xA0 SHL SUB SWAP1 SWAP2 AND SWAP2 JUMP JUMPDEST PUSH1 0x40 DUP1 MLOAD PUSH1 0x1 PUSH1 0x1 PUSH1 0xA0 SHL SUB SWAP1 SWAP4 AND DUP4 MSTORE PUSH1 0x20 DUP4 ADD SWAP2 SWAP1 SWAP2 MSTORE ADD PUSH2 0x147 JUMP JUMPDEST PUSH2 0x16A PUSH2 0x3FE JUMP JUMPDEST PUSH2 0x16A PUSH2 0x1C0 CALLDATASIZE PUSH1 0x4 PUSH2 0x109F JUMP JUMPDEST PUSH2 0x4F3 JUMP JUMPDEST PUSH2 0x133 PUSH2 0x1D3 CALLDATASIZE PUSH1 0x4 PUSH2 0x1153 JUMP JUMPDEST PUSH1 0x0 SWAP1 DUP2 MSTORE PUSH1 0x1 PUSH1 0x20 MSTORE PUSH1 0x40 SWAP1 KECCAK256 SLOAD PUSH1 0x1 PUSH1 0x1 PUSH1 0xA0 SHL SUB AND SWAP1 JUMP JUMPDEST PUSH2 0x16A PUSH2 0x6AF JUMP JUMPDEST PUSH1 0x4 SLOAD PUSH1 0x1 PUSH1 0x1 PUSH1 0xA0 SHL SUB AND PUSH2 0x133 JUMP JUMPDEST PUSH2 0x21A PUSH2 0x215 CALLDATASIZE PUSH1 0x4 PUSH2 0x116C JUMP JUMPDEST PUSH2 0x86C JUMP JUMPDEST PUSH1 0x40 MLOAD PUSH2 0x147 SWAP2 SWAP1 PUSH2 0x1190 JUMP JUMPDEST PUSH2 0x133 PUSH2 0x8D8 JUMP JUMPDEST PUSH2 0x16A PUSH2 0x23D CALLDATASIZE PUSH1 0x4 PUSH2 0x1153 JUMP JUMPDEST PUSH2 0x95B JUMP JUMPDEST PUSH2 0x154 PUSH2 0xC17 JUMP JUMPDEST PUSH2 0x16A PUSH2 0x258 CALLDATASIZE PUSH1 0x4 PUSH2 0x11D4 JUMP JUMPDEST PUSH2 0xC99 JUMP JUMPDEST PUSH1 0xC SLOAD PUSH1 0x1 PUSH1 0x40 SHL SWAP1 DIV PUSH1 0xFF AND PUSH1 0x40 MLOAD PUSH2 0x147 SWAP2 SWAP1 PUSH2 0x128F JUMP JUMPDEST PUSH1 0xC SLOAD PUSH1 0x40 MLOAD PUSH1 0x1 PUSH1 0x1 PUSH1 0x40 SHL SUB SWAP1 SWAP2 AND DUP2 MSTORE PUSH1 0x20 ADD PUSH2 0x147 JUMP JUMPDEST PUSH1 0x8 SLOAD PUSH2 0x154 JUMP JUMPDEST PUSH2 0x133 PUSH2 0xDCE JUMP JUMPDEST PUSH1 0xC SLOAD PUSH1 0x1 PUSH1 0x1 PUSH1 0x40 SHL SUB AND TIMESTAMP LT ISZERO PUSH2 0x2CE JUMPI PUSH1 0x40 MLOAD PUSH4 0xC2695BF PUSH1 0xE1 SHL DUP2 MSTORE PUSH1 0x4 ADD PUSH1 0x40 MLOAD DUP1 SWAP2 SUB SWAP1 REVERT JUMPDEST PUSH1 0x2 PUSH1 0xC SLOAD PUSH1 0x1 PUSH1 0x40 SHL SWAP1 DIV PUSH1 0xFF AND PUSH1 0x2 DUP2 GT ISZERO PUSH2 0x2EE JUMPI PUSH2 0x2EE PUSH2 0x1279 JUMP JUMPDEST EQ PUSH2 0x30C JUMPI PUSH1 0x40 MLOAD PUSH4 0x16DE2349 PUSH1 0xE1 SHL DUP2 MSTORE PUSH1 0x4 ADD PUSH1 0x40 MLOAD DUP1 SWAP2 SUB SWAP1 REVERT JUMPDEST PUSH2 0x314 PUSH2 0xDCE JUMP JUMPDEST PUSH1 0x1 PUSH1 0x1 PUSH1 0xA0 SHL SUB AND CALLER PUSH1 0x1 PUSH1 0x1 PUSH1 0xA0 SHL SUB AND EQ PUSH2 0x345 JUMPI PUSH1 0x40 MLOAD PUSH4 0xB4E5B121 PUSH1 0xE0 SHL DUP2 MSTORE PUSH1 0x4 ADD PUSH1 0x40 MLOAD DUP1 SWAP2 SUB SWAP1 REVERT JUMPDEST PUSH1 0x6 SLOAD PUSH1 0x7 SLOAD PUSH1 0x40 MLOAD PUSH4 0x21421707 PUSH1 0xE1 SHL DUP2 MSTORE ADDRESS PUSH1 0x4 DUP3 ADD MSTORE CALLER PUSH1 0x24 DUP3 ADD MSTORE PUSH1 0x44 DUP2 ADD SWAP2 SWAP1 SWAP2 MSTORE PUSH1 0x1 PUSH1 0x1 PUSH1 0xA0 SHL SUB SWAP1 SWAP2 AND SWAP1 PUSH4 0x42842E0E SWAP1 PUSH1 0x64 ADD PUSH1 0x0 PUSH1 0x40 MLOAD DUP1 DUP4 SUB DUP2 PUSH1 0x0 DUP8 DUP1 EXTCODESIZE ISZERO DUP1 ISZERO PUSH2 0x39B JUMPI PUSH1 0x0 DUP1 REVERT JUMPDEST POP GAS CALL ISZERO DUP1 ISZERO PUSH2 0x3AF JUMPI RETURNDATASIZE PUSH1 0x0 DUP1 RETURNDATACOPY RETURNDATASIZE PUSH1 0x0 REVERT JUMPDEST POP POP PUSH1 0x6 SLOAD PUSH1 0x7 SLOAD PUSH1 0x40 MLOAD SWAP1 DUP2 MSTORE PUSH1 0x1 PUSH1 0x1 PUSH1 0xA0 SHL SUB SWAP1 SWAP2 AND SWAP3 POP CALLER SWAP2 POP ADDRESS SWAP1 PUSH32 0x1FC6B0218ACEB86978FCFEE181F91A4A3F28D1EDDFF4E6DF0C3DC99C79ACE6D4 SWAP1 PUSH1 0x20 ADD PUSH1 0x40 MLOAD DUP1 SWAP2 SUB SWAP1 LOG4 JUMP JUMPDEST PUSH1 0xC SLOAD PUSH1 0x1 PUSH1 0x1 PUSH1 0x40 SHL SUB AND TIMESTAMP LT ISZERO PUSH2 0x42A JUMPI PUSH1 0x40 MLOAD PUSH4 0xC2695BF PUSH1 0xE1 SHL DUP2 MSTORE PUSH1 0x4 ADD PUSH1 0x40 MLOAD DUP1 SWAP2 SUB SWAP1 REVERT JUMPDEST PUSH1 0x2 PUSH1 0xC SLOAD PUSH1 0x1 PUSH1 0x40 SHL SWAP1 DIV PUSH1 0xFF AND PUSH1 0x2 DUP2 GT ISZERO PUSH2 0x44A JUMPI PUSH2 0x44A PUSH2 0x1279 JUMP JUMPDEST SUB PUSH2 0x468 JUMPI PUSH1 0x40 MLOAD PUSH4 0xA7F733D PUSH1 0xE4 SHL DUP2 MSTORE PUSH1 0x4 ADD PUSH1 0x40 MLOAD DUP1 SWAP2 SUB SWAP1 REVERT JUMPDEST PUSH1 0xC DUP1 SLOAD PUSH1 0xFF PUSH1 0x40 SHL NOT AND PUSH1 0x1 PUSH1 0x40 SHL OR SWAP1 SSTORE PUSH2 0x483 PUSH2 0x8D8 JUMP JUMPDEST PUSH1 0x40 MLOAD PUSH4 0x3B82D3FB PUSH1 0xE1 SHL DUP2 MSTORE PUSH1 0x1 PUSH1 0x4 DUP3 ADD MSTORE PUSH1 0x1 PUSH1 0x1 PUSH1 0xA0 SHL SUB SWAP2 SWAP1 SWAP2 AND SWAP1 PUSH4 0x7705A7F6 SWAP1 PUSH1 0x24 ADD PUSH1 0x20 PUSH1 0x40 MLOAD DUP1 DUP4 SUB DUP2 PUSH1 0x0 DUP8 GAS CALL ISZERO DUP1 ISZERO PUSH2 0x4CC JUMPI RETURNDATASIZE PUSH1 0x0 DUP1 RETURNDATACOPY RETURNDATASIZE PUSH1 0x0 REVERT JUMPDEST POP POP POP POP PUSH1 0x40 MLOAD RETURNDATASIZE PUSH1 0x1F NOT PUSH1 0x1F DUP3 ADD AND DUP3 ADD DUP1 PUSH1 0x40 MSTORE POP DUP2 ADD SWAP1 PUSH2 0x4F0 SWAP2 SWAP1 PUSH2 0x12B7 JUMP JUMPDEST POP JUMP JUMPDEST PUSH1 0x0 SLOAD PUSH2 0x100 SWAP1 DIV PUSH1 0xFF AND ISZERO DUP1 DUP1 ISZERO PUSH2 0x513 JUMPI POP PUSH1 0x0 SLOAD PUSH1 0x1 PUSH1 0xFF SWAP1 SWAP2 AND LT JUMPDEST DUP1 PUSH2 0x52D JUMPI POP ADDRESS EXTCODESIZE ISZERO DUP1 ISZERO PUSH2 0x52D JUMPI POP PUSH1 0x0 SLOAD PUSH1 0xFF AND PUSH1 0x1 EQ JUMPDEST PUSH2 0x594 JUMPI PUSH1 0x40 MLOAD PUSH3 0x461BCD PUSH1 0xE5 SHL DUP2 MSTORE PUSH1 0x20 PUSH1 0x4 DUP3 ADD MSTORE PUSH1 0x2E PUSH1 0x24 DUP3 ADD MSTORE PUSH32 0x496E697469616C697A61626C653A20636F6E747261637420697320616C726561 PUSH1 0x44 DUP3 ADD MSTORE PUSH14 0x191E481A5B9A5D1A585B1A5E9959 PUSH1 0x92 SHL PUSH1 0x64 DUP3 ADD MSTORE PUSH1 0x84 ADD PUSH1 0x40 MLOAD DUP1 SWAP2 SUB SWAP1 REVERT JUMPDEST PUSH1 0x0 DUP1 SLOAD PUSH1 0xFF NOT AND PUSH1 0x1 OR SWAP1 SSTORE DUP1 ISZERO PUSH2 0x5B7 JUMPI PUSH1 0x0 DUP1 SLOAD PUSH2 0xFF00 NOT AND PUSH2 0x100 OR SWAP1 SSTORE JUMPDEST PUSH2 0x5C0 DUP3 PUSH2 0xE68 JUMP JUMPDEST DUP2 MLOAD PUSH1 0x5 DUP1 SLOAD PUSH1 0x1 PUSH1 0x1 PUSH1 0xA0 SHL SUB SWAP3 DUP4 AND PUSH1 0x1 PUSH1 0x1 PUSH1 0xA0 SHL SUB NOT SWAP2 DUP3 AND OR SWAP1 SWAP2 SSTORE PUSH1 0x60 DUP5 ADD MLOAD PUSH1 0x3 DUP1 SLOAD SWAP2 DUP5 AND SWAP2 DUP4 AND SWAP2 SWAP1 SWAP2 OR SWAP1 SSTORE PUSH1 0x20 DUP5 ADD MLOAD PUSH1 0x4 DUP1 SLOAD SWAP2 DUP5 AND SWAP2 DUP4 AND SWAP2 SWAP1 SWAP2 OR SWAP1 SSTORE PUSH1 0x40 DUP5 ADD MLOAD PUSH1 0x6 DUP1 SLOAD SWAP2 SWAP1 SWAP4 AND SWAP2 AND OR SWAP1 SSTORE PUSH1 0x80 DUP3 ADD MLOAD PUSH1 0x7 SSTORE PUSH1 0xA0 DUP3 ADD MLOAD PUSH1 0x8 SSTORE PUSH1 0xC0 DUP3 ADD MLOAD PUSH1 0xA SSTORE PUSH1 0xE0 DUP3 ADD MLOAD PUSH2 0x644 SWAP1 TIMESTAMP PUSH2 0x12E6 JUMP JUMPDEST PUSH1 0xC DUP1 SLOAD PUSH8 0xFFFFFFFFFFFFFFFF NOT AND PUSH1 0x1 PUSH1 0x1 PUSH1 0x40 SHL SUB SWAP3 SWAP1 SWAP3 AND SWAP2 SWAP1 SWAP2 OR SWAP1 SSTORE DUP1 ISZERO PUSH2 0x6AB JUMPI PUSH1 0x0 DUP1 SLOAD PUSH2 0xFF00 NOT AND SWAP1 SSTORE PUSH1 0x40 MLOAD PUSH1 0x1 DUP2 MSTORE PUSH32 0x7F26B83FF96E1F2B6A682F133852F6798A09C465DA95921460CEFB3847402498 SWAP1 PUSH1 0x20 ADD PUSH1 0x40 MLOAD DUP1 SWAP2 SUB SWAP1 LOG1 JUMPDEST POP POP JUMP JUMPDEST PUSH1 0xC SLOAD PUSH1 0x1 PUSH1 0x1 PUSH1 0x40 SHL SUB AND TIMESTAMP LT ISZERO PUSH2 0x6DB JUMPI PUSH1 0x40 MLOAD PUSH4 0xC2695BF PUSH1 0xE1 SHL DUP2 MSTORE PUSH1 0x4 ADD PUSH1 0x40 MLOAD DUP1 SWAP2 SUB SWAP1 REVERT JUMPDEST PUSH1 0x2 PUSH1 0xC SLOAD PUSH1 0x1 PUSH1 0x40 SHL SWAP1 DIV PUSH1 0xFF AND PUSH1 0x2 DUP2 GT ISZERO PUSH2 0x6FB JUMPI PUSH2 0x6FB PUSH2 0x1279 JUMP JUMPDEST EQ PUSH2 0x719 JUMPI PUSH1 0x40 MLOAD PUSH4 0x16DE2349 PUSH1 0xE1 SHL DUP2 MSTORE PUSH1 0x4 ADD PUSH1 0x40 MLOAD DUP1 SWAP2 SUB SWAP1 REVERT JUMPDEST PUSH1 0x3 SLOAD PUSH1 0x1 PUSH1 0x1 PUSH1 0xA0 SHL SUB AND CALLER EQ PUSH2 0x744 JUMPI PUSH1 0x40 MLOAD PUSH4 0x2CFF9427 PUSH1 0xE0 SHL DUP2 MSTORE PUSH1 0x4 ADD PUSH1 0x40 MLOAD DUP1 SWAP2 SUB SWAP1 REVERT JUMPDEST PUSH1 0x4 DUP1 SLOAD PUSH1 0x40 MLOAD PUSH4 0x70A08231 PUSH1 0xE0 SHL DUP2 MSTORE ADDRESS SWAP3 DUP2 ADD SWAP3 SWAP1 SWAP3 MSTORE PUSH1 0x0 SWAP2 PUSH1 0x1 PUSH1 0x1 PUSH1 0xA0 SHL SUB SWAP1 SWAP2 AND SWAP1 PUSH4 0x70A08231 SWAP1 PUSH1 0x24 ADD PUSH1 0x20 PUSH1 0x40 MLOAD DUP1 DUP4 SUB DUP2 DUP7 GAS STATICCALL ISZERO DUP1 ISZERO PUSH2 0x792 JUMPI RETURNDATASIZE PUSH1 0x0 DUP1 RETURNDATACOPY RETURNDATASIZE PUSH1 0x0 REVERT JUMPDEST POP POP POP POP PUSH1 0x40 MLOAD RETURNDATASIZE PUSH1 0x1F NOT PUSH1 0x1F DUP3 ADD AND DUP3 ADD DUP1 PUSH1 0x40 MSTORE POP DUP2 ADD SWAP1 PUSH2 0x7B6 SWAP2 SWAP1 PUSH2 0x12B7 JUMP JUMPDEST PUSH1 0x4 DUP1 SLOAD PUSH1 0x40 MLOAD PUSH4 0xA9059CBB PUSH1 0xE0 SHL DUP2 MSTORE CALLER SWAP3 DUP2 ADD SWAP3 SWAP1 SWAP3 MSTORE PUSH1 0x24 DUP3 ADD DUP4 SWAP1 MSTORE SWAP2 SWAP3 POP PUSH1 0x1 PUSH1 0x1 PUSH1 0xA0 SHL SUB SWAP1 SWAP2 AND SWAP1 PUSH4 0xA9059CBB SWAP1 PUSH1 0x44 ADD PUSH1 0x20 PUSH1 0x40 MLOAD DUP1 DUP4 SUB DUP2 PUSH1 0x0 DUP8 GAS CALL ISZERO DUP1 ISZERO PUSH2 0x80D JUMPI RETURNDATASIZE PUSH1 0x0 DUP1 RETURNDATACOPY RETURNDATASIZE PUSH1 0x0 REVERT JUMPDEST POP POP POP POP PUSH1 0x40 MLOAD RETURNDATASIZE PUSH1 0x1F NOT PUSH1 0x1F DUP3 ADD AND DUP3 ADD DUP1 PUSH1 0x40 MSTORE POP DUP2 ADD SWAP1 PUSH2 0x831 SWAP2 SWAP1 PUSH2 0x130D JUMP JUMPDEST POP PUSH1 0x40 MLOAD DUP2 DUP2 MSTORE CALLER SWAP1 ADDRESS SWAP1 PUSH32 0x2427926A2340A250197C73C9C1A12CA71EE0F1F53F8E08BADDA42770AFC6ECF6 SWAP1 PUSH1 0x20 ADD PUSH1 0x40 MLOAD DUP1 SWAP2 SUB SWAP1 LOG3 POP JUMP JUMPDEST PUSH1 0x1 PUSH1 0x1 PUSH1 0xA0 SHL SUB DUP2 AND PUSH1 0x0 SWAP1 DUP2 MSTORE PUSH1 0x2 PUSH1 0x20 SWAP1 DUP2 MSTORE PUSH1 0x40 SWAP2 DUP3 SWAP1 KECCAK256 DUP1 SLOAD DUP4 MLOAD DUP2 DUP5 MUL DUP2 ADD DUP5 ADD SWAP1 SWAP5 MSTORE DUP1 DUP5 MSTORE PUSH1 0x60 SWAP4 SWAP3 DUP4 ADD DUP3 DUP3 DUP1 ISZERO PUSH2 0x8CC JUMPI PUSH1 0x20 MUL DUP3 ADD SWAP2 SWAP1 PUSH1 0x0 MSTORE PUSH1 0x20 PUSH1 0x0 KECCAK256 SWAP1 JUMPDEST DUP2 SLOAD DUP2 MSTORE PUSH1 0x20 ADD SWAP1 PUSH1 0x1 ADD SWAP1 DUP1 DUP4 GT PUSH2 0x8B8 JUMPI JUMPDEST POP POP POP POP POP SWAP1 POP SWAP2 SWAP1 POP JUMP JUMPDEST PUSH1 0x5 SLOAD PUSH1 0x40 MLOAD PUSH4 0x2ABF579 PUSH1 0xE6 SHL DUP2 MSTORE PUSH14 0x2930B73237B6A83937BB34B232B9 PUSH1 0x91 SHL PUSH1 0x4 DUP3 ADD MSTORE PUSH1 0x0 SWAP2 PUSH1 0x1 PUSH1 0x1 PUSH1 0xA0 SHL SUB AND SWAP1 PUSH4 0xAAFD5E40 SWAP1 PUSH1 0x24 ADD PUSH1 0x20 PUSH1 0x40 MLOAD DUP1 DUP4 SUB DUP2 DUP7 GAS STATICCALL ISZERO DUP1 ISZERO PUSH2 0x932 JUMPI RETURNDATASIZE PUSH1 0x0 DUP1 RETURNDATACOPY RETURNDATASIZE PUSH1 0x0 REVERT JUMPDEST POP POP POP POP PUSH1 0x40 MLOAD RETURNDATASIZE PUSH1 0x1F NOT PUSH1 0x1F DUP3 ADD AND DUP3 ADD DUP1 PUSH1 0x40 MSTORE POP DUP2 ADD SWAP1 PUSH2 0x956 SWAP2 SWAP1 PUSH2 0x132F JUMP JUMPDEST SWAP1 POP SWAP1 JUMP JUMPDEST PUSH1 0xC SLOAD PUSH1 0x1 PUSH1 0x1 PUSH1 0x40 SHL SUB AND TIMESTAMP LT PUSH2 0x986 JUMPI PUSH1 0x40 MLOAD PUSH4 0x377D0B85 PUSH1 0xE1 SHL DUP2 MSTORE PUSH1 0x4 ADD PUSH1 0x40 MLOAD DUP1 SWAP2 SUB SWAP1 REVERT JUMPDEST DUP1 PUSH1 0x0 SUB PUSH2 0x9A7 JUMPI PUSH1 0x40 MLOAD PUSH4 0x98FCCB27 PUSH1 0xE0 SHL DUP2 MSTORE PUSH1 0x4 ADD PUSH1 0x40 MLOAD DUP1 SWAP2 SUB SWAP1 REVERT JUMPDEST PUSH1 0x8 SLOAD DUP2 PUSH2 0x9B4 PUSH1 0x9 SLOAD SWAP1 JUMP JUMPDEST PUSH2 0x9BE SWAP2 SWAP1 PUSH2 0x134C JUMP JUMPDEST GT ISZERO PUSH2 0x9DD JUMPI PUSH1 0x40 MLOAD PUSH4 0x84BFCB95 PUSH1 0xE0 SHL DUP2 MSTORE PUSH1 0x4 ADD PUSH1 0x40 MLOAD DUP1 SWAP2 SUB SWAP1 REVERT JUMPDEST PUSH1 0x4 DUP1 SLOAD PUSH1 0x40 MLOAD PUSH4 0x70A08231 PUSH1 0xE0 SHL DUP2 MSTORE CALLER SWAP3 DUP2 ADD SWAP3 SWAP1 SWAP3 MSTORE PUSH1 0x1 PUSH1 0x1 PUSH1 0xA0 SHL SUB AND SWAP1 PUSH4 0x70A08231 SWAP1 PUSH1 0x24 ADD PUSH1 0x20 PUSH1 0x40 MLOAD DUP1 DUP4 SUB DUP2 DUP7 GAS STATICCALL ISZERO DUP1 ISZERO PUSH2 0xA26 JUMPI RETURNDATASIZE PUSH1 0x0 DUP1 RETURNDATACOPY RETURNDATASIZE PUSH1 0x0 REVERT JUMPDEST POP POP POP POP PUSH1 0x40 MLOAD RETURNDATASIZE PUSH1 0x1F NOT PUSH1 0x1F DUP3 ADD AND DUP3 ADD DUP1 PUSH1 0x40 MSTORE POP DUP2 ADD SWAP1 PUSH2 0xA4A SWAP2 SWAP1 PUSH2 0x12B7 JUMP JUMPDEST PUSH2 0xA53 DUP3 PUSH2 0x1006 JUMP JUMPDEST GT ISZERO PUSH2 0xA72 JUMPI PUSH1 0x40 MLOAD PUSH4 0x119563E5 PUSH1 0xE3 SHL DUP2 MSTORE PUSH1 0x4 ADD PUSH1 0x40 MLOAD DUP1 SWAP2 SUB SWAP1 REVERT JUMPDEST PUSH1 0x4 SLOAD PUSH1 0x1 PUSH1 0x1 PUSH1 0xA0 SHL SUB AND PUSH4 0x23B872DD CALLER ADDRESS PUSH2 0xA8E DUP6 PUSH2 0x1006 JUMP JUMPDEST PUSH1 0x40 MLOAD PUSH1 0x1 PUSH1 0x1 PUSH1 0xE0 SHL SUB NOT PUSH1 0xE0 DUP7 SWAP1 SHL AND DUP2 MSTORE PUSH1 0x1 PUSH1 0x1 PUSH1 0xA0 SHL SUB SWAP4 DUP5 AND PUSH1 0x4 DUP3 ADD MSTORE SWAP3 SWAP1 SWAP2 AND PUSH1 0x24 DUP4 ADD MSTORE PUSH1 0x44 DUP3 ADD MSTORE PUSH1 0x64 ADD PUSH1 0x20 PUSH1 0x40 MLOAD DUP1 DUP4 SUB DUP2 PUSH1 0x0 DUP8 GAS CALL ISZERO DUP1 ISZERO PUSH2 0xAE2 JUMPI RETURNDATASIZE PUSH1 0x0 DUP1 RETURNDATACOPY RETURNDATASIZE PUSH1 0x0 REVERT JUMPDEST POP POP POP POP PUSH1 0x40 MLOAD RETURNDATASIZE PUSH1 0x1F NOT PUSH1 0x1F DUP3 ADD AND DUP3 ADD DUP1 PUSH1 0x40 MSTORE POP DUP2 ADD SWAP1 PUSH2 0xB06 SWAP2 SWAP1 PUSH2 0x130D JUMP JUMPDEST POP CALLER PUSH1 0x0 SWAP1 DUP2 MSTORE PUSH1 0x2 PUSH1 0x20 MSTORE PUSH1 0x40 DUP2 KECCAK256 PUSH1 0x9 SLOAD SWAP1 SWAP2 DUP4 PUSH1 0x1 PUSH1 0x1 PUSH1 0x40 SHL SUB DUP2 GT ISZERO PUSH2 0xB33 JUMPI PUSH2 0xB33 PUSH2 0x101D JUMP JUMPDEST PUSH1 0x40 MLOAD SWAP1 DUP1 DUP3 MSTORE DUP1 PUSH1 0x20 MUL PUSH1 0x20 ADD DUP3 ADD PUSH1 0x40 MSTORE DUP1 ISZERO PUSH2 0xB5C JUMPI DUP2 PUSH1 0x20 ADD PUSH1 0x20 DUP3 MUL DUP1 CALLDATASIZE DUP4 CALLDATACOPY ADD SWAP1 POP JUMPDEST POP SWAP1 POP PUSH1 0x0 JUMPDEST DUP5 DUP2 LT ISZERO PUSH2 0xBCF JUMPI PUSH2 0xB73 DUP4 PUSH2 0x135F JUMP JUMPDEST SWAP3 POP DUP3 DUP3 DUP3 DUP2 MLOAD DUP2 LT PUSH2 0xB88 JUMPI PUSH2 0xB88 PUSH2 0x1378 JUMP JUMPDEST PUSH1 0x20 SWAP1 DUP2 MUL SWAP2 SWAP1 SWAP2 ADD DUP2 ADD SWAP2 SWAP1 SWAP2 MSTORE DUP5 SLOAD PUSH1 0x1 DUP2 DUP2 ADD DUP8 SSTORE PUSH1 0x0 DUP8 DUP2 MSTORE DUP4 DUP2 KECCAK256 SWAP1 SWAP3 ADD DUP7 SWAP1 SSTORE DUP6 DUP3 MSTORE SWAP2 DUP3 SWAP1 MSTORE PUSH1 0x40 SWAP1 KECCAK256 DUP1 SLOAD PUSH1 0x1 PUSH1 0x1 PUSH1 0xA0 SHL SUB NOT AND CALLER OR SWAP1 SSTORE ADD PUSH2 0xB62 JUMP JUMPDEST POP PUSH1 0x9 DUP3 SWAP1 SSTORE PUSH1 0x40 MLOAD CALLER SWAP1 ADDRESS SWAP1 PUSH32 0x3298F998ADC3EC4BDCC9BB12F2A924F1D28C61596124855D7D6D4D09E231847A SWAP1 PUSH2 0xC09 SWAP1 DUP6 SWAP1 PUSH2 0x1190 JUMP JUMPDEST PUSH1 0x40 MLOAD DUP1 SWAP2 SUB SWAP1 LOG3 POP POP POP POP JUMP JUMPDEST PUSH1 0x0 PUSH2 0xC2B PUSH1 0xC SLOAD PUSH1 0x1 PUSH1 0x1 PUSH1 0x40 SHL SUB AND SWAP1 JUMP JUMPDEST PUSH1 0x1 PUSH1 0x1 PUSH1 0x40 SHL SUB AND TIMESTAMP LT ISZERO PUSH2 0xC54 JUMPI PUSH1 0x40 MLOAD PUSH4 0xC2695BF PUSH1 0xE1 SHL DUP2 MSTORE PUSH1 0x4 ADD PUSH1 0x40 MLOAD DUP1 SWAP2 SUB SWAP1 REVERT JUMPDEST PUSH1 0x2 PUSH1 0xC SLOAD PUSH1 0x1 PUSH1 0x40 SHL SWAP1 DIV PUSH1 0xFF AND PUSH1 0x2 DUP2 GT ISZERO PUSH2 0xC74 JUMPI PUSH2 0xC74 PUSH2 0x1279 JUMP JUMPDEST EQ PUSH2 0xC92 JUMPI PUSH1 0x40 MLOAD PUSH4 0x16DE2349 PUSH1 0xE1 SHL DUP2 MSTORE PUSH1 0x4 ADD PUSH1 0x40 MLOAD DUP1 SWAP2 SUB SWAP1 REVERT JUMPDEST POP PUSH1 0xB SLOAD SWAP1 JUMP JUMPDEST CALLER PUSH2 0xCA2 PUSH2 0x8D8 JUMP JUMPDEST PUSH1 0x1 PUSH1 0x1 PUSH1 0xA0 SHL SUB AND EQ PUSH2 0xCC9 JUMPI PUSH1 0x40 MLOAD PUSH4 0x170CD40B PUSH1 0xE3 SHL DUP2 MSTORE PUSH1 0x4 ADD PUSH1 0x40 MLOAD DUP1 SWAP2 SUB SWAP1 REVERT JUMPDEST PUSH1 0x1 PUSH1 0xC SLOAD PUSH1 0x1 PUSH1 0x40 SHL SWAP1 DIV PUSH1 0xFF AND PUSH1 0x2 DUP2 GT ISZERO PUSH2 0xCE9 JUMPI PUSH2 0xCE9 PUSH2 0x1279 JUMP JUMPDEST EQ PUSH2 0xD07 JUMPI PUSH1 0x40 MLOAD PUSH4 0x45A4CA3B PUSH1 0xE1 SHL DUP2 MSTORE PUSH1 0x4 ADD PUSH1 0x40 MLOAD DUP1 SWAP2 SUB SWAP1 REVERT JUMPDEST DUP1 PUSH1 0x0 DUP2 MLOAD DUP2 LT PUSH2 0xD1A JUMPI PUSH2 0xD1A PUSH2 0x1378 JUMP JUMPDEST PUSH1 0x20 MUL PUSH1 0x20 ADD ADD MLOAD PUSH1 0x0 EQ DUP1 ISZERO PUSH2 0xD30 JUMPI POP DUP1 MLOAD ISZERO JUMPDEST ISZERO PUSH2 0xD43 JUMPI PUSH1 0xC DUP1 SLOAD PUSH1 0xFF PUSH1 0x40 SHL NOT AND SWAP1 SSTORE JUMPDEST PUSH1 0x3 PUSH1 0x6 ADD SLOAD DUP2 PUSH1 0x0 DUP2 MLOAD DUP2 LT PUSH2 0xD5C JUMPI PUSH2 0xD5C PUSH2 0x1378 JUMP JUMPDEST PUSH1 0x20 MUL PUSH1 0x20 ADD ADD MLOAD PUSH2 0xD6E SWAP2 SWAP1 PUSH2 0x138E JUMP JUMPDEST PUSH2 0xD79 SWAP1 PUSH1 0x1 PUSH2 0x134C JUMP JUMPDEST PUSH1 0xB DUP2 SWAP1 SSTORE PUSH1 0xC DUP1 SLOAD PUSH1 0xFF PUSH1 0x40 SHL NOT AND PUSH9 0x20000000000000000 OR SWAP1 SSTORE PUSH1 0x40 DUP1 MLOAD SWAP2 DUP3 MSTORE MLOAD ADDRESS SWAP2 PUSH32 0xBD2EF7D8E723142E22EED26D859400CDA0AC602EDACDDC8B13F96C921011A9AC SWAP2 SWAP1 DUP2 SWAP1 SUB PUSH1 0x20 ADD SWAP1 LOG2 POP JUMP JUMPDEST PUSH1 0x0 PUSH2 0xDE2 PUSH1 0xC SLOAD PUSH1 0x1 PUSH1 0x1 PUSH1 0x40 SHL SUB AND SWAP1 JUMP JUMPDEST PUSH1 0x1 PUSH1 0x1 PUSH1 0x40 SHL SUB AND TIMESTAMP LT ISZERO PUSH2 0xE0B JUMPI PUSH1 0x40 MLOAD PUSH4 0xC2695BF PUSH1 0xE1 SHL DUP2 MSTORE PUSH1 0x4 ADD PUSH1 0x40 MLOAD DUP1 SWAP2 SUB SWAP1 REVERT JUMPDEST PUSH1 0x2 PUSH1 0xC SLOAD PUSH1 0x1 PUSH1 0x40 SHL SWAP1 DIV PUSH1 0xFF AND PUSH1 0x2 DUP2 GT ISZERO PUSH2 0xE2B JUMPI PUSH2 0xE2B PUSH2 0x1279 JUMP JUMPDEST EQ PUSH2 0xE49 JUMPI PUSH1 0x40 MLOAD PUSH4 0x16DE2349 PUSH1 0xE1 SHL DUP2 MSTORE PUSH1 0x4 ADD PUSH1 0x40 MLOAD DUP1 SWAP2 SUB SWAP1 REVERT JUMPDEST POP PUSH1 0xB SLOAD PUSH1 0x0 SWAP1 DUP2 MSTORE PUSH1 0x1 PUSH1 0x20 MSTORE PUSH1 0x40 SWAP1 KECCAK256 SLOAD PUSH1 0x1 PUSH1 0x1 PUSH1 0xA0 SHL SUB AND SWAP1 JUMP JUMPDEST DUP1 MLOAD PUSH1 0x1 PUSH1 0x1 PUSH1 0xA0 SHL SUB AND PUSH2 0xE90 JUMPI PUSH1 0x40 MLOAD PUSH4 0x9F34E019 PUSH1 0xE0 SHL DUP2 MSTORE PUSH1 0x4 ADD PUSH1 0x40 MLOAD DUP1 SWAP2 SUB SWAP1 REVERT JUMPDEST PUSH1 0x20 DUP2 ADD MLOAD PUSH1 0x1 PUSH1 0x1 PUSH1 0xA0 SHL SUB AND PUSH2 0xEBB JUMPI PUSH1 0x40 MLOAD PUSH4 0x9F34E019 PUSH1 0xE0 SHL DUP2 MSTORE PUSH1 0x4 ADD PUSH1 0x40 MLOAD DUP1 SWAP2 SUB SWAP1 REVERT JUMPDEST ADDRESS PUSH1 0x1 PUSH1 0x1 PUSH1 0xA0 SHL SUB AND DUP2 PUSH1 0x40 ADD MLOAD PUSH1 0x1 PUSH1 0x1 PUSH1 0xA0 SHL SUB AND PUSH4 0x6352211E DUP4 PUSH1 0x80 ADD MLOAD PUSH1 0x40 MLOAD DUP3 PUSH4 0xFFFFFFFF AND PUSH1 0xE0 SHL DUP2 MSTORE PUSH1 0x4 ADD PUSH2 0xEFB SWAP2 DUP2 MSTORE PUSH1 0x20 ADD SWAP1 JUMP JUMPDEST PUSH1 0x20 PUSH1 0x40 MLOAD DUP1 DUP4 SUB DUP2 DUP7 GAS STATICCALL ISZERO DUP1 ISZERO PUSH2 0xF18 JUMPI RETURNDATASIZE PUSH1 0x0 DUP1 RETURNDATACOPY RETURNDATASIZE PUSH1 0x0 REVERT JUMPDEST POP POP POP POP PUSH1 0x40 MLOAD RETURNDATASIZE PUSH1 0x1F NOT PUSH1 0x1F DUP3 ADD AND DUP3 ADD DUP1 PUSH1 0x40 MSTORE POP DUP2 ADD SWAP1 PUSH2 0xF3C SWAP2 SWAP1 PUSH2 0x132F JUMP JUMPDEST PUSH1 0x1 PUSH1 0x1 PUSH1 0xA0 SHL SUB AND EQ PUSH2 0xF63 JUMPI PUSH1 0x40 MLOAD PUSH4 0x7BED417B PUSH1 0xE0 SHL DUP2 MSTORE PUSH1 0x4 ADD PUSH1 0x40 MLOAD DUP1 SWAP2 SUB SWAP1 REVERT JUMPDEST PUSH1 0x60 DUP2 ADD MLOAD PUSH1 0x1 PUSH1 0x1 PUSH1 0xA0 SHL SUB AND PUSH2 0xF8E JUMPI PUSH1 0x40 MLOAD PUSH4 0x9F34E019 PUSH1 0xE0 SHL DUP2 MSTORE PUSH1 0x4 ADD PUSH1 0x40 MLOAD DUP1 SWAP2 SUB SWAP1 REVERT JUMPDEST DUP1 PUSH1 0xC0 ADD MLOAD PUSH1 0x0 SUB PUSH2 0xFB3 JUMPI PUSH1 0x40 MLOAD PUSH4 0x98FCCB27 PUSH1 0xE0 SHL DUP2 MSTORE PUSH1 0x4 ADD PUSH1 0x40 MLOAD DUP1 SWAP2 SUB SWAP1 REVERT JUMPDEST DUP1 PUSH1 0xA0 ADD MLOAD PUSH1 0x0 SUB PUSH2 0xFD8 JUMPI PUSH1 0x40 MLOAD PUSH4 0x98FCCB27 PUSH1 0xE0 SHL DUP2 MSTORE PUSH1 0x4 ADD PUSH1 0x40 MLOAD DUP1 SWAP2 SUB SWAP1 REVERT JUMPDEST DUP1 PUSH1 0xE0 ADD MLOAD PUSH1 0x1 PUSH1 0x1 PUSH1 0x40 SHL SUB AND PUSH1 0x0 SUB PUSH2 0x4F0 JUMPI PUSH1 0x40 MLOAD PUSH4 0x98FCCB27 PUSH1 0xE0 SHL DUP2 MSTORE PUSH1 0x4 ADD PUSH1 0x40 MLOAD DUP1 SWAP2 SUB SWAP1 REVERT JUMPDEST PUSH1 0xA SLOAD PUSH1 0x0 SWAP1 PUSH2 0x1017 SWAP1 DUP4 SWAP1 PUSH2 0x13B0 JUMP JUMPDEST SWAP3 SWAP2 POP POP JUMP JUMPDEST PUSH4 0x4E487B71 PUSH1 0xE0 SHL PUSH1 0x0 MSTORE PUSH1 0x41 PUSH1 0x4 MSTORE PUSH1 0x24 PUSH1 0x0 REVERT JUMPDEST PUSH1 0x40 MLOAD PUSH1 0x1F DUP3 ADD PUSH1 0x1F NOT AND DUP2 ADD PUSH1 0x1 PUSH1 0x1 PUSH1 0x40 SHL SUB DUP2 GT DUP3 DUP3 LT OR ISZERO PUSH2 0x105B JUMPI PUSH2 0x105B PUSH2 0x101D JUMP JUMPDEST PUSH1 0x40 MSTORE SWAP2 SWAP1 POP JUMP JUMPDEST PUSH1 0x1 PUSH1 0x1 PUSH1 0xA0 SHL SUB DUP2 AND DUP2 EQ PUSH2 0x4F0 JUMPI PUSH1 0x0 DUP1 REVERT JUMPDEST DUP1 CALLDATALOAD PUSH2 0x1083 DUP2 PUSH2 0x1063 JUMP JUMPDEST SWAP2 SWAP1 POP JUMP JUMPDEST DUP1 CALLDATALOAD PUSH1 0x1 PUSH1 0x1 PUSH1 0x40 SHL SUB DUP2 AND DUP2 EQ PUSH2 0x1083 JUMPI PUSH1 0x0 DUP1 REVERT JUMPDEST PUSH1 0x0 PUSH2 0x100 DUP1 DUP4 DUP6 SUB SLT ISZERO PUSH2 0x10B3 JUMPI PUSH1 0x0 DUP1 REVERT JUMPDEST PUSH1 0x40 MLOAD SWAP1 DUP2 ADD SWAP1 PUSH1 0x1 PUSH1 0x1 PUSH1 0x40 SHL SUB DUP3 GT DUP2 DUP4 LT OR ISZERO PUSH2 0x10D5 JUMPI PUSH2 0x10D5 PUSH2 0x101D JUMP JUMPDEST DUP2 PUSH1 0x40 MSTORE DUP4 CALLDATALOAD SWAP2 POP PUSH2 0x10E6 DUP3 PUSH2 0x1063 JUMP JUMPDEST DUP2 DUP2 MSTORE PUSH2 0x10F5 PUSH1 0x20 DUP6 ADD PUSH2 0x1078 JUMP JUMPDEST PUSH1 0x20 DUP3 ADD MSTORE PUSH2 0x1106 PUSH1 0x40 DUP6 ADD PUSH2 0x1078 JUMP JUMPDEST PUSH1 0x40 DUP3 ADD MSTORE PUSH2 0x1117 PUSH1 0x60 DUP6 ADD PUSH2 0x1078 JUMP JUMPDEST PUSH1 0x60 DUP3 ADD MSTORE PUSH1 0x80 DUP5 ADD CALLDATALOAD PUSH1 0x80 DUP3 ADD MSTORE PUSH1 0xA0 DUP5 ADD CALLDATALOAD PUSH1 0xA0 DUP3 ADD MSTORE PUSH1 0xC0 DUP5 ADD CALLDATALOAD PUSH1 0xC0 DUP3 ADD MSTORE PUSH2 0x1146 PUSH1 0xE0 DUP6 ADD PUSH2 0x1088 JUMP JUMPDEST PUSH1 0xE0 DUP3 ADD MSTORE SWAP5 SWAP4 POP POP POP POP JUMP JUMPDEST PUSH1 0x0 PUSH1 0x20 DUP3 DUP5 SUB SLT ISZERO PUSH2 0x1165 JUMPI PUSH1 0x0 DUP1 REVERT JUMPDEST POP CALLDATALOAD SWAP2 SWAP1 POP JUMP JUMPDEST PUSH1 0x0 PUSH1 0x20 DUP3 DUP5 SUB SLT ISZERO PUSH2 0x117E JUMPI PUSH1 0x0 DUP1 REVERT JUMPDEST DUP2 CALLDATALOAD PUSH2 0x1189 DUP2 PUSH2 0x1063 JUMP JUMPDEST SWAP4 SWAP3 POP POP POP JUMP JUMPDEST PUSH1 0x20 DUP1 DUP3 MSTORE DUP3 MLOAD DUP3 DUP3 ADD DUP2 SWAP1 MSTORE PUSH1 0x0 SWAP2 SWAP1 DUP5 DUP3 ADD SWAP1 PUSH1 0x40 DUP6 ADD SWAP1 DUP5 JUMPDEST DUP2 DUP2 LT ISZERO PUSH2 0x11C8 JUMPI DUP4 MLOAD DUP4 MSTORE SWAP3 DUP5 ADD SWAP3 SWAP2 DUP5 ADD SWAP2 PUSH1 0x1 ADD PUSH2 0x11AC JUMP JUMPDEST POP SWAP1 SWAP7 SWAP6 POP POP POP POP POP POP JUMP JUMPDEST PUSH1 0x0 PUSH1 0x20 DUP1 DUP4 DUP6 SUB SLT ISZERO PUSH2 0x11E7 JUMPI PUSH1 0x0 DUP1 REVERT JUMPDEST DUP3 CALLDATALOAD PUSH1 0x1 PUSH1 0x1 PUSH1 0x40 SHL SUB DUP1 DUP3 GT ISZERO PUSH2 0x11FE JUMPI PUSH1 0x0 DUP1 REVERT JUMPDEST DUP2 DUP6 ADD SWAP2 POP DUP6 PUSH1 0x1F DUP4 ADD SLT PUSH2 0x1212 JUMPI PUSH1 0x0 DUP1 REVERT JUMPDEST DUP2 CALLDATALOAD DUP2 DUP2 GT ISZERO PUSH2 0x1224 JUMPI PUSH2 0x1224 PUSH2 0x101D JUMP JUMPDEST DUP1 PUSH1 0x5 SHL SWAP2 POP PUSH2 0x1235 DUP5 DUP4 ADD PUSH2 0x1033 JUMP JUMPDEST DUP2 DUP2 MSTORE SWAP2 DUP4 ADD DUP5 ADD SWAP2 DUP5 DUP2 ADD SWAP1 DUP9 DUP5 GT ISZERO PUSH2 0x124F JUMPI PUSH1 0x0 DUP1 REVERT JUMPDEST SWAP4 DUP6 ADD SWAP4 JUMPDEST DUP4 DUP6 LT ISZERO PUSH2 0x126D JUMPI DUP5 CALLDATALOAD DUP3 MSTORE SWAP4 DUP6 ADD SWAP4 SWAP1 DUP6 ADD SWAP1 PUSH2 0x1254 JUMP JUMPDEST SWAP9 SWAP8 POP POP POP POP POP POP POP POP JUMP JUMPDEST PUSH4 0x4E487B71 PUSH1 0xE0 SHL PUSH1 0x0 MSTORE PUSH1 0x21 PUSH1 0x4 MSTORE PUSH1 0x24 PUSH1 0x0 REVERT JUMPDEST PUSH1 0x20 DUP2 ADD PUSH1 0x3 DUP4 LT PUSH2 0x12B1 JUMPI PUSH4 0x4E487B71 PUSH1 0xE0 SHL PUSH1 0x0 MSTORE PUSH1 0x21 PUSH1 0x4 MSTORE PUSH1 0x24 PUSH1 0x0 REVERT JUMPDEST SWAP2 SWAP1 MSTORE SWAP1 JUMP JUMPDEST PUSH1 0x0 PUSH1 0x20 DUP3 DUP5 SUB SLT ISZERO PUSH2 0x12C9 JUMPI PUSH1 0x0 DUP1 REVERT JUMPDEST POP MLOAD SWAP2 SWAP1 POP JUMP JUMPDEST PUSH4 0x4E487B71 PUSH1 0xE0 SHL PUSH1 0x0 MSTORE PUSH1 0x11 PUSH1 0x4 MSTORE PUSH1 0x24 PUSH1 0x0 REVERT JUMPDEST PUSH1 0x1 PUSH1 0x1 PUSH1 0x40 SHL SUB DUP2 DUP2 AND DUP4 DUP3 AND ADD SWAP1 DUP1 DUP3 GT ISZERO PUSH2 0x1306 JUMPI PUSH2 0x1306 PUSH2 0x12D0 JUMP JUMPDEST POP SWAP3 SWAP2 POP POP JUMP JUMPDEST PUSH1 0x0 PUSH1 0x20 DUP3 DUP5 SUB SLT ISZERO PUSH2 0x131F JUMPI PUSH1 0x0 DUP1 REVERT JUMPDEST DUP2 MLOAD DUP1 ISZERO ISZERO DUP2 EQ PUSH2 0x1189 JUMPI PUSH1 0x0 DUP1 REVERT JUMPDEST PUSH1 0x0 PUSH1 0x20 DUP3 DUP5 SUB SLT ISZERO PUSH2 0x1341 JUMPI PUSH1 0x0 DUP1 REVERT JUMPDEST DUP2 MLOAD PUSH2 0x1189 DUP2 PUSH2 0x1063 JUMP JUMPDEST DUP1 DUP3 ADD DUP1 DUP3 GT ISZERO PUSH2 0x1017 JUMPI PUSH2 0x1017 PUSH2 0x12D0 JUMP JUMPDEST PUSH1 0x0 PUSH1 0x1 DUP3 ADD PUSH2 0x1371 JUMPI PUSH2 0x1371 PUSH2 0x12D0 JUMP JUMPDEST POP PUSH1 0x1 ADD SWAP1 JUMP JUMPDEST PUSH4 0x4E487B71 PUSH1 0xE0 SHL PUSH1 0x0 MSTORE PUSH1 0x32 PUSH1 0x4 MSTORE PUSH1 0x24 PUSH1 0x0 REVERT JUMPDEST PUSH1 0x0 DUP3 PUSH2 0x13AB JUMPI PUSH4 0x4E487B71 PUSH1 0xE0 SHL PUSH1 0x0 MSTORE PUSH1 0x12 PUSH1 0x4 MSTORE PUSH1 0x24 PUSH1 0x0 REVERT JUMPDEST POP MOD SWAP1 JUMP JUMPDEST DUP1 DUP3 MUL DUP2 ISZERO DUP3 DUP3 DIV DUP5 EQ OR PUSH2 0x1017 JUMPI PUSH2 0x1017 PUSH2 0x12D0 JUMP INVALID LOG2 PUSH5 0x6970667358 0x22 SLT KECCAK256 SWAP11 DUP5 0x1E 0xE6 DUP3 CHAINID SLOAD 0xE8 0xDF EXTCODECOPY CREATE PUSH30 0x9507D6A2FDC386BC4E4496850BA1B3264E0440D564736F6C634300081100 CALLER "},"gasEstimates":{"creation":{"codeDepositCost":"1023400","executionCost":"1061","totalCost":"1024461"},"external":{"balanceOf(address)":"infinite","claimPrice()":"infinite","claimTicketSalesAmount()":"infinite","creator()":"2333","drawnTickets()":"infinite","drawnTickets(uint256[])":"infinite","endTicketSales()":"2367","initialize((address,address,address,address,uint256,uint256,uint256,uint64))":"infinite","maxSupply()":"2380","nftToWin()":"4490","ownerOf(uint256)":"2555","purchaseCurrency()":"2343","purchaseTickets(uint256)":"infinite","raffleStatus()":"2394","randomProvider()":"infinite","ticketPrice()":"2327","totalSupply()":"2382","winnerAddress()":"8967","winningTicket()":"6771"},"internal":{"_calculateTotalTicketsPrice(uint256)":"infinite","_checkData(struct RaffleDataTypes.InitRaffleParams memory)":"infinite"}},"methodIdentifiers":{"balanceOf(address)":"70a08231","claimPrice()":"15d655c9","claimTicketSalesAmount()":"636ed74c","creator()":"02d05d3f","drawnTickets()":"413c5f72","drawnTickets(uint256[])":"cb784b4d","endTicketSales()":"cf6622ab","initialize((address,address,address,address,uint256,uint256,uint256,uint64))":"4d1d3031","maxSupply()":"d5abeb01","nftToWin()":"3b398ff8","ownerOf(uint256)":"6352211e","purchaseCurrency()":"6a4a5b2d","purchaseTickets(uint256)":"a1277600","raffleStatus()":"ccfa213e","randomProvider()":"8f46500e","ticketPrice()":"1209b1f6","totalSupply()":"18160ddd","winnerAddress()":"ed7a4e0b","winningTicket()":"c26eea54"}},"storageLayout":{"storage":[{"astId":629,"contract":"src/raffle/Raffle.sol:Raffle","label":"_initialized","offset":0,"slot":"0","type":"t_uint8"},{"astId":632,"contract":"src/raffle/Raffle.sol:Raffle","label":"_initializing","offset":1,"slot":"0","type":"t_bool"},{"astId":5133,"contract":"src/raffle/Raffle.sol:Raffle","label":"_ticketOwner","offset":0,"slot":"1","type":"t_mapping(t_uint256,t_address)"},{"astId":5138,"contract":"src/raffle/Raffle.sol:Raffle","label":"_ownerTickets","offset":0,"slot":"2","type":"t_mapping(t_address,t_array(t_uint256)dyn_storage)"},{"astId":5141,"contract":"src/raffle/Raffle.sol:Raffle","label":"_globalData","offset":0,"slot":"3","type":"t_struct(RaffleData)6005_storage"}],"types":{"t_address":{"encoding":"inplace","label":"address","numberOfBytes":"20"},"t_array(t_uint256)dyn_storage":{"base":"t_uint256","encoding":"dynamic_array","label":"uint256[]","numberOfBytes":"32"},"t_bool":{"encoding":"inplace","label":"bool","numberOfBytes":"1"},"t_contract(IERC20)1456":{"encoding":"inplace","label":"contract IERC20","numberOfBytes":"20"},"t_contract(IERC721)2542":{"encoding":"inplace","label":"contract IERC721","numberOfBytes":"20"},"t_contract(IImplementationManager)4523":{"encoding":"inplace","label":"contract IImplementationManager","numberOfBytes":"20"},"t_enum(RaffleStatus)5978":{"encoding":"inplace","label":"enum RaffleDataTypes.RaffleStatus","numberOfBytes":"1"},"t_mapping(t_address,t_array(t_uint256)dyn_storage)":{"encoding":"mapping","key":"t_address","label":"mapping(address => uint256[])","numberOfBytes":"32","value":"t_array(t_uint256)dyn_storage"},"t_mapping(t_uint256,t_address)":{"encoding":"mapping","key":"t_uint256","label":"mapping(uint256 => address)","numberOfBytes":"32","value":"t_address"},"t_struct(RaffleData)6005_storage":{"encoding":"inplace","label":"struct RaffleDataTypes.RaffleData","members":[{"astId":5980,"contract":"src/raffle/Raffle.sol:Raffle","label":"creator","offset":0,"slot":"0","type":"t_address"},{"astId":5983,"contract":"src/raffle/Raffle.sol:Raffle","label":"purchaseCurrency","offset":0,"slot":"1","type":"t_contract(IERC20)1456"},{"astId":5986,"contract":"src/raffle/Raffle.sol:Raffle","label":"implementationManager","offset":0,"slot":"2","type":"t_contract(IImplementationManager)4523"},{"astId":5989,"contract":"src/raffle/Raffle.sol:Raffle","label":"nftContract","offset":0,"slot":"3","type":"t_contract(IERC721)2542"},{"astId":5991,"contract":"src/raffle/Raffle.sol:Raffle","label":"nftId","offset":0,"slot":"4","type":"t_uint256"},{"astId":5993,"contract":"src/raffle/Raffle.sol:Raffle","label":"maxTicketSupply","offset":0,"slot":"5","type":"t_uint256"},{"astId":5995,"contract":"src/raffle/Raffle.sol:Raffle","label":"ticketSupply","offset":0,"slot":"6","type":"t_uint256"},{"astId":5997,"contract":"src/raffle/Raffle.sol:Raffle","label":"ticketPrice","offset":0,"slot":"7","type":"t_uint256"},{"astId":5999,"contract":"src/raffle/Raffle.sol:Raffle","label":"winningTicketNumber","offset":0,"slot":"8","type":"t_uint256"},{"astId":6001,"contract":"src/raffle/Raffle.sol:Raffle","label":"endTicketSales","offset":0,"slot":"9","type":"t_uint64"},{"astId":6004,"contract":"src/raffle/Raffle.sol:Raffle","label":"status","offset":8,"slot":"9","type":"t_enum(RaffleStatus)5978"}],"numberOfBytes":"320"},"t_uint256":{"encoding":"inplace","label":"uint256","numberOfBytes":"32"},"t_uint64":{"encoding":"inplace","label":"uint64","numberOfBytes":"8"},"t_uint8":{"encoding":"inplace","label":"uint8","numberOfBytes":"1"}}},"userdoc":{"kind":"user","methods":{"balanceOf(address)":{"notice":"get all tickets number bought by a user"},"claimPrice()":{"notice":"Allows the winner to claim his price"},"claimTicketSalesAmount()":{"notice":"Allows the creator to claim the amount related to the ticket sales"},"creator()":{"notice":"get the address of the wallet that initiated the raffle"},"drawnTickets()":{"notice":"Request a random numbers"},"drawnTickets(uint256[])":{"notice":"Select the winning tickets number received from the RandomProvider contract"},"endTicketSales()":{"notice":"get the end time where ticket sales closing"},"initialize((address,address,address,address,uint256,uint256,uint256,uint64))":{"notice":"Function to initialize contract"},"maxSupply()":{"notice":"get the max amount of tickets that can be sold"},"nftToWin()":{"notice":"get the information regarding the nft to win"},"ownerOf(uint256)":{"notice":"get the wallet that bought a specific ticket number"},"purchaseCurrency()":{"notice":"get the address of the token used to buy tickets"},"purchaseTickets(uint256)":{"notice":"Allows users to purchase tickets"},"raffleStatus()":{"notice":"get info regarding the workflow status of the raffle"},"randomProvider()":{"notice":"get the randomProvider contract address from the implementationManager"},"ticketPrice()":{"notice":"get the price of one ticket"},"totalSupply()":{"notice":"get the total amount of tickets sold"},"winnerAddress()":{"notice":"get the winner address"},"winningTicket()":{"notice":"get the winning ticket number"}},"version":1}}}}