{"src/libraries/helpers/ImplementationInterfaceNames.sol":{"ImplementationInterfaceNames":{"abi":[{"inputs":[],"name":"AccessController","outputs":[{"internalType":"bytes32","name":"","type":"bytes32"}],"stateMutability":"view","type":"function"},{"inputs":[],"name":"RaffleFactory","outputs":[{"internalType":"bytes32","name":"","type":"bytes32"}],"stateMutability":"view","type":"function"},{"inputs":[],"name":"RandomProvider","outputs":[{"internalType":"bytes32","name":"","type":"bytes32"}],"stateMutability":"view","type":"function"}],"devdoc":{"kind":"dev","methods":{},"version":1},"evm":{"bytecode":{"linkReferences":{},"object":"60da610039600b82828239805160001a60731461002c57634e487b7160e01b600052600060045260246000fd5b30600052607381538281f3fe730000000000000000000000000000000000000000301460806040526004361060475760003560e01c8063276b0a2914604c57806337c1de4c146074578063d4fc882314608b575b600080fd5b60626c526166666c65466163746f727960981b81565b60405190815260200160405180910390f35b60626d2930b73237b6a83937bb34b232b960911b81565b60626f20b1b1b2b9b9a1b7b73a3937b63632b960811b8156fea26469706673582212201f19e54672d9f6fbc5c7c8598773a197107a0ba8427bfb5f41f2f02d736efe5164736f6c63430008110033","opcodes":"PUSH1 0xDA PUSH2 0x39 PUSH1 0xB DUP3 DUP3 DUP3 CODECOPY DUP1 MLOAD PUSH1 0x0 BYTE PUSH1 0x73 EQ PUSH2 0x2C JUMPI PUSH4 0x4E487B71 PUSH1 0xE0 SHL PUSH1 0x0 MSTORE PUSH1 0x0 PUSH1 0x4 MSTORE PUSH1 0x24 PUSH1 0x0 REVERT JUMPDEST ADDRESS PUSH1 0x0 MSTORE PUSH1 0x73 DUP2 MSTORE8 DUP3 DUP2 RETURN INVALID PUSH20 0x0 ADDRESS EQ PUSH1 0x80 PUSH1 0x40 MSTORE PUSH1 0x4 CALLDATASIZE LT PUSH1 0x47 JUMPI PUSH1 0x0 CALLDATALOAD PUSH1 0xE0 SHR DUP1 PUSH4 0x276B0A29 EQ PUSH1 0x4C JUMPI DUP1 PUSH4 0x37C1DE4C EQ PUSH1 0x74 JUMPI DUP1 PUSH4 0xD4FC8823 EQ PUSH1 0x8B JUMPI JUMPDEST PUSH1 0x0 DUP1 REVERT JUMPDEST PUSH1 0x62 PUSH13 0x526166666C65466163746F7279 PUSH1 0x98 SHL DUP2 JUMP JUMPDEST PUSH1 0x40 MLOAD SWAP1 DUP2 MSTORE PUSH1 0x20 ADD PUSH1 0x40 MLOAD DUP1 SWAP2 SUB SWAP1 RETURN JUMPDEST PUSH1 0x62 PUSH14 0x2930B73237B6A83937BB34B232B9 PUSH1 0x91 SHL DUP2 JUMP JUMPDEST PUSH1 0x62 PUSH16 0x20B1B1B2B9B9A1B7B73A3937B63632B9 PUSH1 0x81 SHL DUP2 JUMP INVALID LOG2 PUSH5 0x6970667358 0x22 SLT KECCAK256 0x1F NOT 0xE5 CHAINID PUSH19 0xD9F6FBC5C7C8598773A197107A0BA8427BFB5F COINBASE CALLCODE CREATE 0x2D PUSH20 0x6EFE5164736F6C63430008110033000000000000 "},"gasEstimates":{"creation":{"codeDepositCost":"43600","executionCost":"127","totalCost":"43727"},"external":{"AccessController()":"195","RaffleFactory()":"151","RandomProvider()":"173"}},"methodIdentifiers":{"AccessController()":"d4fc8823","RaffleFactory()":"276b0a29","RandomProvider()":"37c1de4c"}},"storageLayout":{"storage":[],"types":null},"userdoc":{"kind":"user","methods":{},"version":1}}}}