{"src/raffle/Raffle.sol":{"Raffle":{"abi":[{"inputs":[],"name":"CANT_BE_ZERO","type":"error"},{"inputs":[],"name":"MAX_TICKET_SUPPLY_EXCEEDED","type":"error"},{"inputs":[],"name":"MSG_SENDER_NOT_WINNER","type":"error"},{"inputs":[],"name":"NOT_CREATOR","type":"error"},{"inputs":[],"name":"NOT_ENOUGH_BALANCE","type":"error"},{"inputs":[],"name":"RAFFLE_CLOSE","type":"error"},{"inputs":[],"name":"RAFFLE_STILL_OPEN","type":"error"},{"inputs":[],"name":"TICKET_ALREADY_DRAWN","type":"error"},{"inputs":[],"name":"TICKET_NOT_DRAWN","type":"error"},{"anonymous":false,"inputs":[{"indexed":true,"internalType":"address","name":"raffleContract","type":"address"},{"indexed":true,"internalType":"address","name":"winner","type":"address"},{"indexed":false,"internalType":"uint256","name":"amountReceived","type":"uint256"}],"name":"CreatorClaimTicketSalesAmount","type":"event"},{"anonymous":false,"inputs":[{"indexed":false,"internalType":"uint8","name":"version","type":"uint8"}],"name":"Initialized","type":"event"},{"anonymous":false,"inputs":[{"indexed":true,"internalType":"address","name":"raffleContract","type":"address"},{"components":[{"internalType":"address","name":"creator","type":"address"},{"internalType":"contract IERC20","name":"purchaseCurrency","type":"address"},{"internalType":"contract IERC721","name":"nftContract","type":"address"},{"internalType":"uint256","name":"nftId","type":"uint256"},{"internalType":"uint256","name":"maxTicketSupply","type":"uint256"},{"internalType":"uint256","name":"ticketSupply","type":"uint256"},{"internalType":"uint256","name":"ticketPrice","type":"uint256"},{"internalType":"uint256","name":"winningTicketNumber","type":"uint256"},{"internalType":"uint64","name":"endTime","type":"uint64"},{"internalType":"bool","name":"isTicketDrawn","type":"bool"}],"indexed":false,"internalType":"struct RaffleDataTypes.RaffleData","name":"globalData","type":"tuple"}],"name":"NewRaffle","type":"event"},{"anonymous":false,"inputs":[{"indexed":true,"internalType":"address","name":"raffleContract","type":"address"},{"indexed":true,"internalType":"address","name":"buyer","type":"address"},{"indexed":false,"internalType":"uint256[]","name":"ticketNumbers","type":"uint256[]"}],"name":"TicketPurchased","type":"event"},{"anonymous":false,"inputs":[{"indexed":true,"internalType":"address","name":"raffleContract","type":"address"},{"indexed":true,"internalType":"address","name":"winner","type":"address"},{"indexed":true,"internalType":"address","name":"nftContract","type":"address"},{"indexed":false,"internalType":"uint256","name":"nftId","type":"uint256"}],"name":"WinnerClaimedPrice","type":"event"},{"anonymous":false,"inputs":[{"indexed":true,"internalType":"address","name":"raffleContract","type":"address"},{"indexed":false,"internalType":"uint256","name":"winningTicket","type":"uint256"}],"name":"WinningTicketDrawned","type":"event"},{"inputs":[{"internalType":"address","name":"user","type":"address"}],"name":"balanceOf","outputs":[{"internalType":"uint256[]","name":"","type":"uint256[]"}],"stateMutability":"view","type":"function"},{"inputs":[],"name":"claimPrice","outputs":[],"stateMutability":"nonpayable","type":"function"},{"inputs":[],"name":"claimTicketSalesAmount","outputs":[],"stateMutability":"nonpayable","type":"function"},{"inputs":[],"name":"creator","outputs":[{"internalType":"address","name":"","type":"address"}],"stateMutability":"view","type":"function"},{"inputs":[],"name":"drawnTicket","outputs":[],"stateMutability":"nonpayable","type":"function"},{"inputs":[],"name":"endTime","outputs":[{"internalType":"uint64","name":"","type":"uint64"}],"stateMutability":"view","type":"function"},{"inputs":[{"components":[{"internalType":"address","name":"creator","type":"address"},{"internalType":"contract IERC20","name":"purchaseCurrency","type":"address"},{"internalType":"contract IERC721","name":"nftContract","type":"address"},{"internalType":"uint256","name":"nftId","type":"uint256"},{"internalType":"uint256","name":"maxTicketSupply","type":"uint256"},{"internalType":"uint256","name":"ticketPrice","type":"uint256"},{"internalType":"uint64","name":"endTime","type":"uint64"}],"internalType":"struct RaffleDataTypes.InitRaffleParams","name":"_data","type":"tuple"}],"name":"initialize","outputs":[],"stateMutability":"nonpayable","type":"function"},{"inputs":[],"name":"isTicketDrawn","outputs":[{"internalType":"bool","name":"","type":"bool"}],"stateMutability":"view","type":"function"},{"inputs":[],"name":"maxSupply","outputs":[{"internalType":"uint256","name":"","type":"uint256"}],"stateMutability":"view","type":"function"},{"inputs":[],"name":"nftToWin","outputs":[{"internalType":"contract IERC721","name":"nftContractAddress","type":"address"},{"internalType":"uint256","name":"nftId","type":"uint256"}],"stateMutability":"view","type":"function"},{"inputs":[{"internalType":"uint256","name":"id","type":"uint256"}],"name":"ownerOf","outputs":[{"internalType":"address","name":"","type":"address"}],"stateMutability":"view","type":"function"},{"inputs":[],"name":"purchaseCurrency","outputs":[{"internalType":"contract IERC20","name":"","type":"address"}],"stateMutability":"view","type":"function"},{"inputs":[{"internalType":"uint256","name":"nbOfTickets","type":"uint256"}],"name":"purchaseTickets","outputs":[],"stateMutability":"nonpayable","type":"function"},{"inputs":[],"name":"ticketPrice","outputs":[{"internalType":"uint256","name":"","type":"uint256"}],"stateMutability":"view","type":"function"},{"inputs":[],"name":"totalSupply","outputs":[{"internalType":"uint256","name":"","type":"uint256"}],"stateMutability":"view","type":"function"},{"inputs":[],"name":"winnerAddress","outputs":[{"internalType":"address","name":"","type":"address"}],"stateMutability":"view","type":"function"},{"inputs":[],"name":"winningTicket","outputs":[{"internalType":"uint256","name":"","type":"uint256"}],"stateMutability":"view","type":"function"}],"devdoc":{"kind":"dev","methods":{"balanceOf(address)":{"returns":{"_0":"True if ticket has been drawn, False otherwise"}},"claimPrice()":{"details":"Ticket number must be draw and raffle close to new participants"},"claimTicketSalesAmount()":{"details":"The functions should send to the creator his part after fees"},"creator()":{"returns":{"_0":"The address of the creator"}},"endTime()":{"returns":{"_0":"The time in timestamps"}},"isTicketDrawn()":{"returns":{"_0":"True if ticket has been drawn, False otherwise"}},"maxSupply()":{"returns":{"_0":"The total amount of tickets sold"}},"nftToWin()":{"returns":{"nftContractAddress":"The address of the nft","nftId":"The id of the nft"}},"ownerOf(uint256)":{"returns":{"_0":"The address that bought the own the ticket"}},"purchaseCurrency()":{"returns":{"_0":"The address of the ERC20"}},"purchaseTickets(uint256)":{"details":"Only accessible if raffle still open to particpants","params":{"nbOfTickets":"number of tickets purchased"}},"ticketPrice()":{"returns":{"_0":"The amount of token that one ticket cost"}},"totalSupply()":{"returns":{"_0":"The total amount of tickets sold"}},"winnerAddress()":{"details":"revert if ticket sales not close and if ticket number hasn't be drawn","returns":{"_0":"The address of the wallet that won the raffle"}},"winningTicket()":{"details":"revert if ticket sales not close and if ticket number hasn't be drawn","returns":{"_0":"The ticket number that win the raffle"}}},"version":1},"evm":{"bytecode":{"linkReferences":{},"object":"608060405234801561001057600080fd5b50610fb7806100206000396000f3fe608060405234801561001057600080fd5b506004361061010b5760003560e01c80636352211e116100a2578063a127760011610071578063a127760014610241578063c26eea5414610254578063ccf1125c1461025c578063d5abeb0114610264578063ed7a4e0b1461026c57600080fd5b80636352211e146101df578063636ed74c146102085780636a4a5b2d1461021057806370a082311461022157600080fd5b8063237be938116100de578063237be9381461015e5780633197cbb61461017157806332095a661461018c5780633b398ff8146101a957600080fd5b806302d05d3f146101105780631209b1f61461013a57806315d655c91461014c57806318160ddd14610156575b600080fd5b6002546001600160a01b03165b6040516001600160a01b0390911681526020015b60405180910390f35b6008545b604051908152602001610131565b610154610274565b005b60075461013e565b61015461016c366004610cda565b6103ba565b600a546040516001600160401b039091168152602001610131565b600a54600160401b900460ff166040519015158152602001610131565b6101c06004546005546001600160a01b0390911691565b604080516001600160a01b039093168352602083019190915201610131565b61011d6101ed366004610d82565b6000908152602081905260409020546001600160a01b031690565b610154610607565b6003546001600160a01b031661011d565b61023461022f366004610d9b565b6107a6565b6040516101319190610dbf565b61015461024f366004610d82565b610812565b61013e610ac6565b610154610b26565b60065461013e565b61011d610bf6565b600a546001600160401b03164210156102a057604051630c2695bf60e11b815260040160405180910390fd5b600a54600160401b900460ff166102ca576040516316de234960e11b815260040160405180910390fd5b6102d2610bf6565b6001600160a01b0316336001600160a01b0316146103035760405163b4e5b12160e01b815260040160405180910390fd5b60048054600554604051632142170760e11b8152309381019390935233602484015260448301526001600160a01b0316906342842e0e90606401600060405180830381600087803b15801561035757600080fd5b505af115801561036b573d6000803e3d6000fd5b50506004546005546040519081526001600160a01b03909116925033915030907f1fc6b0218aceb86978fcfee181f91a4a3f28d1eddff4e6df0c3dc99c79ace6d49060200160405180910390a4565b600b54610100900460ff16158080156103da5750600b54600160ff909116105b806103f45750303b1580156103f45750600b5460ff166001145b61045b5760405162461bcd60e51b815260206004820152602e60248201527f496e697469616c697a61626c653a20636f6e747261637420697320616c72656160448201526d191e481a5b9a5d1a585b1a5e995960921b606482015260840160405180910390fd5b600b805460ff19166001179055801561047e57600b805461ff0019166101001790555b6040828101518351606085015192516323b872dd60e01b81526001600160a01b039182166004820152306024820152604481019390935216906323b872dd90606401600060405180830381600087803b1580156104da57600080fd5b505af11580156104ee573d6000803e3d6000fd5b50508351600280546001600160a01b039283166001600160a01b03199182161790915560208601516003805491841691831691909117905560408601516004805491909316911617905550506060820151600555608082015160065560a082015160085560c08201516105619042610e19565b600a805467ffffffffffffffff19166001600160401b039290921691909117905560405130907f2db21921e7bb87a5d99fc29841e4b9ad6d32f7e9f0f12471f615d5c611dcf4e2906105b590600290610e40565b60405180910390a2801561060357600b805461ff0019169055604051600181527f7f26b83ff96e1f2b6a682f133852f6798a09c465da95921460cefb38474024989060200160405180910390a15b5050565b600a546001600160401b031642101561063357604051630c2695bf60e11b815260040160405180910390fd5b600a54600160401b900460ff1661065d576040516316de234960e11b815260040160405180910390fd5b6002546001600160a01b0316331461068857604051632cff942760e01b815260040160405180910390fd5b6003546040516370a0823160e01b81523060048201526000916001600160a01b0316906370a0823190602401602060405180830381865afa1580156106d1573d6000803e3d6000fd5b505050506040513d601f19601f820116820180604052508101906106f59190610ed1565b60035460405163a9059cbb60e01b8152336004820152602481018390529192506001600160a01b03169063a9059cbb906044016020604051808303816000875af1158015610747573d6000803e3d6000fd5b505050506040513d601f19601f8201168201806040525081019061076b9190610eea565b50604051818152339030907f2427926a2340a250197c73c9c1a12ca71ee0f1f53f8e08badda42770afc6ecf69060200160405180910390a350565b6001600160a01b03811660009081526001602090815260409182902080548351818402810184019094528084526060939283018282801561080657602002820191906000526020600020905b8154815260200190600101908083116107f2575b50505050509050919050565b600a546001600160401b0316421061083d5760405163377d0b8560e11b815260040160405180910390fd5b8060000361085e576040516398fccb2760e01b815260040160405180910390fd5b6006548161086b60075490565b6108759190610f0c565b1115610894576040516384bfcb9560e01b815260040160405180910390fd5b6003546040516370a0823160e01b81523360048201526001600160a01b03909116906370a0823190602401602060405180830381865afa1580156108dc573d6000803e3d6000fd5b505050506040513d601f19601f820116820180604052508101906109009190610ed1565b61090982610c6e565b11156109285760405163119563e560e31b815260040160405180910390fd5b6003546001600160a01b03166323b872dd333061094485610c6e565b6040516001600160e01b031960e086901b1681526001600160a01b03938416600482015292909116602483015260448201526064016020604051808303816000875af1158015610998573d6000803e3d6000fd5b505050506040513d601f19601f820116820180604052508101906109bc9190610eea565b503360009081526001602052604081206007549091836001600160401b038111156109e9576109e9610c85565b604051908082528060200260200182016040528015610a12578160200160208202803683370190505b50905060005b84811015610a7e5782828281518110610a3357610a33610f1f565b6020908102919091018101919091528454600181810187556000878152838120909201869055858252918190526040902080546001600160a01b031916331790559283019201610a18565b506007829055604051339030907f3298f998adc3ec4bdcc9bb12f2a924f1d28c61596124855d7d6d4d09e231847a90610ab8908590610dbf565b60405180910390a350505050565b600a546000906001600160401b0316421015610af557604051630c2695bf60e11b815260040160405180910390fd5b600a54600160401b900460ff16610b1f576040516316de234960e11b815260040160405180910390fd5b5060095490565b600a546001600160401b0316421015610b5257604051630c2695bf60e11b815260040160405180910390fd5b600a54600160401b900460ff1615610b7d57604051630a7f733d60e41b815260040160405180910390fd5b6000610b8a600143610f35565b60075490409150610b9b9082610f48565b6009819055600a805468ff00000000000000001916600160401b17905560405130917fbd2ef7d8e723142e22eed26d859400cda0ac602edacddc8b13f96c921011a9ac91610beb91815260200190565b60405180910390a250565b600a546000906001600160401b0316421015610c2557604051630c2695bf60e11b815260040160405180910390fd5b600a54600160401b900460ff16610c4f576040516316de234960e11b815260040160405180910390fd5b506009546000908152602081905260409020546001600160a01b031690565b600854600090610c7f908390610f6a565b92915050565b634e487b7160e01b600052604160045260246000fd5b6001600160a01b0381168114610cb057600080fd5b50565b8035610cbe81610c9b565b919050565b80356001600160401b0381168114610cbe57600080fd5b600060e08284031215610cec57600080fd5b60405160e081018181106001600160401b0382111715610d1c57634e487b7160e01b600052604160045260246000fd5b604052610d2883610cb3565b8152610d3660208401610cb3565b6020820152610d4760408401610cb3565b6040820152606083013560608201526080830135608082015260a083013560a0820152610d7660c08401610cc3565b60c08201529392505050565b600060208284031215610d9457600080fd5b5035919050565b600060208284031215610dad57600080fd5b8135610db881610c9b565b9392505050565b6020808252825182820181905260009190848201906040850190845b81811015610df757835183529284019291840191600101610ddb565b50909695505050505050565b634e487b7160e01b600052601160045260246000fd5b6001600160401b03818116838216019080821115610e3957610e39610e03565b5092915050565b81546001600160a01b03168152610140810160018301546001600160a01b0390811660208401526002840154166040808401919091526003840154606084015260048401546080840152600584015460a0840152600684015460c0840152600784015460e084015260088401546001600160401b0381166101008501529081901c60ff161515610120840152610e39565b600060208284031215610ee357600080fd5b5051919050565b600060208284031215610efc57600080fd5b81518015158114610db857600080fd5b80820180821115610c7f57610c7f610e03565b634e487b7160e01b600052603260045260246000fd5b81810381811115610c7f57610c7f610e03565b600082610f6557634e487b7160e01b600052601260045260246000fd5b500690565b8082028115828204841417610c7f57610c7f610e0356fea26469706673582212201e9fa1818240fa80f2f8f72dc0cbeee3fe798d4f94da487c070d59fb4b4a2f6764736f6c63430008110033","opcodes":"PUSH1 0x80 PUSH1 0x40 MSTORE CALLVALUE DUP1 ISZERO PUSH2 0x10 JUMPI PUSH1 0x0 DUP1 REVERT JUMPDEST POP PUSH2 0xFB7 DUP1 PUSH2 0x20 PUSH1 0x0 CODECOPY PUSH1 0x0 RETURN INVALID PUSH1 0x80 PUSH1 0x40 MSTORE CALLVALUE DUP1 ISZERO PUSH2 0x10 JUMPI PUSH1 0x0 DUP1 REVERT JUMPDEST POP PUSH1 0x4 CALLDATASIZE LT PUSH2 0x10B JUMPI PUSH1 0x0 CALLDATALOAD PUSH1 0xE0 SHR DUP1 PUSH4 0x6352211E GT PUSH2 0xA2 JUMPI DUP1 PUSH4 0xA1277600 GT PUSH2 0x71 JUMPI DUP1 PUSH4 0xA1277600 EQ PUSH2 0x241 JUMPI DUP1 PUSH4 0xC26EEA54 EQ PUSH2 0x254 JUMPI DUP1 PUSH4 0xCCF1125C EQ PUSH2 0x25C JUMPI DUP1 PUSH4 0xD5ABEB01 EQ PUSH2 0x264 JUMPI DUP1 PUSH4 0xED7A4E0B EQ PUSH2 0x26C JUMPI PUSH1 0x0 DUP1 REVERT JUMPDEST DUP1 PUSH4 0x6352211E EQ PUSH2 0x1DF JUMPI DUP1 PUSH4 0x636ED74C EQ PUSH2 0x208 JUMPI DUP1 PUSH4 0x6A4A5B2D EQ PUSH2 0x210 JUMPI DUP1 PUSH4 0x70A08231 EQ PUSH2 0x221 JUMPI PUSH1 0x0 DUP1 REVERT JUMPDEST DUP1 PUSH4 0x237BE938 GT PUSH2 0xDE JUMPI DUP1 PUSH4 0x237BE938 EQ PUSH2 0x15E JUMPI DUP1 PUSH4 0x3197CBB6 EQ PUSH2 0x171 JUMPI DUP1 PUSH4 0x32095A66 EQ PUSH2 0x18C JUMPI DUP1 PUSH4 0x3B398FF8 EQ PUSH2 0x1A9 JUMPI PUSH1 0x0 DUP1 REVERT JUMPDEST DUP1 PUSH4 0x2D05D3F EQ PUSH2 0x110 JUMPI DUP1 PUSH4 0x1209B1F6 EQ PUSH2 0x13A JUMPI DUP1 PUSH4 0x15D655C9 EQ PUSH2 0x14C JUMPI DUP1 PUSH4 0x18160DDD EQ PUSH2 0x156 JUMPI JUMPDEST PUSH1 0x0 DUP1 REVERT JUMPDEST PUSH1 0x2 SLOAD PUSH1 0x1 PUSH1 0x1 PUSH1 0xA0 SHL SUB AND JUMPDEST PUSH1 0x40 MLOAD PUSH1 0x1 PUSH1 0x1 PUSH1 0xA0 SHL SUB SWAP1 SWAP2 AND DUP2 MSTORE PUSH1 0x20 ADD JUMPDEST PUSH1 0x40 MLOAD DUP1 SWAP2 SUB SWAP1 RETURN JUMPDEST PUSH1 0x8 SLOAD JUMPDEST PUSH1 0x40 MLOAD SWAP1 DUP2 MSTORE PUSH1 0x20 ADD PUSH2 0x131 JUMP JUMPDEST PUSH2 0x154 PUSH2 0x274 JUMP JUMPDEST STOP JUMPDEST PUSH1 0x7 SLOAD PUSH2 0x13E JUMP JUMPDEST PUSH2 0x154 PUSH2 0x16C CALLDATASIZE PUSH1 0x4 PUSH2 0xCDA JUMP JUMPDEST PUSH2 0x3BA JUMP JUMPDEST PUSH1 0xA SLOAD PUSH1 0x40 MLOAD PUSH1 0x1 PUSH1 0x1 PUSH1 0x40 SHL SUB SWAP1 SWAP2 AND DUP2 MSTORE PUSH1 0x20 ADD PUSH2 0x131 JUMP JUMPDEST PUSH1 0xA SLOAD PUSH1 0x1 PUSH1 0x40 SHL SWAP1 DIV PUSH1 0xFF AND PUSH1 0x40 MLOAD SWAP1 ISZERO ISZERO DUP2 MSTORE PUSH1 0x20 ADD PUSH2 0x131 JUMP JUMPDEST PUSH2 0x1C0 PUSH1 0x4 SLOAD PUSH1 0x5 SLOAD PUSH1 0x1 PUSH1 0x1 PUSH1 0xA0 SHL SUB SWAP1 SWAP2 AND SWAP2 JUMP JUMPDEST PUSH1 0x40 DUP1 MLOAD PUSH1 0x1 PUSH1 0x1 PUSH1 0xA0 SHL SUB SWAP1 SWAP4 AND DUP4 MSTORE PUSH1 0x20 DUP4 ADD SWAP2 SWAP1 SWAP2 MSTORE ADD PUSH2 0x131 JUMP JUMPDEST PUSH2 0x11D PUSH2 0x1ED CALLDATASIZE PUSH1 0x4 PUSH2 0xD82 JUMP JUMPDEST PUSH1 0x0 SWAP1 DUP2 MSTORE PUSH1 0x20 DUP2 SWAP1 MSTORE PUSH1 0x40 SWAP1 KECCAK256 SLOAD PUSH1 0x1 PUSH1 0x1 PUSH1 0xA0 SHL SUB AND SWAP1 JUMP JUMPDEST PUSH2 0x154 PUSH2 0x607 JUMP JUMPDEST PUSH1 0x3 SLOAD PUSH1 0x1 PUSH1 0x1 PUSH1 0xA0 SHL SUB AND PUSH2 0x11D JUMP JUMPDEST PUSH2 0x234 PUSH2 0x22F CALLDATASIZE PUSH1 0x4 PUSH2 0xD9B JUMP JUMPDEST PUSH2 0x7A6 JUMP JUMPDEST PUSH1 0x40 MLOAD PUSH2 0x131 SWAP2 SWAP1 PUSH2 0xDBF JUMP JUMPDEST PUSH2 0x154 PUSH2 0x24F CALLDATASIZE PUSH1 0x4 PUSH2 0xD82 JUMP JUMPDEST PUSH2 0x812 JUMP JUMPDEST PUSH2 0x13E PUSH2 0xAC6 JUMP JUMPDEST PUSH2 0x154 PUSH2 0xB26 JUMP JUMPDEST PUSH1 0x6 SLOAD PUSH2 0x13E JUMP JUMPDEST PUSH2 0x11D PUSH2 0xBF6 JUMP JUMPDEST PUSH1 0xA SLOAD PUSH1 0x1 PUSH1 0x1 PUSH1 0x40 SHL SUB AND TIMESTAMP LT ISZERO PUSH2 0x2A0 JUMPI PUSH1 0x40 MLOAD PUSH4 0xC2695BF PUSH1 0xE1 SHL DUP2 MSTORE PUSH1 0x4 ADD PUSH1 0x40 MLOAD DUP1 SWAP2 SUB SWAP1 REVERT JUMPDEST PUSH1 0xA SLOAD PUSH1 0x1 PUSH1 0x40 SHL SWAP1 DIV PUSH1 0xFF AND PUSH2 0x2CA JUMPI PUSH1 0x40 MLOAD PUSH4 0x16DE2349 PUSH1 0xE1 SHL DUP2 MSTORE PUSH1 0x4 ADD PUSH1 0x40 MLOAD DUP1 SWAP2 SUB SWAP1 REVERT JUMPDEST PUSH2 0x2D2 PUSH2 0xBF6 JUMP JUMPDEST PUSH1 0x1 PUSH1 0x1 PUSH1 0xA0 SHL SUB AND CALLER PUSH1 0x1 PUSH1 0x1 PUSH1 0xA0 SHL SUB AND EQ PUSH2 0x303 JUMPI PUSH1 0x40 MLOAD PUSH4 0xB4E5B121 PUSH1 0xE0 SHL DUP2 MSTORE PUSH1 0x4 ADD PUSH1 0x40 MLOAD DUP1 SWAP2 SUB SWAP1 REVERT JUMPDEST PUSH1 0x4 DUP1 SLOAD PUSH1 0x5 SLOAD PUSH1 0x40 MLOAD PUSH4 0x21421707 PUSH1 0xE1 SHL DUP2 MSTORE ADDRESS SWAP4 DUP2 ADD SWAP4 SWAP1 SWAP4 MSTORE CALLER PUSH1 0x24 DUP5 ADD MSTORE PUSH1 0x44 DUP4 ADD MSTORE PUSH1 0x1 PUSH1 0x1 PUSH1 0xA0 SHL SUB AND SWAP1 PUSH4 0x42842E0E SWAP1 PUSH1 0x64 ADD PUSH1 0x0 PUSH1 0x40 MLOAD DUP1 DUP4 SUB DUP2 PUSH1 0x0 DUP8 DUP1 EXTCODESIZE ISZERO DUP1 ISZERO PUSH2 0x357 JUMPI PUSH1 0x0 DUP1 REVERT JUMPDEST POP GAS CALL ISZERO DUP1 ISZERO PUSH2 0x36B JUMPI RETURNDATASIZE PUSH1 0x0 DUP1 RETURNDATACOPY RETURNDATASIZE PUSH1 0x0 REVERT JUMPDEST POP POP PUSH1 0x4 SLOAD PUSH1 0x5 SLOAD PUSH1 0x40 MLOAD SWAP1 DUP2 MSTORE PUSH1 0x1 PUSH1 0x1 PUSH1 0xA0 SHL SUB SWAP1 SWAP2 AND SWAP3 POP CALLER SWAP2 POP ADDRESS SWAP1 PUSH32 0x1FC6B0218ACEB86978FCFEE181F91A4A3F28D1EDDFF4E6DF0C3DC99C79ACE6D4 SWAP1 PUSH1 0x20 ADD PUSH1 0x40 MLOAD DUP1 SWAP2 SUB SWAP1 LOG4 JUMP JUMPDEST PUSH1 0xB SLOAD PUSH2 0x100 SWAP1 DIV PUSH1 0xFF AND ISZERO DUP1 DUP1 ISZERO PUSH2 0x3DA JUMPI POP PUSH1 0xB SLOAD PUSH1 0x1 PUSH1 0xFF SWAP1 SWAP2 AND LT JUMPDEST DUP1 PUSH2 0x3F4 JUMPI POP ADDRESS EXTCODESIZE ISZERO DUP1 ISZERO PUSH2 0x3F4 JUMPI POP PUSH1 0xB SLOAD PUSH1 0xFF AND PUSH1 0x1 EQ JUMPDEST PUSH2 0x45B JUMPI PUSH1 0x40 MLOAD PUSH3 0x461BCD PUSH1 0xE5 SHL DUP2 MSTORE PUSH1 0x20 PUSH1 0x4 DUP3 ADD MSTORE PUSH1 0x2E PUSH1 0x24 DUP3 ADD MSTORE PUSH32 0x496E697469616C697A61626C653A20636F6E747261637420697320616C726561 PUSH1 0x44 DUP3 ADD MSTORE PUSH14 0x191E481A5B9A5D1A585B1A5E9959 PUSH1 0x92 SHL PUSH1 0x64 DUP3 ADD MSTORE PUSH1 0x84 ADD PUSH1 0x40 MLOAD DUP1 SWAP2 SUB SWAP1 REVERT JUMPDEST PUSH1 0xB DUP1 SLOAD PUSH1 0xFF NOT AND PUSH1 0x1 OR SWAP1 SSTORE DUP1 ISZERO PUSH2 0x47E JUMPI PUSH1 0xB DUP1 SLOAD PUSH2 0xFF00 NOT AND PUSH2 0x100 OR SWAP1 SSTORE JUMPDEST PUSH1 0x40 DUP3 DUP2 ADD MLOAD DUP4 MLOAD PUSH1 0x60 DUP6 ADD MLOAD SWAP3 MLOAD PUSH4 0x23B872DD PUSH1 0xE0 SHL DUP2 MSTORE PUSH1 0x1 PUSH1 0x1 PUSH1 0xA0 SHL SUB SWAP2 DUP3 AND PUSH1 0x4 DUP3 ADD MSTORE ADDRESS PUSH1 0x24 DUP3 ADD MSTORE PUSH1 0x44 DUP2 ADD SWAP4 SWAP1 SWAP4 MSTORE AND SWAP1 PUSH4 0x23B872DD SWAP1 PUSH1 0x64 ADD PUSH1 0x0 PUSH1 0x40 MLOAD DUP1 DUP4 SUB DUP2 PUSH1 0x0 DUP8 DUP1 EXTCODESIZE ISZERO DUP1 ISZERO PUSH2 0x4DA JUMPI PUSH1 0x0 DUP1 REVERT JUMPDEST POP GAS CALL ISZERO DUP1 ISZERO PUSH2 0x4EE JUMPI RETURNDATASIZE PUSH1 0x0 DUP1 RETURNDATACOPY RETURNDATASIZE PUSH1 0x0 REVERT JUMPDEST POP POP DUP4 MLOAD PUSH1 0x2 DUP1 SLOAD PUSH1 0x1 PUSH1 0x1 PUSH1 0xA0 SHL SUB SWAP3 DUP4 AND PUSH1 0x1 PUSH1 0x1 PUSH1 0xA0 SHL SUB NOT SWAP2 DUP3 AND OR SWAP1 SWAP2 SSTORE PUSH1 0x20 DUP7 ADD MLOAD PUSH1 0x3 DUP1 SLOAD SWAP2 DUP5 AND SWAP2 DUP4 AND SWAP2 SWAP1 SWAP2 OR SWAP1 SSTORE PUSH1 0x40 DUP7 ADD MLOAD PUSH1 0x4 DUP1 SLOAD SWAP2 SWAP1 SWAP4 AND SWAP2 AND OR SWAP1 SSTORE POP POP PUSH1 0x60 DUP3 ADD MLOAD PUSH1 0x5 SSTORE PUSH1 0x80 DUP3 ADD MLOAD PUSH1 0x6 SSTORE PUSH1 0xA0 DUP3 ADD MLOAD PUSH1 0x8 SSTORE PUSH1 0xC0 DUP3 ADD MLOAD PUSH2 0x561 SWAP1 TIMESTAMP PUSH2 0xE19 JUMP JUMPDEST PUSH1 0xA DUP1 SLOAD PUSH8 0xFFFFFFFFFFFFFFFF NOT AND PUSH1 0x1 PUSH1 0x1 PUSH1 0x40 SHL SUB SWAP3 SWAP1 SWAP3 AND SWAP2 SWAP1 SWAP2 OR SWAP1 SSTORE PUSH1 0x40 MLOAD ADDRESS SWAP1 PUSH32 0x2DB21921E7BB87A5D99FC29841E4B9AD6D32F7E9F0F12471F615D5C611DCF4E2 SWAP1 PUSH2 0x5B5 SWAP1 PUSH1 0x2 SWAP1 PUSH2 0xE40 JUMP JUMPDEST PUSH1 0x40 MLOAD DUP1 SWAP2 SUB SWAP1 LOG2 DUP1 ISZERO PUSH2 0x603 JUMPI PUSH1 0xB DUP1 SLOAD PUSH2 0xFF00 NOT AND SWAP1 SSTORE PUSH1 0x40 MLOAD PUSH1 0x1 DUP2 MSTORE PUSH32 0x7F26B83FF96E1F2B6A682F133852F6798A09C465DA95921460CEFB3847402498 SWAP1 PUSH1 0x20 ADD PUSH1 0x40 MLOAD DUP1 SWAP2 SUB SWAP1 LOG1 JUMPDEST POP POP JUMP JUMPDEST PUSH1 0xA SLOAD PUSH1 0x1 PUSH1 0x1 PUSH1 0x40 SHL SUB AND TIMESTAMP LT ISZERO PUSH2 0x633 JUMPI PUSH1 0x40 MLOAD PUSH4 0xC2695BF PUSH1 0xE1 SHL DUP2 MSTORE PUSH1 0x4 ADD PUSH1 0x40 MLOAD DUP1 SWAP2 SUB SWAP1 REVERT JUMPDEST PUSH1 0xA SLOAD PUSH1 0x1 PUSH1 0x40 SHL SWAP1 DIV PUSH1 0xFF AND PUSH2 0x65D JUMPI PUSH1 0x40 MLOAD PUSH4 0x16DE2349 PUSH1 0xE1 SHL DUP2 MSTORE PUSH1 0x4 ADD PUSH1 0x40 MLOAD DUP1 SWAP2 SUB SWAP1 REVERT JUMPDEST PUSH1 0x2 SLOAD PUSH1 0x1 PUSH1 0x1 PUSH1 0xA0 SHL SUB AND CALLER EQ PUSH2 0x688 JUMPI PUSH1 0x40 MLOAD PUSH4 0x2CFF9427 PUSH1 0xE0 SHL DUP2 MSTORE PUSH1 0x4 ADD PUSH1 0x40 MLOAD DUP1 SWAP2 SUB SWAP1 REVERT JUMPDEST PUSH1 0x3 SLOAD PUSH1 0x40 MLOAD PUSH4 0x70A08231 PUSH1 0xE0 SHL DUP2 MSTORE ADDRESS PUSH1 0x4 DUP3 ADD MSTORE PUSH1 0x0 SWAP2 PUSH1 0x1 PUSH1 0x1 PUSH1 0xA0 SHL SUB AND SWAP1 PUSH4 0x70A08231 SWAP1 PUSH1 0x24 ADD PUSH1 0x20 PUSH1 0x40 MLOAD DUP1 DUP4 SUB DUP2 DUP7 GAS STATICCALL ISZERO DUP1 ISZERO PUSH2 0x6D1 JUMPI RETURNDATASIZE PUSH1 0x0 DUP1 RETURNDATACOPY RETURNDATASIZE PUSH1 0x0 REVERT JUMPDEST POP POP POP POP PUSH1 0x40 MLOAD RETURNDATASIZE PUSH1 0x1F NOT PUSH1 0x1F DUP3 ADD AND DUP3 ADD DUP1 PUSH1 0x40 MSTORE POP DUP2 ADD SWAP1 PUSH2 0x6F5 SWAP2 SWAP1 PUSH2 0xED1 JUMP JUMPDEST PUSH1 0x3 SLOAD PUSH1 0x40 MLOAD PUSH4 0xA9059CBB PUSH1 0xE0 SHL DUP2 MSTORE CALLER PUSH1 0x4 DUP3 ADD MSTORE PUSH1 0x24 DUP2 ADD DUP4 SWAP1 MSTORE SWAP2 SWAP3 POP PUSH1 0x1 PUSH1 0x1 PUSH1 0xA0 SHL SUB AND SWAP1 PUSH4 0xA9059CBB SWAP1 PUSH1 0x44 ADD PUSH1 0x20 PUSH1 0x40 MLOAD DUP1 DUP4 SUB DUP2 PUSH1 0x0 DUP8 GAS CALL ISZERO DUP1 ISZERO PUSH2 0x747 JUMPI RETURNDATASIZE PUSH1 0x0 DUP1 RETURNDATACOPY RETURNDATASIZE PUSH1 0x0 REVERT JUMPDEST POP POP POP POP PUSH1 0x40 MLOAD RETURNDATASIZE PUSH1 0x1F NOT PUSH1 0x1F DUP3 ADD AND DUP3 ADD DUP1 PUSH1 0x40 MSTORE POP DUP2 ADD SWAP1 PUSH2 0x76B SWAP2 SWAP1 PUSH2 0xEEA JUMP JUMPDEST POP PUSH1 0x40 MLOAD DUP2 DUP2 MSTORE CALLER SWAP1 ADDRESS SWAP1 PUSH32 0x2427926A2340A250197C73C9C1A12CA71EE0F1F53F8E08BADDA42770AFC6ECF6 SWAP1 PUSH1 0x20 ADD PUSH1 0x40 MLOAD DUP1 SWAP2 SUB SWAP1 LOG3 POP JUMP JUMPDEST PUSH1 0x1 PUSH1 0x1 PUSH1 0xA0 SHL SUB DUP2 AND PUSH1 0x0 SWAP1 DUP2 MSTORE PUSH1 0x1 PUSH1 0x20 SWAP1 DUP2 MSTORE PUSH1 0x40 SWAP2 DUP3 SWAP1 KECCAK256 DUP1 SLOAD DUP4 MLOAD DUP2 DUP5 MUL DUP2 ADD DUP5 ADD SWAP1 SWAP5 MSTORE DUP1 DUP5 MSTORE PUSH1 0x60 SWAP4 SWAP3 DUP4 ADD DUP3 DUP3 DUP1 ISZERO PUSH2 0x806 JUMPI PUSH1 0x20 MUL DUP3 ADD SWAP2 SWAP1 PUSH1 0x0 MSTORE PUSH1 0x20 PUSH1 0x0 KECCAK256 SWAP1 JUMPDEST DUP2 SLOAD DUP2 MSTORE PUSH1 0x20 ADD SWAP1 PUSH1 0x1 ADD SWAP1 DUP1 DUP4 GT PUSH2 0x7F2 JUMPI JUMPDEST POP POP POP POP POP SWAP1 POP SWAP2 SWAP1 POP JUMP JUMPDEST PUSH1 0xA SLOAD PUSH1 0x1 PUSH1 0x1 PUSH1 0x40 SHL SUB AND TIMESTAMP LT PUSH2 0x83D JUMPI PUSH1 0x40 MLOAD PUSH4 0x377D0B85 PUSH1 0xE1 SHL DUP2 MSTORE PUSH1 0x4 ADD PUSH1 0x40 MLOAD DUP1 SWAP2 SUB SWAP1 REVERT JUMPDEST DUP1 PUSH1 0x0 SUB PUSH2 0x85E JUMPI PUSH1 0x40 MLOAD PUSH4 0x98FCCB27 PUSH1 0xE0 SHL DUP2 MSTORE PUSH1 0x4 ADD PUSH1 0x40 MLOAD DUP1 SWAP2 SUB SWAP1 REVERT JUMPDEST PUSH1 0x6 SLOAD DUP2 PUSH2 0x86B PUSH1 0x7 SLOAD SWAP1 JUMP JUMPDEST PUSH2 0x875 SWAP2 SWAP1 PUSH2 0xF0C JUMP JUMPDEST GT ISZERO PUSH2 0x894 JUMPI PUSH1 0x40 MLOAD PUSH4 0x84BFCB95 PUSH1 0xE0 SHL DUP2 MSTORE PUSH1 0x4 ADD PUSH1 0x40 MLOAD DUP1 SWAP2 SUB SWAP1 REVERT JUMPDEST PUSH1 0x3 SLOAD PUSH1 0x40 MLOAD PUSH4 0x70A08231 PUSH1 0xE0 SHL DUP2 MSTORE CALLER PUSH1 0x4 DUP3 ADD MSTORE PUSH1 0x1 PUSH1 0x1 PUSH1 0xA0 SHL SUB SWAP1 SWAP2 AND SWAP1 PUSH4 0x70A08231 SWAP1 PUSH1 0x24 ADD PUSH1 0x20 PUSH1 0x40 MLOAD DUP1 DUP4 SUB DUP2 DUP7 GAS STATICCALL ISZERO DUP1 ISZERO PUSH2 0x8DC JUMPI RETURNDATASIZE PUSH1 0x0 DUP1 RETURNDATACOPY RETURNDATASIZE PUSH1 0x0 REVERT JUMPDEST POP POP POP POP PUSH1 0x40 MLOAD RETURNDATASIZE PUSH1 0x1F NOT PUSH1 0x1F DUP3 ADD AND DUP3 ADD DUP1 PUSH1 0x40 MSTORE POP DUP2 ADD SWAP1 PUSH2 0x900 SWAP2 SWAP1 PUSH2 0xED1 JUMP JUMPDEST PUSH2 0x909 DUP3 PUSH2 0xC6E JUMP JUMPDEST GT ISZERO PUSH2 0x928 JUMPI PUSH1 0x40 MLOAD PUSH4 0x119563E5 PUSH1 0xE3 SHL DUP2 MSTORE PUSH1 0x4 ADD PUSH1 0x40 MLOAD DUP1 SWAP2 SUB SWAP1 REVERT JUMPDEST PUSH1 0x3 SLOAD PUSH1 0x1 PUSH1 0x1 PUSH1 0xA0 SHL SUB AND PUSH4 0x23B872DD CALLER ADDRESS PUSH2 0x944 DUP6 PUSH2 0xC6E JUMP JUMPDEST PUSH1 0x40 MLOAD PUSH1 0x1 PUSH1 0x1 PUSH1 0xE0 SHL SUB NOT PUSH1 0xE0 DUP7 SWAP1 SHL AND DUP2 MSTORE PUSH1 0x1 PUSH1 0x1 PUSH1 0xA0 SHL SUB SWAP4 DUP5 AND PUSH1 0x4 DUP3 ADD MSTORE SWAP3 SWAP1 SWAP2 AND PUSH1 0x24 DUP4 ADD MSTORE PUSH1 0x44 DUP3 ADD MSTORE PUSH1 0x64 ADD PUSH1 0x20 PUSH1 0x40 MLOAD DUP1 DUP4 SUB DUP2 PUSH1 0x0 DUP8 GAS CALL ISZERO DUP1 ISZERO PUSH2 0x998 JUMPI RETURNDATASIZE PUSH1 0x0 DUP1 RETURNDATACOPY RETURNDATASIZE PUSH1 0x0 REVERT JUMPDEST POP POP POP POP PUSH1 0x40 MLOAD RETURNDATASIZE PUSH1 0x1F NOT PUSH1 0x1F DUP3 ADD AND DUP3 ADD DUP1 PUSH1 0x40 MSTORE POP DUP2 ADD SWAP1 PUSH2 0x9BC SWAP2 SWAP1 PUSH2 0xEEA JUMP JUMPDEST POP CALLER PUSH1 0x0 SWAP1 DUP2 MSTORE PUSH1 0x1 PUSH1 0x20 MSTORE PUSH1 0x40 DUP2 KECCAK256 PUSH1 0x7 SLOAD SWAP1 SWAP2 DUP4 PUSH1 0x1 PUSH1 0x1 PUSH1 0x40 SHL SUB DUP2 GT ISZERO PUSH2 0x9E9 JUMPI PUSH2 0x9E9 PUSH2 0xC85 JUMP JUMPDEST PUSH1 0x40 MLOAD SWAP1 DUP1 DUP3 MSTORE DUP1 PUSH1 0x20 MUL PUSH1 0x20 ADD DUP3 ADD PUSH1 0x40 MSTORE DUP1 ISZERO PUSH2 0xA12 JUMPI DUP2 PUSH1 0x20 ADD PUSH1 0x20 DUP3 MUL DUP1 CALLDATASIZE DUP4 CALLDATACOPY ADD SWAP1 POP JUMPDEST POP SWAP1 POP PUSH1 0x0 JUMPDEST DUP5 DUP2 LT ISZERO PUSH2 0xA7E JUMPI DUP3 DUP3 DUP3 DUP2 MLOAD DUP2 LT PUSH2 0xA33 JUMPI PUSH2 0xA33 PUSH2 0xF1F JUMP JUMPDEST PUSH1 0x20 SWAP1 DUP2 MUL SWAP2 SWAP1 SWAP2 ADD DUP2 ADD SWAP2 SWAP1 SWAP2 MSTORE DUP5 SLOAD PUSH1 0x1 DUP2 DUP2 ADD DUP8 SSTORE PUSH1 0x0 DUP8 DUP2 MSTORE DUP4 DUP2 KECCAK256 SWAP1 SWAP3 ADD DUP7 SWAP1 SSTORE DUP6 DUP3 MSTORE SWAP2 DUP2 SWAP1 MSTORE PUSH1 0x40 SWAP1 KECCAK256 DUP1 SLOAD PUSH1 0x1 PUSH1 0x1 PUSH1 0xA0 SHL SUB NOT AND CALLER OR SWAP1 SSTORE SWAP3 DUP4 ADD SWAP3 ADD PUSH2 0xA18 JUMP JUMPDEST POP PUSH1 0x7 DUP3 SWAP1 SSTORE PUSH1 0x40 MLOAD CALLER SWAP1 ADDRESS SWAP1 PUSH32 0x3298F998ADC3EC4BDCC9BB12F2A924F1D28C61596124855D7D6D4D09E231847A SWAP1 PUSH2 0xAB8 SWAP1 DUP6 SWAP1 PUSH2 0xDBF JUMP JUMPDEST PUSH1 0x40 MLOAD DUP1 SWAP2 SUB SWAP1 LOG3 POP POP POP POP JUMP JUMPDEST PUSH1 0xA SLOAD PUSH1 0x0 SWAP1 PUSH1 0x1 PUSH1 0x1 PUSH1 0x40 SHL SUB AND TIMESTAMP LT ISZERO PUSH2 0xAF5 JUMPI PUSH1 0x40 MLOAD PUSH4 0xC2695BF PUSH1 0xE1 SHL DUP2 MSTORE PUSH1 0x4 ADD PUSH1 0x40 MLOAD DUP1 SWAP2 SUB SWAP1 REVERT JUMPDEST PUSH1 0xA SLOAD PUSH1 0x1 PUSH1 0x40 SHL SWAP1 DIV PUSH1 0xFF AND PUSH2 0xB1F JUMPI PUSH1 0x40 MLOAD PUSH4 0x16DE2349 PUSH1 0xE1 SHL DUP2 MSTORE PUSH1 0x4 ADD PUSH1 0x40 MLOAD DUP1 SWAP2 SUB SWAP1 REVERT JUMPDEST POP PUSH1 0x9 SLOAD SWAP1 JUMP JUMPDEST PUSH1 0xA SLOAD PUSH1 0x1 PUSH1 0x1 PUSH1 0x40 SHL SUB AND TIMESTAMP LT ISZERO PUSH2 0xB52 JUMPI PUSH1 0x40 MLOAD PUSH4 0xC2695BF PUSH1 0xE1 SHL DUP2 MSTORE PUSH1 0x4 ADD PUSH1 0x40 MLOAD DUP1 SWAP2 SUB SWAP1 REVERT JUMPDEST PUSH1 0xA SLOAD PUSH1 0x1 PUSH1 0x40 SHL SWAP1 DIV PUSH1 0xFF AND ISZERO PUSH2 0xB7D JUMPI PUSH1 0x40 MLOAD PUSH4 0xA7F733D PUSH1 0xE4 SHL DUP2 MSTORE PUSH1 0x4 ADD PUSH1 0x40 MLOAD DUP1 SWAP2 SUB SWAP1 REVERT JUMPDEST PUSH1 0x0 PUSH2 0xB8A PUSH1 0x1 NUMBER PUSH2 0xF35 JUMP JUMPDEST PUSH1 0x7 SLOAD SWAP1 BLOCKHASH SWAP2 POP PUSH2 0xB9B SWAP1 DUP3 PUSH2 0xF48 JUMP JUMPDEST PUSH1 0x9 DUP2 SWAP1 SSTORE PUSH1 0xA DUP1 SLOAD PUSH9 0xFF0000000000000000 NOT AND PUSH1 0x1 PUSH1 0x40 SHL OR SWAP1 SSTORE PUSH1 0x40 MLOAD ADDRESS SWAP2 PUSH32 0xBD2EF7D8E723142E22EED26D859400CDA0AC602EDACDDC8B13F96C921011A9AC SWAP2 PUSH2 0xBEB SWAP2 DUP2 MSTORE PUSH1 0x20 ADD SWAP1 JUMP JUMPDEST PUSH1 0x40 MLOAD DUP1 SWAP2 SUB SWAP1 LOG2 POP JUMP JUMPDEST PUSH1 0xA SLOAD PUSH1 0x0 SWAP1 PUSH1 0x1 PUSH1 0x1 PUSH1 0x40 SHL SUB AND TIMESTAMP LT ISZERO PUSH2 0xC25 JUMPI PUSH1 0x40 MLOAD PUSH4 0xC2695BF PUSH1 0xE1 SHL DUP2 MSTORE PUSH1 0x4 ADD PUSH1 0x40 MLOAD DUP1 SWAP2 SUB SWAP1 REVERT JUMPDEST PUSH1 0xA SLOAD PUSH1 0x1 PUSH1 0x40 SHL SWAP1 DIV PUSH1 0xFF AND PUSH2 0xC4F JUMPI PUSH1 0x40 MLOAD PUSH4 0x16DE2349 PUSH1 0xE1 SHL DUP2 MSTORE PUSH1 0x4 ADD PUSH1 0x40 MLOAD DUP1 SWAP2 SUB SWAP1 REVERT JUMPDEST POP PUSH1 0x9 SLOAD PUSH1 0x0 SWAP1 DUP2 MSTORE PUSH1 0x20 DUP2 SWAP1 MSTORE PUSH1 0x40 SWAP1 KECCAK256 SLOAD PUSH1 0x1 PUSH1 0x1 PUSH1 0xA0 SHL SUB AND SWAP1 JUMP JUMPDEST PUSH1 0x8 SLOAD PUSH1 0x0 SWAP1 PUSH2 0xC7F SWAP1 DUP4 SWAP1 PUSH2 0xF6A JUMP JUMPDEST SWAP3 SWAP2 POP POP JUMP JUMPDEST PUSH4 0x4E487B71 PUSH1 0xE0 SHL PUSH1 0x0 MSTORE PUSH1 0x41 PUSH1 0x4 MSTORE PUSH1 0x24 PUSH1 0x0 REVERT JUMPDEST PUSH1 0x1 PUSH1 0x1 PUSH1 0xA0 SHL SUB DUP2 AND DUP2 EQ PUSH2 0xCB0 JUMPI PUSH1 0x0 DUP1 REVERT JUMPDEST POP JUMP JUMPDEST DUP1 CALLDATALOAD PUSH2 0xCBE DUP2 PUSH2 0xC9B JUMP JUMPDEST SWAP2 SWAP1 POP JUMP JUMPDEST DUP1 CALLDATALOAD PUSH1 0x1 PUSH1 0x1 PUSH1 0x40 SHL SUB DUP2 AND DUP2 EQ PUSH2 0xCBE JUMPI PUSH1 0x0 DUP1 REVERT JUMPDEST PUSH1 0x0 PUSH1 0xE0 DUP3 DUP5 SUB SLT ISZERO PUSH2 0xCEC JUMPI PUSH1 0x0 DUP1 REVERT JUMPDEST PUSH1 0x40 MLOAD PUSH1 0xE0 DUP2 ADD DUP2 DUP2 LT PUSH1 0x1 PUSH1 0x1 PUSH1 0x40 SHL SUB DUP3 GT OR ISZERO PUSH2 0xD1C JUMPI PUSH4 0x4E487B71 PUSH1 0xE0 SHL PUSH1 0x0 MSTORE PUSH1 0x41 PUSH1 0x4 MSTORE PUSH1 0x24 PUSH1 0x0 REVERT JUMPDEST PUSH1 0x40 MSTORE PUSH2 0xD28 DUP4 PUSH2 0xCB3 JUMP JUMPDEST DUP2 MSTORE PUSH2 0xD36 PUSH1 0x20 DUP5 ADD PUSH2 0xCB3 JUMP JUMPDEST PUSH1 0x20 DUP3 ADD MSTORE PUSH2 0xD47 PUSH1 0x40 DUP5 ADD PUSH2 0xCB3 JUMP JUMPDEST PUSH1 0x40 DUP3 ADD MSTORE PUSH1 0x60 DUP4 ADD CALLDATALOAD PUSH1 0x60 DUP3 ADD MSTORE PUSH1 0x80 DUP4 ADD CALLDATALOAD PUSH1 0x80 DUP3 ADD MSTORE PUSH1 0xA0 DUP4 ADD CALLDATALOAD PUSH1 0xA0 DUP3 ADD MSTORE PUSH2 0xD76 PUSH1 0xC0 DUP5 ADD PUSH2 0xCC3 JUMP JUMPDEST PUSH1 0xC0 DUP3 ADD MSTORE SWAP4 SWAP3 POP POP POP JUMP JUMPDEST PUSH1 0x0 PUSH1 0x20 DUP3 DUP5 SUB SLT ISZERO PUSH2 0xD94 JUMPI PUSH1 0x0 DUP1 REVERT JUMPDEST POP CALLDATALOAD SWAP2 SWAP1 POP JUMP JUMPDEST PUSH1 0x0 PUSH1 0x20 DUP3 DUP5 SUB SLT ISZERO PUSH2 0xDAD JUMPI PUSH1 0x0 DUP1 REVERT JUMPDEST DUP2 CALLDATALOAD PUSH2 0xDB8 DUP2 PUSH2 0xC9B JUMP JUMPDEST SWAP4 SWAP3 POP POP POP JUMP JUMPDEST PUSH1 0x20 DUP1 DUP3 MSTORE DUP3 MLOAD DUP3 DUP3 ADD DUP2 SWAP1 MSTORE PUSH1 0x0 SWAP2 SWAP1 DUP5 DUP3 ADD SWAP1 PUSH1 0x40 DUP6 ADD SWAP1 DUP5 JUMPDEST DUP2 DUP2 LT ISZERO PUSH2 0xDF7 JUMPI DUP4 MLOAD DUP4 MSTORE SWAP3 DUP5 ADD SWAP3 SWAP2 DUP5 ADD SWAP2 PUSH1 0x1 ADD PUSH2 0xDDB JUMP JUMPDEST POP SWAP1 SWAP7 SWAP6 POP POP POP POP POP POP JUMP JUMPDEST PUSH4 0x4E487B71 PUSH1 0xE0 SHL PUSH1 0x0 MSTORE PUSH1 0x11 PUSH1 0x4 MSTORE PUSH1 0x24 PUSH1 0x0 REVERT JUMPDEST PUSH1 0x1 PUSH1 0x1 PUSH1 0x40 SHL SUB DUP2 DUP2 AND DUP4 DUP3 AND ADD SWAP1 DUP1 DUP3 GT ISZERO PUSH2 0xE39 JUMPI PUSH2 0xE39 PUSH2 0xE03 JUMP JUMPDEST POP SWAP3 SWAP2 POP POP JUMP JUMPDEST DUP2 SLOAD PUSH1 0x1 PUSH1 0x1 PUSH1 0xA0 SHL SUB AND DUP2 MSTORE PUSH2 0x140 DUP2 ADD PUSH1 0x1 DUP4 ADD SLOAD PUSH1 0x1 PUSH1 0x1 PUSH1 0xA0 SHL SUB SWAP1 DUP2 AND PUSH1 0x20 DUP5 ADD MSTORE PUSH1 0x2 DUP5 ADD SLOAD AND PUSH1 0x40 DUP1 DUP5 ADD SWAP2 SWAP1 SWAP2 MSTORE PUSH1 0x3 DUP5 ADD SLOAD PUSH1 0x60 DUP5 ADD MSTORE PUSH1 0x4 DUP5 ADD SLOAD PUSH1 0x80 DUP5 ADD MSTORE PUSH1 0x5 DUP5 ADD SLOAD PUSH1 0xA0 DUP5 ADD MSTORE PUSH1 0x6 DUP5 ADD SLOAD PUSH1 0xC0 DUP5 ADD MSTORE PUSH1 0x7 DUP5 ADD SLOAD PUSH1 0xE0 DUP5 ADD MSTORE PUSH1 0x8 DUP5 ADD SLOAD PUSH1 0x1 PUSH1 0x1 PUSH1 0x40 SHL SUB DUP2 AND PUSH2 0x100 DUP6 ADD MSTORE SWAP1 DUP2 SWAP1 SHR PUSH1 0xFF AND ISZERO ISZERO PUSH2 0x120 DUP5 ADD MSTORE PUSH2 0xE39 JUMP JUMPDEST PUSH1 0x0 PUSH1 0x20 DUP3 DUP5 SUB SLT ISZERO PUSH2 0xEE3 JUMPI PUSH1 0x0 DUP1 REVERT JUMPDEST POP MLOAD SWAP2 SWAP1 POP JUMP JUMPDEST PUSH1 0x0 PUSH1 0x20 DUP3 DUP5 SUB SLT ISZERO PUSH2 0xEFC JUMPI PUSH1 0x0 DUP1 REVERT JUMPDEST DUP2 MLOAD DUP1 ISZERO ISZERO DUP2 EQ PUSH2 0xDB8 JUMPI PUSH1 0x0 DUP1 REVERT JUMPDEST DUP1 DUP3 ADD DUP1 DUP3 GT ISZERO PUSH2 0xC7F JUMPI PUSH2 0xC7F PUSH2 0xE03 JUMP JUMPDEST PUSH4 0x4E487B71 PUSH1 0xE0 SHL PUSH1 0x0 MSTORE PUSH1 0x32 PUSH1 0x4 MSTORE PUSH1 0x24 PUSH1 0x0 REVERT JUMPDEST DUP2 DUP2 SUB DUP2 DUP2 GT ISZERO PUSH2 0xC7F JUMPI PUSH2 0xC7F PUSH2 0xE03 JUMP JUMPDEST PUSH1 0x0 DUP3 PUSH2 0xF65 JUMPI PUSH4 0x4E487B71 PUSH1 0xE0 SHL PUSH1 0x0 MSTORE PUSH1 0x12 PUSH1 0x4 MSTORE PUSH1 0x24 PUSH1 0x0 REVERT JUMPDEST POP MOD SWAP1 JUMP JUMPDEST DUP1 DUP3 MUL DUP2 ISZERO DUP3 DUP3 DIV DUP5 EQ OR PUSH2 0xC7F JUMPI PUSH2 0xC7F PUSH2 0xE03 JUMP INVALID LOG2 PUSH5 0x6970667358 0x22 SLT KECCAK256 0x1E SWAP16 LOG1 DUP2 DUP3 BLOCKHASH STATICCALL DUP1 CALLCODE 0xF8 0xF7 0x2D 0xC0 0xCB 0xEE 0xE3 INVALID PUSH26 0x8D4F94DA487C070D59FB4B4A2F6764736F6C6343000811003300 "},"gasEstimates":{"creation":{"codeDepositCost":"804600","executionCost":"838","totalCost":"805438"},"external":{"balanceOf(address)":"infinite","claimPrice()":"infinite","claimTicketSalesAmount()":"infinite","creator()":"2333","drawnTicket()":"54557","endTime()":"2346","initialize((address,address,address,uint256,uint256,uint256,uint64))":"infinite","isTicketDrawn()":"2376","maxSupply()":"2380","nftToWin()":"4556","ownerOf(uint256)":"2492","purchaseCurrency()":"2387","purchaseTickets(uint256)":"infinite","ticketPrice()":"2327","totalSupply()":"2382","winnerAddress()":"8908","winningTicket()":"6642"},"internal":{"_calculateTotalTicketsPrice(uint256)":"infinite"}},"methodIdentifiers":{"balanceOf(address)":"70a08231","claimPrice()":"15d655c9","claimTicketSalesAmount()":"636ed74c","creator()":"02d05d3f","drawnTicket()":"ccf1125c","endTime()":"3197cbb6","initialize((address,address,address,uint256,uint256,uint256,uint64))":"237be938","isTicketDrawn()":"32095a66","maxSupply()":"d5abeb01","nftToWin()":"3b398ff8","ownerOf(uint256)":"6352211e","purchaseCurrency()":"6a4a5b2d","purchaseTickets(uint256)":"a1277600","ticketPrice()":"1209b1f6","totalSupply()":"18160ddd","winnerAddress()":"ed7a4e0b","winningTicket()":"c26eea54"}},"storageLayout":{"storage":[{"astId":4984,"contract":"src/raffle/Raffle.sol:Raffle","label":"_ticketOwner","offset":0,"slot":"0","type":"t_mapping(t_uint256,t_address)"},{"astId":4989,"contract":"src/raffle/Raffle.sol:Raffle","label":"_ownerTickets","offset":0,"slot":"1","type":"t_mapping(t_address,t_array(t_uint256)dyn_storage)"},{"astId":4992,"contract":"src/raffle/Raffle.sol:Raffle","label":"_globalData","offset":0,"slot":"2","type":"t_struct(RaffleData)4957_storage"},{"astId":395,"contract":"src/raffle/Raffle.sol:Raffle","label":"_initialized","offset":0,"slot":"11","type":"t_uint8"},{"astId":398,"contract":"src/raffle/Raffle.sol:Raffle","label":"_initializing","offset":1,"slot":"11","type":"t_bool"}],"types":{"t_address":{"encoding":"inplace","label":"address","numberOfBytes":"20"},"t_array(t_uint256)dyn_storage":{"base":"t_uint256","encoding":"dynamic_array","label":"uint256[]","numberOfBytes":"32"},"t_bool":{"encoding":"inplace","label":"bool","numberOfBytes":"1"},"t_contract(IERC20)1222":{"encoding":"inplace","label":"contract IERC20","numberOfBytes":"20"},"t_contract(IERC721)2308":{"encoding":"inplace","label":"contract IERC721","numberOfBytes":"20"},"t_mapping(t_address,t_array(t_uint256)dyn_storage)":{"encoding":"mapping","key":"t_address","label":"mapping(address => uint256[])","numberOfBytes":"32","value":"t_array(t_uint256)dyn_storage"},"t_mapping(t_uint256,t_address)":{"encoding":"mapping","key":"t_uint256","label":"mapping(uint256 => address)","numberOfBytes":"32","value":"t_address"},"t_struct(RaffleData)4957_storage":{"encoding":"inplace","label":"struct RaffleDataTypes.RaffleData","members":[{"astId":4936,"contract":"src/raffle/Raffle.sol:Raffle","label":"creator","offset":0,"slot":"0","type":"t_address"},{"astId":4939,"contract":"src/raffle/Raffle.sol:Raffle","label":"purchaseCurrency","offset":0,"slot":"1","type":"t_contract(IERC20)1222"},{"astId":4942,"contract":"src/raffle/Raffle.sol:Raffle","label":"nftContract","offset":0,"slot":"2","type":"t_contract(IERC721)2308"},{"astId":4944,"contract":"src/raffle/Raffle.sol:Raffle","label":"nftId","offset":0,"slot":"3","type":"t_uint256"},{"astId":4946,"contract":"src/raffle/Raffle.sol:Raffle","label":"maxTicketSupply","offset":0,"slot":"4","type":"t_uint256"},{"astId":4948,"contract":"src/raffle/Raffle.sol:Raffle","label":"ticketSupply","offset":0,"slot":"5","type":"t_uint256"},{"astId":4950,"contract":"src/raffle/Raffle.sol:Raffle","label":"ticketPrice","offset":0,"slot":"6","type":"t_uint256"},{"astId":4952,"contract":"src/raffle/Raffle.sol:Raffle","label":"winningTicketNumber","offset":0,"slot":"7","type":"t_uint256"},{"astId":4954,"contract":"src/raffle/Raffle.sol:Raffle","label":"endTime","offset":0,"slot":"8","type":"t_uint64"},{"astId":4956,"contract":"src/raffle/Raffle.sol:Raffle","label":"isTicketDrawn","offset":8,"slot":"8","type":"t_bool"}],"numberOfBytes":"288"},"t_uint256":{"encoding":"inplace","label":"uint256","numberOfBytes":"32"},"t_uint64":{"encoding":"inplace","label":"uint64","numberOfBytes":"8"},"t_uint8":{"encoding":"inplace","label":"uint8","numberOfBytes":"1"}}},"userdoc":{"kind":"user","methods":{"balanceOf(address)":{"notice":"get all tickets number bought by a user"},"claimPrice()":{"notice":"Allows the winner to claim his price"},"claimTicketSalesAmount()":{"notice":"Allows the creator to claim the amount related to the ticket sales"},"creator()":{"notice":"get the address of the wallet that initiated the raffle"},"drawnTicket()":{"notice":"Allows to drawn a ticket randommly"},"endTime()":{"notice":"get the end time before ticket sales closing"},"isTicketDrawn()":{"notice":"get info if the winning ticket has been drawn"},"maxSupply()":{"notice":"get the max amount of tickets that can be sold"},"nftToWin()":{"notice":"get the information regarding the nft to win"},"ownerOf(uint256)":{"notice":"get the wallet that bought a specific ticket number"},"purchaseCurrency()":{"notice":"get the address of the token used to buy tickets"},"purchaseTickets(uint256)":{"notice":"Allows users to purchase tickets"},"ticketPrice()":{"notice":"get the price of one ticket"},"totalSupply()":{"notice":"get the total amount of tickets sold"},"winnerAddress()":{"notice":"get the winner address"},"winningTicket()":{"notice":"get the winning ticket number"}},"version":1}}}}