{"src/libraries/helpers/ImplementationInterfaceNames.sol":{"ImplementationInterfaceNames":{"abi":[{"inputs":[],"name":"AccessController","outputs":[{"internalType":"bytes32","name":"","type":"bytes32"}],"stateMutability":"view","type":"function"}],"devdoc":{"kind":"dev","methods":{},"version":1},"evm":{"bytecode":{"linkReferences":{},"object":"6099610038600b82828239805160001a607314602b57634e487b7160e01b600052600060045260246000fd5b30600052607381538281f3fe730000000000000000000000000000000000000000301460806040526004361060335760003560e01c8063d4fc8823146038575b600080fd5b60516f20b1b1b2b9b9a1b7b73a3937b63632b960811b81565b60405190815260200160405180910390f3fea2646970667358221220ac6f6510a92d14995f9f750c29677bcc272b7c21a5d6fc0c27970a792e05967764736f6c63430008110033","opcodes":"PUSH1 0x99 PUSH2 0x38 PUSH1 0xB DUP3 DUP3 DUP3 CODECOPY DUP1 MLOAD PUSH1 0x0 BYTE PUSH1 0x73 EQ PUSH1 0x2B JUMPI PUSH4 0x4E487B71 PUSH1 0xE0 SHL PUSH1 0x0 MSTORE PUSH1 0x0 PUSH1 0x4 MSTORE PUSH1 0x24 PUSH1 0x0 REVERT JUMPDEST ADDRESS PUSH1 0x0 MSTORE PUSH1 0x73 DUP2 MSTORE8 DUP3 DUP2 RETURN INVALID PUSH20 0x0 ADDRESS EQ PUSH1 0x80 PUSH1 0x40 MSTORE PUSH1 0x4 CALLDATASIZE LT PUSH1 0x33 JUMPI PUSH1 0x0 CALLDATALOAD PUSH1 0xE0 SHR DUP1 PUSH4 0xD4FC8823 EQ PUSH1 0x38 JUMPI JUMPDEST PUSH1 0x0 DUP1 REVERT JUMPDEST PUSH1 0x51 PUSH16 0x20B1B1B2B9B9A1B7B73A3937B63632B9 PUSH1 0x81 SHL DUP2 JUMP JUMPDEST PUSH1 0x40 MLOAD SWAP1 DUP2 MSTORE PUSH1 0x20 ADD PUSH1 0x40 MLOAD DUP1 SWAP2 SUB SWAP1 RETURN INVALID LOG2 PUSH5 0x6970667358 0x22 SLT KECCAK256 0xAC PUSH16 0x6510A92D14995F9F750C29677BCC272B PUSH29 0x21A5D6FC0C27970A792E05967764736F6C634300081100330000000000 "},"gasEstimates":{"creation":{"codeDepositCost":"30600","executionCost":"115","totalCost":"30715"},"external":{"AccessController()":"151"}},"methodIdentifiers":{"AccessController()":"d4fc8823"}},"storageLayout":{"storage":[],"types":null},"userdoc":{"kind":"user","methods":{},"version":1}}}}