{"src/core/RandomProvider.sol":{"RandomProvider":{"abi":[{"inputs":[{"internalType":"contract IImplementationManager","name":"_implementationManager","type":"address"},{"components":[{"internalType":"address","name":"vrfCoordinator","type":"address"},{"internalType":"bytes32","name":"keyHash","type":"bytes32"},{"internalType":"uint32","name":"callbackGasLimit","type":"uint32"},{"internalType":"uint16","name":"requestConfirmations","type":"uint16"},{"internalType":"uint64","name":"subscriptionId","type":"uint64"}],"internalType":"struct RandomProvider.ChainlinkVRFData","name":"_data","type":"tuple"}],"stateMutability":"nonpayable","type":"constructor"},{"inputs":[],"name":"NOT_RAFFLE_CONTRACT","type":"error"},{"inputs":[{"internalType":"address","name":"have","type":"address"},{"internalType":"address","name":"want","type":"address"}],"name":"OnlyCoordinatorCanFulfill","type":"error"},{"inputs":[],"name":"COORDINATOR","outputs":[{"internalType":"contract VRFCoordinatorV2Interface","name":"","type":"address"}],"stateMutability":"view","type":"function"},{"inputs":[],"name":"chainlinkVRFData","outputs":[{"internalType":"address","name":"vrfCoordinator","type":"address"},{"internalType":"bytes32","name":"keyHash","type":"bytes32"},{"internalType":"uint32","name":"callbackGasLimit","type":"uint32"},{"internalType":"uint16","name":"requestConfirmations","type":"uint16"},{"internalType":"uint64","name":"subscriptionId","type":"uint64"}],"stateMutability":"view","type":"function"},{"inputs":[],"name":"implementationManager","outputs":[{"internalType":"contract IImplementationManager","name":"","type":"address"}],"stateMutability":"view","type":"function"},{"inputs":[{"internalType":"uint256","name":"requestId","type":"uint256"},{"internalType":"uint256[]","name":"randomWords","type":"uint256[]"}],"name":"rawFulfillRandomWords","outputs":[],"stateMutability":"nonpayable","type":"function"},{"inputs":[{"internalType":"uint256","name":"","type":"uint256"}],"name":"requestIdToAddress","outputs":[{"internalType":"address","name":"","type":"address"}],"stateMutability":"view","type":"function"},{"inputs":[],"name":"requestRandomNumber","outputs":[],"stateMutability":"nonpayable","type":"function"}],"devdoc":{"kind":"dev","methods":{},"version":1},"evm":{"bytecode":{"linkReferences":{},"object":"60a060405234801561001057600080fd5b506040516107ca3803806107ca83398101604081905261002f9161014b565b80516001600160a01b039081166080908152600180549483166001600160a01b0319958616179055825160008054919093169085168117909255600280549094169091179092556020810151600355604081015160048054606084015194909301516001600160401b0316660100000000000002600160301b600160701b031961ffff9095166401000000000265ffffffffffff1990941663ffffffff909316929092179290921792909216919091179055610208565b6001600160a01b03811681146100fb57600080fd5b50565b8051610109816100e6565b919050565b805163ffffffff8116811461010957600080fd5b805161ffff8116811461010957600080fd5b80516001600160401b038116811461010957600080fd5b60008082840360c081121561015f57600080fd5b835161016a816100e6565b925060a0601f198201121561017e57600080fd5b5060405160a081016001600160401b03811182821017156101af57634e487b7160e01b600052604160045260246000fd5b6040526101be602085016100fe565b8152604084015160208201526101d66060850161010e565b60408201526101e760808501610122565b60608201526101f860a08501610134565b6080820152809150509250929050565b6080516105a061022a6000396000818161018901526101cb01526105a06000f3fe608060405234801561001057600080fd5b50600436106100625760003560e01c80631fe543e3146100675780632bafa11b1461007c5780633b2bcbf1146100ac578063637c4320146100bf5780637ef9af4e146100e85780638678a7b214610176575b600080fd5b61007a610075366004610428565b61017e565b005b60015461008f906001600160a01b031681565b6040516001600160a01b0390911681526020015b60405180910390f35b60005461008f906001600160a01b031681565b61008f6100cd3660046104f2565b6005602052600090815260409020546001600160a01b031681565b60025460035460045461012c926001600160a01b0316919063ffffffff811690640100000000810461ffff16906601000000000000900467ffffffffffffffff1685565b604080516001600160a01b039096168652602086019490945263ffffffff9092169284019290925261ffff909116606083015267ffffffffffffffff16608082015260a0016100a3565b61007a61020a565b336001600160a01b037f000000000000000000000000000000000000000000000000000000000000000016146101fc5760405163073e64fd60e21b81523360048201526001600160a01b037f000000000000000000000000000000000000000000000000000000000000000016602482015260440160405180910390fd5b6102068282610384565b5050565b6001546040516302abf57960e61b81526d149859999b1950dbdb9d1c9858dd60921b600482015233916001600160a01b03169063aafd5e4090602401602060405180830381865afa158015610263573d6000803e3d6000fd5b505050506040513d601f19601f82011682018060405250810190610287919061050b565b6001600160a01b0316146102ae57604051635b4a90ad60e11b815260040160405180910390fd5b60008054600354600480546040516305d3b1d360e41b8152918201929092526601000000000000820467ffffffffffffffff166024820152640100000000820461ffff16604482015263ffffffff9091166064820152600160848201526001600160a01b0390911690635d3b1d309060a4016020604051808303816000875af115801561033f573d6000803e3d6000fd5b505050506040513d601f19601f82011682018060405250810190610363919061053b565b600090815260056020526040902080546001600160a01b0319163317905550565b60008281526005602052604081205482516001600160a01b03909116916387409f3c918491906103b6576103b6610554565b60200260200101516040518263ffffffff1660e01b81526004016103dc91815260200190565b600060405180830381600087803b1580156103f657600080fd5b505af115801561040a573d6000803e3d6000fd5b505050505050565b634e487b7160e01b600052604160045260246000fd5b6000806040838503121561043b57600080fd5b8235915060208084013567ffffffffffffffff8082111561045b57600080fd5b818601915086601f83011261046f57600080fd5b81358181111561048157610481610412565b8060051b604051601f19603f830116810181811085821117156104a6576104a6610412565b6040529182528482019250838101850191898311156104c457600080fd5b938501935b828510156104e2578435845293850193928501926104c9565b8096505050505050509250929050565b60006020828403121561050457600080fd5b5035919050565b60006020828403121561051d57600080fd5b81516001600160a01b038116811461053457600080fd5b9392505050565b60006020828403121561054d57600080fd5b5051919050565b634e487b7160e01b600052603260045260246000fdfea26469706673582212203ee5a2aef1200af8ee84ac3b3805e30690bb8aa0c7c44aca67beeea6b97b647264736f6c63430008110033","opcodes":"PUSH1 0xA0 PUSH1 0x40 MSTORE CALLVALUE DUP1 ISZERO PUSH2 0x10 JUMPI PUSH1 0x0 DUP1 REVERT JUMPDEST POP PUSH1 0x40 MLOAD PUSH2 0x7CA CODESIZE SUB DUP1 PUSH2 0x7CA DUP4 CODECOPY DUP2 ADD PUSH1 0x40 DUP2 SWAP1 MSTORE PUSH2 0x2F SWAP2 PUSH2 0x14B JUMP JUMPDEST DUP1 MLOAD PUSH1 0x1 PUSH1 0x1 PUSH1 0xA0 SHL SUB SWAP1 DUP2 AND PUSH1 0x80 SWAP1 DUP2 MSTORE PUSH1 0x1 DUP1 SLOAD SWAP5 DUP4 AND PUSH1 0x1 PUSH1 0x1 PUSH1 0xA0 SHL SUB NOT SWAP6 DUP7 AND OR SWAP1 SSTORE DUP3 MLOAD PUSH1 0x0 DUP1 SLOAD SWAP2 SWAP1 SWAP4 AND SWAP1 DUP6 AND DUP2 OR SWAP1 SWAP3 SSTORE PUSH1 0x2 DUP1 SLOAD SWAP1 SWAP5 AND SWAP1 SWAP2 OR SWAP1 SWAP3 SSTORE PUSH1 0x20 DUP2 ADD MLOAD PUSH1 0x3 SSTORE PUSH1 0x40 DUP2 ADD MLOAD PUSH1 0x4 DUP1 SLOAD PUSH1 0x60 DUP5 ADD MLOAD SWAP5 SWAP1 SWAP4 ADD MLOAD PUSH1 0x1 PUSH1 0x1 PUSH1 0x40 SHL SUB AND PUSH7 0x1000000000000 MUL PUSH1 0x1 PUSH1 0x30 SHL PUSH1 0x1 PUSH1 0x70 SHL SUB NOT PUSH2 0xFFFF SWAP1 SWAP6 AND PUSH5 0x100000000 MUL PUSH6 0xFFFFFFFFFFFF NOT SWAP1 SWAP5 AND PUSH4 0xFFFFFFFF SWAP1 SWAP4 AND SWAP3 SWAP1 SWAP3 OR SWAP3 SWAP1 SWAP3 OR SWAP3 SWAP1 SWAP3 AND SWAP2 SWAP1 SWAP2 OR SWAP1 SSTORE PUSH2 0x208 JUMP JUMPDEST PUSH1 0x1 PUSH1 0x1 PUSH1 0xA0 SHL SUB DUP2 AND DUP2 EQ PUSH2 0xFB JUMPI PUSH1 0x0 DUP1 REVERT JUMPDEST POP JUMP JUMPDEST DUP1 MLOAD PUSH2 0x109 DUP2 PUSH2 0xE6 JUMP JUMPDEST SWAP2 SWAP1 POP JUMP JUMPDEST DUP1 MLOAD PUSH4 0xFFFFFFFF DUP2 AND DUP2 EQ PUSH2 0x109 JUMPI PUSH1 0x0 DUP1 REVERT JUMPDEST DUP1 MLOAD PUSH2 0xFFFF DUP2 AND DUP2 EQ PUSH2 0x109 JUMPI PUSH1 0x0 DUP1 REVERT JUMPDEST DUP1 MLOAD PUSH1 0x1 PUSH1 0x1 PUSH1 0x40 SHL SUB DUP2 AND DUP2 EQ PUSH2 0x109 JUMPI PUSH1 0x0 DUP1 REVERT JUMPDEST PUSH1 0x0 DUP1 DUP3 DUP5 SUB PUSH1 0xC0 DUP2 SLT ISZERO PUSH2 0x15F JUMPI PUSH1 0x0 DUP1 REVERT JUMPDEST DUP4 MLOAD PUSH2 0x16A DUP2 PUSH2 0xE6 JUMP JUMPDEST SWAP3 POP PUSH1 0xA0 PUSH1 0x1F NOT DUP3 ADD SLT ISZERO PUSH2 0x17E JUMPI PUSH1 0x0 DUP1 REVERT JUMPDEST POP PUSH1 0x40 MLOAD PUSH1 0xA0 DUP2 ADD PUSH1 0x1 PUSH1 0x1 PUSH1 0x40 SHL SUB DUP2 GT DUP3 DUP3 LT OR ISZERO PUSH2 0x1AF JUMPI PUSH4 0x4E487B71 PUSH1 0xE0 SHL PUSH1 0x0 MSTORE PUSH1 0x41 PUSH1 0x4 MSTORE PUSH1 0x24 PUSH1 0x0 REVERT JUMPDEST PUSH1 0x40 MSTORE PUSH2 0x1BE PUSH1 0x20 DUP6 ADD PUSH2 0xFE JUMP JUMPDEST DUP2 MSTORE PUSH1 0x40 DUP5 ADD MLOAD PUSH1 0x20 DUP3 ADD MSTORE PUSH2 0x1D6 PUSH1 0x60 DUP6 ADD PUSH2 0x10E JUMP JUMPDEST PUSH1 0x40 DUP3 ADD MSTORE PUSH2 0x1E7 PUSH1 0x80 DUP6 ADD PUSH2 0x122 JUMP JUMPDEST PUSH1 0x60 DUP3 ADD MSTORE PUSH2 0x1F8 PUSH1 0xA0 DUP6 ADD PUSH2 0x134 JUMP JUMPDEST PUSH1 0x80 DUP3 ADD MSTORE DUP1 SWAP2 POP POP SWAP3 POP SWAP3 SWAP1 POP JUMP JUMPDEST PUSH1 0x80 MLOAD PUSH2 0x5A0 PUSH2 0x22A PUSH1 0x0 CODECOPY PUSH1 0x0 DUP2 DUP2 PUSH2 0x189 ADD MSTORE PUSH2 0x1CB ADD MSTORE PUSH2 0x5A0 PUSH1 0x0 RETURN INVALID PUSH1 0x80 PUSH1 0x40 MSTORE CALLVALUE DUP1 ISZERO PUSH2 0x10 JUMPI PUSH1 0x0 DUP1 REVERT JUMPDEST POP PUSH1 0x4 CALLDATASIZE LT PUSH2 0x62 JUMPI PUSH1 0x0 CALLDATALOAD PUSH1 0xE0 SHR DUP1 PUSH4 0x1FE543E3 EQ PUSH2 0x67 JUMPI DUP1 PUSH4 0x2BAFA11B EQ PUSH2 0x7C JUMPI DUP1 PUSH4 0x3B2BCBF1 EQ PUSH2 0xAC JUMPI DUP1 PUSH4 0x637C4320 EQ PUSH2 0xBF JUMPI DUP1 PUSH4 0x7EF9AF4E EQ PUSH2 0xE8 JUMPI DUP1 PUSH4 0x8678A7B2 EQ PUSH2 0x176 JUMPI JUMPDEST PUSH1 0x0 DUP1 REVERT JUMPDEST PUSH2 0x7A PUSH2 0x75 CALLDATASIZE PUSH1 0x4 PUSH2 0x428 JUMP JUMPDEST PUSH2 0x17E JUMP JUMPDEST STOP JUMPDEST PUSH1 0x1 SLOAD PUSH2 0x8F SWAP1 PUSH1 0x1 PUSH1 0x1 PUSH1 0xA0 SHL SUB AND DUP2 JUMP JUMPDEST PUSH1 0x40 MLOAD PUSH1 0x1 PUSH1 0x1 PUSH1 0xA0 SHL SUB SWAP1 SWAP2 AND DUP2 MSTORE PUSH1 0x20 ADD JUMPDEST PUSH1 0x40 MLOAD DUP1 SWAP2 SUB SWAP1 RETURN JUMPDEST PUSH1 0x0 SLOAD PUSH2 0x8F SWAP1 PUSH1 0x1 PUSH1 0x1 PUSH1 0xA0 SHL SUB AND DUP2 JUMP JUMPDEST PUSH2 0x8F PUSH2 0xCD CALLDATASIZE PUSH1 0x4 PUSH2 0x4F2 JUMP JUMPDEST PUSH1 0x5 PUSH1 0x20 MSTORE PUSH1 0x0 SWAP1 DUP2 MSTORE PUSH1 0x40 SWAP1 KECCAK256 SLOAD PUSH1 0x1 PUSH1 0x1 PUSH1 0xA0 SHL SUB AND DUP2 JUMP JUMPDEST PUSH1 0x2 SLOAD PUSH1 0x3 SLOAD PUSH1 0x4 SLOAD PUSH2 0x12C SWAP3 PUSH1 0x1 PUSH1 0x1 PUSH1 0xA0 SHL SUB AND SWAP2 SWAP1 PUSH4 0xFFFFFFFF DUP2 AND SWAP1 PUSH5 0x100000000 DUP2 DIV PUSH2 0xFFFF AND SWAP1 PUSH7 0x1000000000000 SWAP1 DIV PUSH8 0xFFFFFFFFFFFFFFFF AND DUP6 JUMP JUMPDEST PUSH1 0x40 DUP1 MLOAD PUSH1 0x1 PUSH1 0x1 PUSH1 0xA0 SHL SUB SWAP1 SWAP7 AND DUP7 MSTORE PUSH1 0x20 DUP7 ADD SWAP5 SWAP1 SWAP5 MSTORE PUSH4 0xFFFFFFFF SWAP1 SWAP3 AND SWAP3 DUP5 ADD SWAP3 SWAP1 SWAP3 MSTORE PUSH2 0xFFFF SWAP1 SWAP2 AND PUSH1 0x60 DUP4 ADD MSTORE PUSH8 0xFFFFFFFFFFFFFFFF AND PUSH1 0x80 DUP3 ADD MSTORE PUSH1 0xA0 ADD PUSH2 0xA3 JUMP JUMPDEST PUSH2 0x7A PUSH2 0x20A JUMP JUMPDEST CALLER PUSH1 0x1 PUSH1 0x1 PUSH1 0xA0 SHL SUB PUSH32 0x0 AND EQ PUSH2 0x1FC JUMPI PUSH1 0x40 MLOAD PUSH4 0x73E64FD PUSH1 0xE2 SHL DUP2 MSTORE CALLER PUSH1 0x4 DUP3 ADD MSTORE PUSH1 0x1 PUSH1 0x1 PUSH1 0xA0 SHL SUB PUSH32 0x0 AND PUSH1 0x24 DUP3 ADD MSTORE PUSH1 0x44 ADD PUSH1 0x40 MLOAD DUP1 SWAP2 SUB SWAP1 REVERT JUMPDEST PUSH2 0x206 DUP3 DUP3 PUSH2 0x384 JUMP JUMPDEST POP POP JUMP JUMPDEST PUSH1 0x1 SLOAD PUSH1 0x40 MLOAD PUSH4 0x2ABF579 PUSH1 0xE6 SHL DUP2 MSTORE PUSH14 0x149859999B1950DBDB9D1C9858DD PUSH1 0x92 SHL PUSH1 0x4 DUP3 ADD MSTORE CALLER SWAP2 PUSH1 0x1 PUSH1 0x1 PUSH1 0xA0 SHL SUB AND SWAP1 PUSH4 0xAAFD5E40 SWAP1 PUSH1 0x24 ADD PUSH1 0x20 PUSH1 0x40 MLOAD DUP1 DUP4 SUB DUP2 DUP7 GAS STATICCALL ISZERO DUP1 ISZERO PUSH2 0x263 JUMPI RETURNDATASIZE PUSH1 0x0 DUP1 RETURNDATACOPY RETURNDATASIZE PUSH1 0x0 REVERT JUMPDEST POP POP POP POP PUSH1 0x40 MLOAD RETURNDATASIZE PUSH1 0x1F NOT PUSH1 0x1F DUP3 ADD AND DUP3 ADD DUP1 PUSH1 0x40 MSTORE POP DUP2 ADD SWAP1 PUSH2 0x287 SWAP2 SWAP1 PUSH2 0x50B JUMP JUMPDEST PUSH1 0x1 PUSH1 0x1 PUSH1 0xA0 SHL SUB AND EQ PUSH2 0x2AE JUMPI PUSH1 0x40 MLOAD PUSH4 0x5B4A90AD PUSH1 0xE1 SHL DUP2 MSTORE PUSH1 0x4 ADD PUSH1 0x40 MLOAD DUP1 SWAP2 SUB SWAP1 REVERT JUMPDEST PUSH1 0x0 DUP1 SLOAD PUSH1 0x3 SLOAD PUSH1 0x4 DUP1 SLOAD PUSH1 0x40 MLOAD PUSH4 0x5D3B1D3 PUSH1 0xE4 SHL DUP2 MSTORE SWAP2 DUP3 ADD SWAP3 SWAP1 SWAP3 MSTORE PUSH7 0x1000000000000 DUP3 DIV PUSH8 0xFFFFFFFFFFFFFFFF AND PUSH1 0x24 DUP3 ADD MSTORE PUSH5 0x100000000 DUP3 DIV PUSH2 0xFFFF AND PUSH1 0x44 DUP3 ADD MSTORE PUSH4 0xFFFFFFFF SWAP1 SWAP2 AND PUSH1 0x64 DUP3 ADD MSTORE PUSH1 0x1 PUSH1 0x84 DUP3 ADD MSTORE PUSH1 0x1 PUSH1 0x1 PUSH1 0xA0 SHL SUB SWAP1 SWAP2 AND SWAP1 PUSH4 0x5D3B1D30 SWAP1 PUSH1 0xA4 ADD PUSH1 0x20 PUSH1 0x40 MLOAD DUP1 DUP4 SUB DUP2 PUSH1 0x0 DUP8 GAS CALL ISZERO DUP1 ISZERO PUSH2 0x33F JUMPI RETURNDATASIZE PUSH1 0x0 DUP1 RETURNDATACOPY RETURNDATASIZE PUSH1 0x0 REVERT JUMPDEST POP POP POP POP PUSH1 0x40 MLOAD RETURNDATASIZE PUSH1 0x1F NOT PUSH1 0x1F DUP3 ADD AND DUP3 ADD DUP1 PUSH1 0x40 MSTORE POP DUP2 ADD SWAP1 PUSH2 0x363 SWAP2 SWAP1 PUSH2 0x53B JUMP JUMPDEST PUSH1 0x0 SWAP1 DUP2 MSTORE PUSH1 0x5 PUSH1 0x20 MSTORE PUSH1 0x40 SWAP1 KECCAK256 DUP1 SLOAD PUSH1 0x1 PUSH1 0x1 PUSH1 0xA0 SHL SUB NOT AND CALLER OR SWAP1 SSTORE POP JUMP JUMPDEST PUSH1 0x0 DUP3 DUP2 MSTORE PUSH1 0x5 PUSH1 0x20 MSTORE PUSH1 0x40 DUP2 KECCAK256 SLOAD DUP3 MLOAD PUSH1 0x1 PUSH1 0x1 PUSH1 0xA0 SHL SUB SWAP1 SWAP2 AND SWAP2 PUSH4 0x87409F3C SWAP2 DUP5 SWAP2 SWAP1 PUSH2 0x3B6 JUMPI PUSH2 0x3B6 PUSH2 0x554 JUMP JUMPDEST PUSH1 0x20 MUL PUSH1 0x20 ADD ADD MLOAD PUSH1 0x40 MLOAD DUP3 PUSH4 0xFFFFFFFF AND PUSH1 0xE0 SHL DUP2 MSTORE PUSH1 0x4 ADD PUSH2 0x3DC SWAP2 DUP2 MSTORE PUSH1 0x20 ADD SWAP1 JUMP JUMPDEST PUSH1 0x0 PUSH1 0x40 MLOAD DUP1 DUP4 SUB DUP2 PUSH1 0x0 DUP8 DUP1 EXTCODESIZE ISZERO DUP1 ISZERO PUSH2 0x3F6 JUMPI PUSH1 0x0 DUP1 REVERT JUMPDEST POP GAS CALL ISZERO DUP1 ISZERO PUSH2 0x40A JUMPI RETURNDATASIZE PUSH1 0x0 DUP1 RETURNDATACOPY RETURNDATASIZE PUSH1 0x0 REVERT JUMPDEST POP POP POP POP POP POP JUMP JUMPDEST PUSH4 0x4E487B71 PUSH1 0xE0 SHL PUSH1 0x0 MSTORE PUSH1 0x41 PUSH1 0x4 MSTORE PUSH1 0x24 PUSH1 0x0 REVERT JUMPDEST PUSH1 0x0 DUP1 PUSH1 0x40 DUP4 DUP6 SUB SLT ISZERO PUSH2 0x43B JUMPI PUSH1 0x0 DUP1 REVERT JUMPDEST DUP3 CALLDATALOAD SWAP2 POP PUSH1 0x20 DUP1 DUP5 ADD CALLDATALOAD PUSH8 0xFFFFFFFFFFFFFFFF DUP1 DUP3 GT ISZERO PUSH2 0x45B JUMPI PUSH1 0x0 DUP1 REVERT JUMPDEST DUP2 DUP7 ADD SWAP2 POP DUP7 PUSH1 0x1F DUP4 ADD SLT PUSH2 0x46F JUMPI PUSH1 0x0 DUP1 REVERT JUMPDEST DUP2 CALLDATALOAD DUP2 DUP2 GT ISZERO PUSH2 0x481 JUMPI PUSH2 0x481 PUSH2 0x412 JUMP JUMPDEST DUP1 PUSH1 0x5 SHL PUSH1 0x40 MLOAD PUSH1 0x1F NOT PUSH1 0x3F DUP4 ADD AND DUP2 ADD DUP2 DUP2 LT DUP6 DUP3 GT OR ISZERO PUSH2 0x4A6 JUMPI PUSH2 0x4A6 PUSH2 0x412 JUMP JUMPDEST PUSH1 0x40 MSTORE SWAP2 DUP3 MSTORE DUP5 DUP3 ADD SWAP3 POP DUP4 DUP2 ADD DUP6 ADD SWAP2 DUP10 DUP4 GT ISZERO PUSH2 0x4C4 JUMPI PUSH1 0x0 DUP1 REVERT JUMPDEST SWAP4 DUP6 ADD SWAP4 JUMPDEST DUP3 DUP6 LT ISZERO PUSH2 0x4E2 JUMPI DUP5 CALLDATALOAD DUP5 MSTORE SWAP4 DUP6 ADD SWAP4 SWAP3 DUP6 ADD SWAP3 PUSH2 0x4C9 JUMP JUMPDEST DUP1 SWAP7 POP POP POP POP POP POP POP SWAP3 POP SWAP3 SWAP1 POP JUMP JUMPDEST PUSH1 0x0 PUSH1 0x20 DUP3 DUP5 SUB SLT ISZERO PUSH2 0x504 JUMPI PUSH1 0x0 DUP1 REVERT JUMPDEST POP CALLDATALOAD SWAP2 SWAP1 POP JUMP JUMPDEST PUSH1 0x0 PUSH1 0x20 DUP3 DUP5 SUB SLT ISZERO PUSH2 0x51D JUMPI PUSH1 0x0 DUP1 REVERT JUMPDEST DUP2 MLOAD PUSH1 0x1 PUSH1 0x1 PUSH1 0xA0 SHL SUB DUP2 AND DUP2 EQ PUSH2 0x534 JUMPI PUSH1 0x0 DUP1 REVERT JUMPDEST SWAP4 SWAP3 POP POP POP JUMP JUMPDEST PUSH1 0x0 PUSH1 0x20 DUP3 DUP5 SUB SLT ISZERO PUSH2 0x54D JUMPI PUSH1 0x0 DUP1 REVERT JUMPDEST POP MLOAD SWAP2 SWAP1 POP JUMP JUMPDEST PUSH4 0x4E487B71 PUSH1 0xE0 SHL PUSH1 0x0 MSTORE PUSH1 0x32 PUSH1 0x4 MSTORE PUSH1 0x24 PUSH1 0x0 REVERT INVALID LOG2 PUSH5 0x6970667358 0x22 SLT KECCAK256 RETURNDATACOPY 0xE5 LOG2 0xAE CALL KECCAK256 EXP 0xF8 0xEE DUP5 0xAC EXTCODESIZE CODESIZE SDIV 0xE3 MOD SWAP1 0xBB DUP11 LOG0 0xC7 0xC4 0x4A 0xCA PUSH8 0xBEEEA6B97B647264 PUSH20 0x6F6C634300081100330000000000000000000000 "},"gasEstimates":{"creation":{"codeDepositCost":"288000","executionCost":"infinite","totalCost":"infinite"},"external":{"COORDINATOR()":"2348","chainlinkVRFData()":"6775","implementationManager()":"2326","rawFulfillRandomWords(uint256,uint256[])":"infinite","requestIdToAddress(uint256)":"2510","requestRandomNumber()":"infinite"},"internal":{"fulfillRandomWords(uint256,uint256[] memory)":"infinite"}},"methodIdentifiers":{"COORDINATOR()":"3b2bcbf1","chainlinkVRFData()":"7ef9af4e","implementationManager()":"2bafa11b","rawFulfillRandomWords(uint256,uint256[])":"1fe543e3","requestIdToAddress(uint256)":"637c4320","requestRandomNumber()":"8678a7b2"}},"storageLayout":{"storage":[{"astId":4275,"contract":"src/core/RandomProvider.sol:RandomProvider","label":"COORDINATOR","offset":0,"slot":"0","type":"t_contract(VRFCoordinatorV2Interface)153"},{"astId":4278,"contract":"src/core/RandomProvider.sol:RandomProvider","label":"implementationManager","offset":0,"slot":"1","type":"t_contract(IImplementationManager)4449"},{"astId":4281,"contract":"src/core/RandomProvider.sol:RandomProvider","label":"chainlinkVRFData","offset":0,"slot":"2","type":"t_struct(ChainlinkVRFData)4272_storage"},{"astId":4285,"contract":"src/core/RandomProvider.sol:RandomProvider","label":"requestIdToAddress","offset":0,"slot":"5","type":"t_mapping(t_uint256,t_address)"}],"types":{"t_address":{"encoding":"inplace","label":"address","numberOfBytes":"20"},"t_bytes32":{"encoding":"inplace","label":"bytes32","numberOfBytes":"32"},"t_contract(IImplementationManager)4449":{"encoding":"inplace","label":"contract IImplementationManager","numberOfBytes":"20"},"t_contract(VRFCoordinatorV2Interface)153":{"encoding":"inplace","label":"contract VRFCoordinatorV2Interface","numberOfBytes":"20"},"t_mapping(t_uint256,t_address)":{"encoding":"mapping","key":"t_uint256","label":"mapping(uint256 => address)","numberOfBytes":"32","value":"t_address"},"t_struct(ChainlinkVRFData)4272_storage":{"encoding":"inplace","label":"struct RandomProvider.ChainlinkVRFData","members":[{"astId":4263,"contract":"src/core/RandomProvider.sol:RandomProvider","label":"vrfCoordinator","offset":0,"slot":"0","type":"t_address"},{"astId":4265,"contract":"src/core/RandomProvider.sol:RandomProvider","label":"keyHash","offset":0,"slot":"1","type":"t_bytes32"},{"astId":4267,"contract":"src/core/RandomProvider.sol:RandomProvider","label":"callbackGasLimit","offset":0,"slot":"2","type":"t_uint32"},{"astId":4269,"contract":"src/core/RandomProvider.sol:RandomProvider","label":"requestConfirmations","offset":4,"slot":"2","type":"t_uint16"},{"astId":4271,"contract":"src/core/RandomProvider.sol:RandomProvider","label":"subscriptionId","offset":6,"slot":"2","type":"t_uint64"}],"numberOfBytes":"96"},"t_uint16":{"encoding":"inplace","label":"uint16","numberOfBytes":"2"},"t_uint256":{"encoding":"inplace","label":"uint256","numberOfBytes":"32"},"t_uint32":{"encoding":"inplace","label":"uint32","numberOfBytes":"4"},"t_uint64":{"encoding":"inplace","label":"uint64","numberOfBytes":"8"}}},"userdoc":{"kind":"user","methods":{"requestRandomNumber()":{"notice":"Request a random numbers using ChainLinkVRFv2"}},"version":1}}}}