{"src/core/ImplementationManager.sol":{"ImplementationManager":{"abi":[{"inputs":[{"internalType":"address","name":"_accessController","type":"address"}],"stateMutability":"nonpayable","type":"constructor"},{"inputs":[],"name":"IMPLEMENTATION_NOT_FOUND","type":"error"},{"inputs":[],"name":"NOT_MAINTAINER","type":"error"},{"anonymous":false,"inputs":[{"indexed":true,"internalType":"bytes32","name":"interfaceName","type":"bytes32"},{"indexed":true,"internalType":"address","name":"newImplementationAddress","type":"address"}],"name":"InterfaceImplementationChanged","type":"event"},{"inputs":[{"internalType":"bytes32","name":"interfaceName","type":"bytes32"},{"internalType":"address","name":"implementationAddress","type":"address"}],"name":"changeImplementationAddress","outputs":[],"stateMutability":"nonpayable","type":"function"},{"inputs":[{"internalType":"bytes32","name":"interfaceName","type":"bytes32"}],"name":"getImplementationAddress","outputs":[{"internalType":"address","name":"implementationAddress","type":"address"}],"stateMutability":"view","type":"function"},{"inputs":[{"internalType":"bytes32","name":"","type":"bytes32"}],"name":"interfacesImplemented","outputs":[{"internalType":"address","name":"","type":"address"}],"stateMutability":"view","type":"function"}],"devdoc":{"kind":"dev","methods":{"changeImplementationAddress(bytes32,address)":{"params":{"implementationAddress":"address of the deployed contract that implements the interface.","interfaceName":"bytes32 encoding of the interface name that is either changed or registered."}},"getImplementationAddress(bytes32)":{"params":{"interfaceName":"queried interface."},"returns":{"implementationAddress":"Address of the deployed contract that implements the interface."}}},"version":1},"evm":{"bytecode":{"linkReferences":{},"object":"608060405234801561001057600080fd5b5060405161041538038061041583398101604081905261002f9161008f565b6f20b1b1b2b9b9a1b7b73a3937b63632b960811b60009081526020527f5542d27f97c119ca499c404ca78083b3b2fa2b515dc902c5208a81c22feaac3d80546001600160a01b0319166001600160a01b03929092169190911790556100bf565b6000602082840312156100a157600080fd5b81516001600160a01b03811681146100b857600080fd5b9392505050565b610347806100ce6000396000f3fe608060405234801561001057600080fd5b50600436106100415760003560e01c806331f9665e14610046578063aafd5e401461005b578063cc48f4db1461008a575b600080fd5b61005961005436600461027a565b6100b3565b005b61006e6100693660046102b6565b61023f565b6040516001600160a01b03909116815260200160405180910390f35b61006e6100983660046102b6565b6000602081905290815260409020546001600160a01b031681565b6f20b1b1b2b9b9a1b7b73a3937b63632b960811b600090815260209081527f5542d27f97c119ca499c404ca78083b3b2fa2b515dc902c5208a81c22feaac3d5460408051633e1d089560e21b815290516001600160a01b039092169283926391d1485492849263f8742254926004808401938290030181865afa15801561013e573d6000803e3d6000fd5b505050506040513d601f19601f8201168201806040525081019061016291906102cf565b6040516001600160e01b031960e084901b1681526004810191909152336024820152604401602060405180830381865afa1580156101a4573d6000803e3d6000fd5b505050506040513d601f19601f820116820180604052508101906101c891906102e8565b6101e5576040516337ab45b760e01b815260040160405180910390fd5b60008381526020819052604080822080546001600160a01b0319166001600160a01b0386169081179091559051909185917fb29aa13e555039289e0513962835b00fcc6e4a265ae8f99e68e5b90d5406fe489190a3505050565b6000818152602081905260409020546001600160a01b031680610275576040516320a03dc760e01b815260040160405180910390fd5b919050565b6000806040838503121561028d57600080fd5b8235915060208301356001600160a01b03811681146102ab57600080fd5b809150509250929050565b6000602082840312156102c857600080fd5b5035919050565b6000602082840312156102e157600080fd5b5051919050565b6000602082840312156102fa57600080fd5b8151801515811461030a57600080fd5b939250505056fea26469706673582212207d1f6c1a7367e4fd03787cd14ed01e440d663045a15fc49944f2ba36d96540de64736f6c63430008110033","opcodes":"PUSH1 0x80 PUSH1 0x40 MSTORE CALLVALUE DUP1 ISZERO PUSH2 0x10 JUMPI PUSH1 0x0 DUP1 REVERT JUMPDEST POP PUSH1 0x40 MLOAD PUSH2 0x415 CODESIZE SUB DUP1 PUSH2 0x415 DUP4 CODECOPY DUP2 ADD PUSH1 0x40 DUP2 SWAP1 MSTORE PUSH2 0x2F SWAP2 PUSH2 0x8F JUMP JUMPDEST PUSH16 0x20B1B1B2B9B9A1B7B73A3937B63632B9 PUSH1 0x81 SHL PUSH1 0x0 SWAP1 DUP2 MSTORE PUSH1 0x20 MSTORE PUSH32 0x5542D27F97C119CA499C404CA78083B3B2FA2B515DC902C5208A81C22FEAAC3D DUP1 SLOAD PUSH1 0x1 PUSH1 0x1 PUSH1 0xA0 SHL SUB NOT AND PUSH1 0x1 PUSH1 0x1 PUSH1 0xA0 SHL SUB SWAP3 SWAP1 SWAP3 AND SWAP2 SWAP1 SWAP2 OR SWAP1 SSTORE PUSH2 0xBF JUMP JUMPDEST PUSH1 0x0 PUSH1 0x20 DUP3 DUP5 SUB SLT ISZERO PUSH2 0xA1 JUMPI PUSH1 0x0 DUP1 REVERT JUMPDEST DUP2 MLOAD PUSH1 0x1 PUSH1 0x1 PUSH1 0xA0 SHL SUB DUP2 AND DUP2 EQ PUSH2 0xB8 JUMPI PUSH1 0x0 DUP1 REVERT JUMPDEST SWAP4 SWAP3 POP POP POP JUMP JUMPDEST PUSH2 0x347 DUP1 PUSH2 0xCE PUSH1 0x0 CODECOPY PUSH1 0x0 RETURN INVALID PUSH1 0x80 PUSH1 0x40 MSTORE CALLVALUE DUP1 ISZERO PUSH2 0x10 JUMPI PUSH1 0x0 DUP1 REVERT JUMPDEST POP PUSH1 0x4 CALLDATASIZE LT PUSH2 0x41 JUMPI PUSH1 0x0 CALLDATALOAD PUSH1 0xE0 SHR DUP1 PUSH4 0x31F9665E EQ PUSH2 0x46 JUMPI DUP1 PUSH4 0xAAFD5E40 EQ PUSH2 0x5B JUMPI DUP1 PUSH4 0xCC48F4DB EQ PUSH2 0x8A JUMPI JUMPDEST PUSH1 0x0 DUP1 REVERT JUMPDEST PUSH2 0x59 PUSH2 0x54 CALLDATASIZE PUSH1 0x4 PUSH2 0x27A JUMP JUMPDEST PUSH2 0xB3 JUMP JUMPDEST STOP JUMPDEST PUSH2 0x6E PUSH2 0x69 CALLDATASIZE PUSH1 0x4 PUSH2 0x2B6 JUMP JUMPDEST PUSH2 0x23F JUMP JUMPDEST PUSH1 0x40 MLOAD PUSH1 0x1 PUSH1 0x1 PUSH1 0xA0 SHL SUB SWAP1 SWAP2 AND DUP2 MSTORE PUSH1 0x20 ADD PUSH1 0x40 MLOAD DUP1 SWAP2 SUB SWAP1 RETURN JUMPDEST PUSH2 0x6E PUSH2 0x98 CALLDATASIZE PUSH1 0x4 PUSH2 0x2B6 JUMP JUMPDEST PUSH1 0x0 PUSH1 0x20 DUP2 SWAP1 MSTORE SWAP1 DUP2 MSTORE PUSH1 0x40 SWAP1 KECCAK256 SLOAD PUSH1 0x1 PUSH1 0x1 PUSH1 0xA0 SHL SUB AND DUP2 JUMP JUMPDEST PUSH16 0x20B1B1B2B9B9A1B7B73A3937B63632B9 PUSH1 0x81 SHL PUSH1 0x0 SWAP1 DUP2 MSTORE PUSH1 0x20 SWAP1 DUP2 MSTORE PUSH32 0x5542D27F97C119CA499C404CA78083B3B2FA2B515DC902C5208A81C22FEAAC3D SLOAD PUSH1 0x40 DUP1 MLOAD PUSH4 0x3E1D0895 PUSH1 0xE2 SHL DUP2 MSTORE SWAP1 MLOAD PUSH1 0x1 PUSH1 0x1 PUSH1 0xA0 SHL SUB SWAP1 SWAP3 AND SWAP3 DUP4 SWAP3 PUSH4 0x91D14854 SWAP3 DUP5 SWAP3 PUSH4 0xF8742254 SWAP3 PUSH1 0x4 DUP1 DUP5 ADD SWAP4 DUP3 SWAP1 SUB ADD DUP2 DUP7 GAS STATICCALL ISZERO DUP1 ISZERO PUSH2 0x13E JUMPI RETURNDATASIZE PUSH1 0x0 DUP1 RETURNDATACOPY RETURNDATASIZE PUSH1 0x0 REVERT JUMPDEST POP POP POP POP PUSH1 0x40 MLOAD RETURNDATASIZE PUSH1 0x1F NOT PUSH1 0x1F DUP3 ADD AND DUP3 ADD DUP1 PUSH1 0x40 MSTORE POP DUP2 ADD SWAP1 PUSH2 0x162 SWAP2 SWAP1 PUSH2 0x2CF JUMP JUMPDEST PUSH1 0x40 MLOAD PUSH1 0x1 PUSH1 0x1 PUSH1 0xE0 SHL SUB NOT PUSH1 0xE0 DUP5 SWAP1 SHL AND DUP2 MSTORE PUSH1 0x4 DUP2 ADD SWAP2 SWAP1 SWAP2 MSTORE CALLER PUSH1 0x24 DUP3 ADD MSTORE PUSH1 0x44 ADD PUSH1 0x20 PUSH1 0x40 MLOAD DUP1 DUP4 SUB DUP2 DUP7 GAS STATICCALL ISZERO DUP1 ISZERO PUSH2 0x1A4 JUMPI RETURNDATASIZE PUSH1 0x0 DUP1 RETURNDATACOPY RETURNDATASIZE PUSH1 0x0 REVERT JUMPDEST POP POP POP POP PUSH1 0x40 MLOAD RETURNDATASIZE PUSH1 0x1F NOT PUSH1 0x1F DUP3 ADD AND DUP3 ADD DUP1 PUSH1 0x40 MSTORE POP DUP2 ADD SWAP1 PUSH2 0x1C8 SWAP2 SWAP1 PUSH2 0x2E8 JUMP JUMPDEST PUSH2 0x1E5 JUMPI PUSH1 0x40 MLOAD PUSH4 0x37AB45B7 PUSH1 0xE0 SHL DUP2 MSTORE PUSH1 0x4 ADD PUSH1 0x40 MLOAD DUP1 SWAP2 SUB SWAP1 REVERT JUMPDEST PUSH1 0x0 DUP4 DUP2 MSTORE PUSH1 0x20 DUP2 SWAP1 MSTORE PUSH1 0x40 DUP1 DUP3 KECCAK256 DUP1 SLOAD PUSH1 0x1 PUSH1 0x1 PUSH1 0xA0 SHL SUB NOT AND PUSH1 0x1 PUSH1 0x1 PUSH1 0xA0 SHL SUB DUP7 AND SWAP1 DUP2 OR SWAP1 SWAP2 SSTORE SWAP1 MLOAD SWAP1 SWAP2 DUP6 SWAP2 PUSH32 0xB29AA13E555039289E0513962835B00FCC6E4A265AE8F99E68E5B90D5406FE48 SWAP2 SWAP1 LOG3 POP POP POP JUMP JUMPDEST PUSH1 0x0 DUP2 DUP2 MSTORE PUSH1 0x20 DUP2 SWAP1 MSTORE PUSH1 0x40 SWAP1 KECCAK256 SLOAD PUSH1 0x1 PUSH1 0x1 PUSH1 0xA0 SHL SUB AND DUP1 PUSH2 0x275 JUMPI PUSH1 0x40 MLOAD PUSH4 0x20A03DC7 PUSH1 0xE0 SHL DUP2 MSTORE PUSH1 0x4 ADD PUSH1 0x40 MLOAD DUP1 SWAP2 SUB SWAP1 REVERT JUMPDEST SWAP2 SWAP1 POP JUMP JUMPDEST PUSH1 0x0 DUP1 PUSH1 0x40 DUP4 DUP6 SUB SLT ISZERO PUSH2 0x28D JUMPI PUSH1 0x0 DUP1 REVERT JUMPDEST DUP3 CALLDATALOAD SWAP2 POP PUSH1 0x20 DUP4 ADD CALLDATALOAD PUSH1 0x1 PUSH1 0x1 PUSH1 0xA0 SHL SUB DUP2 AND DUP2 EQ PUSH2 0x2AB JUMPI PUSH1 0x0 DUP1 REVERT JUMPDEST DUP1 SWAP2 POP POP SWAP3 POP SWAP3 SWAP1 POP JUMP JUMPDEST PUSH1 0x0 PUSH1 0x20 DUP3 DUP5 SUB SLT ISZERO PUSH2 0x2C8 JUMPI PUSH1 0x0 DUP1 REVERT JUMPDEST POP CALLDATALOAD SWAP2 SWAP1 POP JUMP JUMPDEST PUSH1 0x0 PUSH1 0x20 DUP3 DUP5 SUB SLT ISZERO PUSH2 0x2E1 JUMPI PUSH1 0x0 DUP1 REVERT JUMPDEST POP MLOAD SWAP2 SWAP1 POP JUMP JUMPDEST PUSH1 0x0 PUSH1 0x20 DUP3 DUP5 SUB SLT ISZERO PUSH2 0x2FA JUMPI PUSH1 0x0 DUP1 REVERT JUMPDEST DUP2 MLOAD DUP1 ISZERO ISZERO DUP2 EQ PUSH2 0x30A JUMPI PUSH1 0x0 DUP1 REVERT JUMPDEST SWAP4 SWAP3 POP POP POP JUMP INVALID LOG2 PUSH5 0x6970667358 0x22 SLT KECCAK256 PUSH30 0x1F6C1A7367E4FD03787CD14ED01E440D663045A15FC49944F2BA36D96540 0xDE PUSH5 0x736F6C6343 STOP ADDMOD GT STOP CALLER "},"gasEstimates":{"creation":{"codeDepositCost":"167800","executionCost":"infinite","totalCost":"infinite"},"external":{"changeImplementationAddress(bytes32,address)":"infinite","getImplementationAddress(bytes32)":"2502","interfacesImplemented(bytes32)":"2490"}},"methodIdentifiers":{"changeImplementationAddress(bytes32,address)":"31f9665e","getImplementationAddress(bytes32)":"aafd5e40","interfacesImplemented(bytes32)":"cc48f4db"}},"storageLayout":{"storage":[{"astId":4139,"contract":"src/core/ImplementationManager.sol:ImplementationManager","label":"interfacesImplemented","offset":0,"slot":"0","type":"t_mapping(t_bytes32,t_address)"}],"types":{"t_address":{"encoding":"inplace","label":"address","numberOfBytes":"20"},"t_bytes32":{"encoding":"inplace","label":"bytes32","numberOfBytes":"32"},"t_mapping(t_bytes32,t_address)":{"encoding":"mapping","key":"t_bytes32","label":"mapping(bytes32 => address)","numberOfBytes":"32","value":"t_address"}}},"userdoc":{"kind":"user","methods":{"changeImplementationAddress(bytes32,address)":{"notice":"Updates the address of the contract that implements `interfaceName`."},"getImplementationAddress(bytes32)":{"notice":"Gets the address of the contract that implements the given `interfaceName`."}},"version":1}}}}