{"src/mocks/MockRandomProvider.sol":{"MockRandomProvider":{"abi":[{"inputs":[{"internalType":"contract IRaffle","name":"_raffle","type":"address"}],"stateMutability":"nonpayable","type":"constructor"},{"inputs":[],"name":"requestRandomNumber","outputs":[],"stateMutability":"nonpayable","type":"function"},{"inputs":[],"name":"requestRandomNumberReturnZero","outputs":[],"stateMutability":"nonpayable","type":"function"}],"devdoc":{"kind":"dev","methods":{},"version":1},"evm":{"bytecode":{"linkReferences":{},"object":"608060405234801561001057600080fd5b5060405161020d38038061020d83398101604081905261002f91610054565b600080546001600160a01b0319166001600160a01b0392909216919091179055610084565b60006020828403121561006657600080fd5b81516001600160a01b038116811461007d57600080fd5b9392505050565b61017a806100936000396000f3fe608060405234801561001057600080fd5b50600436106100365760003560e01c8063075f22e31461003b5780638678a7b214610045575b600080fd5b61004361004d565b005b6100436100ad565b600080546040516321d027cf60e21b815260048101929092526001600160a01b0316906387409f3c90602401600060405180830381600087803b15801561009357600080fd5b505af11580156100a7573d6000803e3d6000fd5b50505050565b60006100ba60014361011d565b6000546040516321d027cf60e21b815291406004830181905292506001600160a01b0316906387409f3c90602401600060405180830381600087803b15801561010257600080fd5b505af1158015610116573d6000803e3d6000fd5b5050505050565b8181038181111561013e57634e487b7160e01b600052601160045260246000fd5b9291505056fea2646970667358221220cfc57bb8d652d92a6fd87cd75a62e1bc4befa18665ee47d78c5a9a459482444e64736f6c63430008110033","opcodes":"PUSH1 0x80 PUSH1 0x40 MSTORE CALLVALUE DUP1 ISZERO PUSH2 0x10 JUMPI PUSH1 0x0 DUP1 REVERT JUMPDEST POP PUSH1 0x40 MLOAD PUSH2 0x20D CODESIZE SUB DUP1 PUSH2 0x20D DUP4 CODECOPY DUP2 ADD PUSH1 0x40 DUP2 SWAP1 MSTORE PUSH2 0x2F SWAP2 PUSH2 0x54 JUMP JUMPDEST PUSH1 0x0 DUP1 SLOAD PUSH1 0x1 PUSH1 0x1 PUSH1 0xA0 SHL SUB NOT AND PUSH1 0x1 PUSH1 0x1 PUSH1 0xA0 SHL SUB SWAP3 SWAP1 SWAP3 AND SWAP2 SWAP1 SWAP2 OR SWAP1 SSTORE PUSH2 0x84 JUMP JUMPDEST PUSH1 0x0 PUSH1 0x20 DUP3 DUP5 SUB SLT ISZERO PUSH2 0x66 JUMPI PUSH1 0x0 DUP1 REVERT JUMPDEST DUP2 MLOAD PUSH1 0x1 PUSH1 0x1 PUSH1 0xA0 SHL SUB DUP2 AND DUP2 EQ PUSH2 0x7D JUMPI PUSH1 0x0 DUP1 REVERT JUMPDEST SWAP4 SWAP3 POP POP POP JUMP JUMPDEST PUSH2 0x17A DUP1 PUSH2 0x93 PUSH1 0x0 CODECOPY PUSH1 0x0 RETURN INVALID PUSH1 0x80 PUSH1 0x40 MSTORE CALLVALUE DUP1 ISZERO PUSH2 0x10 JUMPI PUSH1 0x0 DUP1 REVERT JUMPDEST POP PUSH1 0x4 CALLDATASIZE LT PUSH2 0x36 JUMPI PUSH1 0x0 CALLDATALOAD PUSH1 0xE0 SHR DUP1 PUSH4 0x75F22E3 EQ PUSH2 0x3B JUMPI DUP1 PUSH4 0x8678A7B2 EQ PUSH2 0x45 JUMPI JUMPDEST PUSH1 0x0 DUP1 REVERT JUMPDEST PUSH2 0x43 PUSH2 0x4D JUMP JUMPDEST STOP JUMPDEST PUSH2 0x43 PUSH2 0xAD JUMP JUMPDEST PUSH1 0x0 DUP1 SLOAD PUSH1 0x40 MLOAD PUSH4 0x21D027CF PUSH1 0xE2 SHL DUP2 MSTORE PUSH1 0x4 DUP2 ADD SWAP3 SWAP1 SWAP3 MSTORE PUSH1 0x1 PUSH1 0x1 PUSH1 0xA0 SHL SUB AND SWAP1 PUSH4 0x87409F3C SWAP1 PUSH1 0x24 ADD PUSH1 0x0 PUSH1 0x40 MLOAD DUP1 DUP4 SUB DUP2 PUSH1 0x0 DUP8 DUP1 EXTCODESIZE ISZERO DUP1 ISZERO PUSH2 0x93 JUMPI PUSH1 0x0 DUP1 REVERT JUMPDEST POP GAS CALL ISZERO DUP1 ISZERO PUSH2 0xA7 JUMPI RETURNDATASIZE PUSH1 0x0 DUP1 RETURNDATACOPY RETURNDATASIZE PUSH1 0x0 REVERT JUMPDEST POP POP POP POP JUMP JUMPDEST PUSH1 0x0 PUSH2 0xBA PUSH1 0x1 NUMBER PUSH2 0x11D JUMP JUMPDEST PUSH1 0x0 SLOAD PUSH1 0x40 MLOAD PUSH4 0x21D027CF PUSH1 0xE2 SHL DUP2 MSTORE SWAP2 BLOCKHASH PUSH1 0x4 DUP4 ADD DUP2 SWAP1 MSTORE SWAP3 POP PUSH1 0x1 PUSH1 0x1 PUSH1 0xA0 SHL SUB AND SWAP1 PUSH4 0x87409F3C SWAP1 PUSH1 0x24 ADD PUSH1 0x0 PUSH1 0x40 MLOAD DUP1 DUP4 SUB DUP2 PUSH1 0x0 DUP8 DUP1 EXTCODESIZE ISZERO DUP1 ISZERO PUSH2 0x102 JUMPI PUSH1 0x0 DUP1 REVERT JUMPDEST POP GAS CALL ISZERO DUP1 ISZERO PUSH2 0x116 JUMPI RETURNDATASIZE PUSH1 0x0 DUP1 RETURNDATACOPY RETURNDATASIZE PUSH1 0x0 REVERT JUMPDEST POP POP POP POP POP JUMP JUMPDEST DUP2 DUP2 SUB DUP2 DUP2 GT ISZERO PUSH2 0x13E JUMPI PUSH4 0x4E487B71 PUSH1 0xE0 SHL PUSH1 0x0 MSTORE PUSH1 0x11 PUSH1 0x4 MSTORE PUSH1 0x24 PUSH1 0x0 REVERT JUMPDEST SWAP3 SWAP2 POP POP JUMP INVALID LOG2 PUSH5 0x6970667358 0x22 SLT KECCAK256 0xCF 0xC5 PUSH28 0xB8D652D92A6FD87CD75A62E1BC4BEFA18665EE47D78C5A9A45948244 0x4E PUSH5 0x736F6C6343 STOP ADDMOD GT STOP CALLER "},"gasEstimates":{"creation":{"codeDepositCost":"75600","executionCost":"infinite","totalCost":"infinite"},"external":{"requestRandomNumber()":"infinite","requestRandomNumberReturnZero()":"infinite"}},"methodIdentifiers":{"requestRandomNumber()":"8678a7b2","requestRandomNumberReturnZero()":"075f22e3"}},"storageLayout":{"storage":[{"astId":4634,"contract":"src/mocks/MockRandomProvider.sol:MockRandomProvider","label":"raffle","offset":0,"slot":"0","type":"t_contract(IRaffle)4476"}],"types":{"t_contract(IRaffle)4476":{"encoding":"inplace","label":"contract IRaffle","numberOfBytes":"20"}}},"userdoc":{"kind":"user","methods":{"requestRandomNumber()":{"notice":"Request a random numbers using ChainLinkVRFv2"}},"version":1}}}}