{"src/raffle/Raffle.sol":{"Raffle":{"abi":[{"inputs":[],"name":"CANT_BE_ZERO","type":"error"},{"inputs":[],"name":"MAX_TICKET_SUPPLY_EXCEEDED","type":"error"},{"inputs":[],"name":"MSG_SENDER_NOT_WINNER","type":"error"},{"inputs":[],"name":"NOT_CREATOR","type":"error"},{"inputs":[],"name":"NOT_ENOUGH_BALANCE","type":"error"},{"inputs":[],"name":"NOT_RANDOM_PROVIDER_CONTRACT","type":"error"},{"inputs":[],"name":"RAFFLE_CLOSE","type":"error"},{"inputs":[],"name":"RAFFLE_STILL_OPEN","type":"error"},{"inputs":[],"name":"TICKET_ALREADY_DRAWN","type":"error"},{"inputs":[],"name":"TICKET_NOT_DRAWN","type":"error"},{"anonymous":false,"inputs":[{"indexed":true,"internalType":"address","name":"raffleContract","type":"address"},{"indexed":true,"internalType":"address","name":"winner","type":"address"},{"indexed":false,"internalType":"uint256","name":"amountReceived","type":"uint256"}],"name":"CreatorClaimTicketSalesAmount","type":"event"},{"anonymous":false,"inputs":[{"indexed":false,"internalType":"uint8","name":"version","type":"uint8"}],"name":"Initialized","type":"event"},{"anonymous":false,"inputs":[{"indexed":true,"internalType":"address","name":"raffleContract","type":"address"},{"components":[{"internalType":"address","name":"creator","type":"address"},{"internalType":"contract IERC20","name":"purchaseCurrency","type":"address"},{"internalType":"contract IImplementationManager","name":"implementationManager","type":"address"},{"internalType":"contract IERC721","name":"nftContract","type":"address"},{"internalType":"uint256","name":"nftId","type":"uint256"},{"internalType":"uint256","name":"maxTicketSupply","type":"uint256"},{"internalType":"uint256","name":"ticketSupply","type":"uint256"},{"internalType":"uint256","name":"ticketPrice","type":"uint256"},{"internalType":"uint256","name":"winningTicketNumber","type":"uint256"},{"internalType":"uint64","name":"endTime","type":"uint64"},{"internalType":"bool","name":"isTicketDrawn","type":"bool"}],"indexed":false,"internalType":"struct RaffleDataTypes.RaffleData","name":"globalData","type":"tuple"}],"name":"NewRaffle","type":"event"},{"anonymous":false,"inputs":[{"indexed":true,"internalType":"address","name":"raffleContract","type":"address"},{"indexed":true,"internalType":"address","name":"buyer","type":"address"},{"indexed":false,"internalType":"uint256[]","name":"ticketNumbers","type":"uint256[]"}],"name":"TicketPurchased","type":"event"},{"anonymous":false,"inputs":[{"indexed":true,"internalType":"address","name":"raffleContract","type":"address"},{"indexed":true,"internalType":"address","name":"winner","type":"address"},{"indexed":true,"internalType":"address","name":"nftContract","type":"address"},{"indexed":false,"internalType":"uint256","name":"nftId","type":"uint256"}],"name":"WinnerClaimedPrice","type":"event"},{"anonymous":false,"inputs":[{"indexed":true,"internalType":"address","name":"raffleContract","type":"address"},{"indexed":false,"internalType":"uint256","name":"winningTicket","type":"uint256"}],"name":"WinningTicketDrawned","type":"event"},{"inputs":[{"internalType":"address","name":"user","type":"address"}],"name":"balanceOf","outputs":[{"internalType":"uint256[]","name":"","type":"uint256[]"}],"stateMutability":"view","type":"function"},{"inputs":[],"name":"claimPrice","outputs":[],"stateMutability":"nonpayable","type":"function"},{"inputs":[],"name":"claimTicketSalesAmount","outputs":[],"stateMutability":"nonpayable","type":"function"},{"inputs":[],"name":"creator","outputs":[{"internalType":"address","name":"","type":"address"}],"stateMutability":"view","type":"function"},{"inputs":[],"name":"drawnRandomTicket","outputs":[],"stateMutability":"nonpayable","type":"function"},{"inputs":[{"internalType":"uint256","name":"randomNumber","type":"uint256"}],"name":"drawnTicket","outputs":[],"stateMutability":"nonpayable","type":"function"},{"inputs":[],"name":"endTime","outputs":[{"internalType":"uint64","name":"","type":"uint64"}],"stateMutability":"view","type":"function"},{"inputs":[{"components":[{"internalType":"contract IImplementationManager","name":"implementationManager","type":"address"},{"internalType":"contract IERC20","name":"purchaseCurrency","type":"address"},{"internalType":"contract IERC721","name":"nftContract","type":"address"},{"internalType":"uint256","name":"nftId","type":"uint256"},{"internalType":"uint256","name":"maxTicketSupply","type":"uint256"},{"internalType":"uint256","name":"ticketPrice","type":"uint256"},{"internalType":"uint64","name":"endTime","type":"uint64"}],"internalType":"struct RaffleDataTypes.InitRaffleParams","name":"_data","type":"tuple"}],"name":"initialize","outputs":[],"stateMutability":"nonpayable","type":"function"},{"inputs":[],"name":"isTicketDrawn","outputs":[{"internalType":"bool","name":"","type":"bool"}],"stateMutability":"view","type":"function"},{"inputs":[],"name":"maxSupply","outputs":[{"internalType":"uint256","name":"","type":"uint256"}],"stateMutability":"view","type":"function"},{"inputs":[],"name":"nftToWin","outputs":[{"internalType":"contract IERC721","name":"nftContractAddress","type":"address"},{"internalType":"uint256","name":"nftId","type":"uint256"}],"stateMutability":"view","type":"function"},{"inputs":[{"internalType":"uint256","name":"id","type":"uint256"}],"name":"ownerOf","outputs":[{"internalType":"address","name":"","type":"address"}],"stateMutability":"view","type":"function"},{"inputs":[],"name":"purchaseCurrency","outputs":[{"internalType":"contract IERC20","name":"","type":"address"}],"stateMutability":"view","type":"function"},{"inputs":[{"internalType":"uint256","name":"nbOfTickets","type":"uint256"}],"name":"purchaseTickets","outputs":[],"stateMutability":"nonpayable","type":"function"},{"inputs":[],"name":"ticketPrice","outputs":[{"internalType":"uint256","name":"","type":"uint256"}],"stateMutability":"view","type":"function"},{"inputs":[],"name":"totalSupply","outputs":[{"internalType":"uint256","name":"","type":"uint256"}],"stateMutability":"view","type":"function"},{"inputs":[],"name":"winnerAddress","outputs":[{"internalType":"address","name":"","type":"address"}],"stateMutability":"view","type":"function"},{"inputs":[],"name":"winningTicket","outputs":[{"internalType":"uint256","name":"","type":"uint256"}],"stateMutability":"view","type":"function"}],"devdoc":{"kind":"dev","methods":{"balanceOf(address)":{"returns":{"_0":"True if ticket has been drawn, False otherwise"}},"claimPrice()":{"details":"Ticket number must be draw and raffle close to new participants"},"claimTicketSalesAmount()":{"details":"The functions should send to the creator his part after fees"},"creator()":{"returns":{"_0":"The address of the creator"}},"drawnRandomTicket()":{"details":"must call the RandomProvider that use ChainLinkVRFv2 "},"drawnTicket(uint256)":{"details":"must be only called by the RandomProvider contract","params":{"randomNumber":"random number requested"}},"endTime()":{"returns":{"_0":"The time in timestamps"}},"isTicketDrawn()":{"returns":{"_0":"True if ticket has been drawn, False otherwise"}},"maxSupply()":{"returns":{"_0":"The total amount of tickets sold"}},"nftToWin()":{"returns":{"nftContractAddress":"The address of the nft","nftId":"The id of the nft"}},"ownerOf(uint256)":{"returns":{"_0":"The address that bought the own the ticket"}},"purchaseCurrency()":{"returns":{"_0":"The address of the ERC20"}},"purchaseTickets(uint256)":{"details":"Only accessible if raffle still open to particpants","params":{"nbOfTickets":"number of tickets purchased"}},"ticketPrice()":{"returns":{"_0":"The amount of token that one ticket cost"}},"totalSupply()":{"returns":{"_0":"The total amount of tickets sold"}},"winnerAddress()":{"details":"revert if ticket sales not close and if ticket number hasn't be drawn","returns":{"_0":"The address of the wallet that won the raffle"}},"winningTicket()":{"details":"revert if ticket sales not close and if ticket number hasn't be drawn","returns":{"_0":"The ticket number that win the raffle"}}},"version":1},"evm":{"bytecode":{"linkReferences":{},"object":"608060405234801561001057600080fd5b506111d8806100206000396000f3fe608060405234801561001057600080fd5b50600436106101165760003560e01c80636352211e116100a257806387409f3c1161007157806387409f3c14610254578063a127760014610267578063c26eea541461027a578063d5abeb0114610282578063ed7a4e0b1461028a57600080fd5b80636352211e146101f2578063636ed74c1461021b5780636a4a5b2d1461022357806370a082311461023457600080fd5b8063237be938116100e9578063237be938146101695780633197cbb61461017c57806332095a66146101975780633b398ff8146101b45780635e4aaae8146101ea57600080fd5b806302d05d3f1461011b5780631209b1f61461014557806315d655c91461015757806318160ddd14610161575b600080fd5b6002546001600160a01b03165b6040516001600160a01b0390911681526020015b60405180910390f35b6009545b60405190815260200161013c565b61015f610292565b005b600854610149565b61015f610177366004610ee2565b6103da565b600b546040516001600160401b03909116815260200161013c565b600b54600160401b900460ff16604051901515815260200161013c565b6101cb6005546006546001600160a01b0390911691565b604080516001600160a01b03909316835260208301919091520161013c565b61015f61062d565b610128610200366004610f8a565b6000908152602081905260409020546001600160a01b031690565b61015f610756565b6003546001600160a01b0316610128565b610247610242366004610fa3565b6108f5565b60405161013c9190610fc7565b61015f610262366004610f8a565b610961565b61015f610275366004610f8a565b610aea565b610149610d9e565b600754610149565b610128610dfe565b600b546001600160401b03164210156102be57604051630c2695bf60e11b815260040160405180910390fd5b600b54600160401b900460ff166102e8576040516316de234960e11b815260040160405180910390fd5b6102f0610dfe565b6001600160a01b0316336001600160a01b0316146103215760405163b4e5b12160e01b815260040160405180910390fd5b600554600654604051632142170760e11b815230600482015233602482015260448101919091526001600160a01b03909116906342842e0e90606401600060405180830381600087803b15801561037757600080fd5b505af115801561038b573d6000803e3d6000fd5b50506005546006546040519081526001600160a01b03909116925033915030907f1fc6b0218aceb86978fcfee181f91a4a3f28d1eddff4e6df0c3dc99c79ace6d49060200160405180910390a4565b600c54610100900460ff16158080156103fa5750600c54600160ff909116105b806104145750303b1580156104145750600c5460ff166001145b61047b5760405162461bcd60e51b815260206004820152602e60248201527f496e697469616c697a61626c653a20636f6e747261637420697320616c72656160448201526d191e481a5b9a5d1a585b1a5e995960921b606482015260840160405180910390fd5b600c805460ff19166001179055801561049e57600c805461ff0019166101001790555b604080830151606084015191516323b872dd60e01b815233600482015230602482015260448101929092526001600160a01b0316906323b872dd90606401600060405180830381600087803b1580156104f657600080fd5b505af115801561050a573d6000803e3d6000fd5b50508351600480546001600160a01b039283166001600160a01b0319918216179091556002805482163317905560208601516003805491841691831691909117905560408601516005805491909316911617905550506060820151600655608082015160075560a082015160095560c08201516105879042611021565b600b805467ffffffffffffffff19166001600160401b039290921691909117905560405130907f8e6ed988ca4466debd93187a712a711d162a86afc40acfc588c00ef76509fa7c906105db90600290611048565b60405180910390a2801561062957600c805461ff0019169055604051600181527f7f26b83ff96e1f2b6a682f133852f6798a09c465da95921460cefb38474024989060200160405180910390a15b5050565b600b546001600160401b031642101561065957604051630c2695bf60e11b815260040160405180910390fd5b600b54600160401b900460ff161561068457604051630a7f733d60e41b815260040160405180910390fd5b600480546040516302abf57960e61b81526d2930b73237b6a83937bb34b232b960911b928101929092526001600160a01b03169063aafd5e4090602401602060405180830381865afa1580156106de573d6000803e3d6000fd5b505050506040513d601f19601f8201168201806040525081019061070291906110e8565b6001600160a01b0316638678a7b26040518163ffffffff1660e01b8152600401600060405180830381600087803b15801561073c57600080fd5b505af1158015610750573d6000803e3d6000fd5b50505050565b600b546001600160401b031642101561078257604051630c2695bf60e11b815260040160405180910390fd5b600b54600160401b900460ff166107ac576040516316de234960e11b815260040160405180910390fd5b6002546001600160a01b031633146107d757604051632cff942760e01b815260040160405180910390fd5b6003546040516370a0823160e01b81523060048201526000916001600160a01b0316906370a0823190602401602060405180830381865afa158015610820573d6000803e3d6000fd5b505050506040513d601f19601f820116820180604052508101906108449190611105565b60035460405163a9059cbb60e01b8152336004820152602481018390529192506001600160a01b03169063a9059cbb906044016020604051808303816000875af1158015610896573d6000803e3d6000fd5b505050506040513d601f19601f820116820180604052508101906108ba919061111e565b50604051818152339030907f2427926a2340a250197c73c9c1a12ca71ee0f1f53f8e08badda42770afc6ecf69060200160405180910390a350565b6001600160a01b03811660009081526001602090815260409182902080548351818402810184019094528084526060939283018282801561095557602002820191906000526020600020905b815481526020019060010190808311610941575b50505050509050919050565b600b546001600160401b031642101561098d57604051630c2695bf60e11b815260040160405180910390fd5b600b54600160401b900460ff16156109b857604051630a7f733d60e41b815260040160405180910390fd5b600480546040516302abf57960e61b81526d2930b73237b6a83937bb34b232b960911b9281019290925233916001600160a01b039091169063aafd5e4090602401602060405180830381865afa158015610a16573d6000803e3d6000fd5b505050506040513d601f19601f82011682018060405250810190610a3a91906110e8565b6001600160a01b031614610a615760405163170cd40b60e31b815260040160405180910390fd5b80600003610a82576040516398fccb2760e01b815260040160405180910390fd5b600854610a8f9082611140565b600a819055600b805468ff00000000000000001916600160401b17905560405130917fbd2ef7d8e723142e22eed26d859400cda0ac602edacddc8b13f96c921011a9ac91610adf91815260200190565b60405180910390a250565b600b546001600160401b03164210610b155760405163377d0b8560e11b815260040160405180910390fd5b80600003610b36576040516398fccb2760e01b815260040160405180910390fd5b60075481610b4360085490565b610b4d9190611162565b1115610b6c576040516384bfcb9560e01b815260040160405180910390fd5b6003546040516370a0823160e01b81523360048201526001600160a01b03909116906370a0823190602401602060405180830381865afa158015610bb4573d6000803e3d6000fd5b505050506040513d601f19601f82011682018060405250810190610bd89190611105565b610be182610e76565b1115610c005760405163119563e560e31b815260040160405180910390fd5b6003546001600160a01b03166323b872dd3330610c1c85610e76565b6040516001600160e01b031960e086901b1681526001600160a01b03938416600482015292909116602483015260448201526064016020604051808303816000875af1158015610c70573d6000803e3d6000fd5b505050506040513d601f19601f82011682018060405250810190610c94919061111e565b503360009081526001602052604081206008549091836001600160401b03811115610cc157610cc1610e8d565b604051908082528060200260200182016040528015610cea578160200160208202803683370190505b50905060005b84811015610d565782828281518110610d0b57610d0b611175565b6020908102919091018101919091528454600181810187556000878152838120909201869055858252918190526040902080546001600160a01b031916331790559283019201610cf0565b506008829055604051339030907f3298f998adc3ec4bdcc9bb12f2a924f1d28c61596124855d7d6d4d09e231847a90610d90908590610fc7565b60405180910390a350505050565b600b546000906001600160401b0316421015610dcd57604051630c2695bf60e11b815260040160405180910390fd5b600b54600160401b900460ff16610df7576040516316de234960e11b815260040160405180910390fd5b50600a5490565b600b546000906001600160401b0316421015610e2d57604051630c2695bf60e11b815260040160405180910390fd5b600b54600160401b900460ff16610e57576040516316de234960e11b815260040160405180910390fd5b50600a546000908152602081905260409020546001600160a01b031690565b600954600090610e8790839061118b565b92915050565b634e487b7160e01b600052604160045260246000fd5b6001600160a01b0381168114610eb857600080fd5b50565b8035610ec681610ea3565b919050565b80356001600160401b0381168114610ec657600080fd5b600060e08284031215610ef457600080fd5b60405160e081018181106001600160401b0382111715610f2457634e487b7160e01b600052604160045260246000fd5b604052610f3083610ebb565b8152610f3e60208401610ebb565b6020820152610f4f60408401610ebb565b6040820152606083013560608201526080830135608082015260a083013560a0820152610f7e60c08401610ecb565b60c08201529392505050565b600060208284031215610f9c57600080fd5b5035919050565b600060208284031215610fb557600080fd5b8135610fc081610ea3565b9392505050565b6020808252825182820181905260009190848201906040850190845b81811015610fff57835183529284019291840191600101610fe3565b50909695505050505050565b634e487b7160e01b600052601160045260246000fd5b6001600160401b038181168382160190808211156110415761104161100b565b5092915050565b81546001600160a01b03168152610160810160018301546001600160a01b039081166020840152600284015481166040808501919091526003850154909116606084015260048401546080840152600584015460a0840152600684015460c0840152600784015460e0840152600884015461010084015260098401546001600160401b0381166101208501529081901c60ff161515610140840152611041565b6000602082840312156110fa57600080fd5b8151610fc081610ea3565b60006020828403121561111757600080fd5b5051919050565b60006020828403121561113057600080fd5b81518015158114610fc057600080fd5b60008261115d57634e487b7160e01b600052601260045260246000fd5b500690565b80820180821115610e8757610e8761100b565b634e487b7160e01b600052603260045260246000fd5b8082028115828204841417610e8757610e8761100b56fea2646970667358221220a33033498c6fdd5fdb0effca4d0089ba1afb5c8caa0d42337040f0ba0eead63464736f6c63430008110033","opcodes":"PUSH1 0x80 PUSH1 0x40 MSTORE CALLVALUE DUP1 ISZERO PUSH2 0x10 JUMPI PUSH1 0x0 DUP1 REVERT JUMPDEST POP PUSH2 0x11D8 DUP1 PUSH2 0x20 PUSH1 0x0 CODECOPY PUSH1 0x0 RETURN INVALID PUSH1 0x80 PUSH1 0x40 MSTORE CALLVALUE DUP1 ISZERO PUSH2 0x10 JUMPI PUSH1 0x0 DUP1 REVERT JUMPDEST POP PUSH1 0x4 CALLDATASIZE LT PUSH2 0x116 JUMPI PUSH1 0x0 CALLDATALOAD PUSH1 0xE0 SHR DUP1 PUSH4 0x6352211E GT PUSH2 0xA2 JUMPI DUP1 PUSH4 0x87409F3C GT PUSH2 0x71 JUMPI DUP1 PUSH4 0x87409F3C EQ PUSH2 0x254 JUMPI DUP1 PUSH4 0xA1277600 EQ PUSH2 0x267 JUMPI DUP1 PUSH4 0xC26EEA54 EQ PUSH2 0x27A JUMPI DUP1 PUSH4 0xD5ABEB01 EQ PUSH2 0x282 JUMPI DUP1 PUSH4 0xED7A4E0B EQ PUSH2 0x28A JUMPI PUSH1 0x0 DUP1 REVERT JUMPDEST DUP1 PUSH4 0x6352211E EQ PUSH2 0x1F2 JUMPI DUP1 PUSH4 0x636ED74C EQ PUSH2 0x21B JUMPI DUP1 PUSH4 0x6A4A5B2D EQ PUSH2 0x223 JUMPI DUP1 PUSH4 0x70A08231 EQ PUSH2 0x234 JUMPI PUSH1 0x0 DUP1 REVERT JUMPDEST DUP1 PUSH4 0x237BE938 GT PUSH2 0xE9 JUMPI DUP1 PUSH4 0x237BE938 EQ PUSH2 0x169 JUMPI DUP1 PUSH4 0x3197CBB6 EQ PUSH2 0x17C JUMPI DUP1 PUSH4 0x32095A66 EQ PUSH2 0x197 JUMPI DUP1 PUSH4 0x3B398FF8 EQ PUSH2 0x1B4 JUMPI DUP1 PUSH4 0x5E4AAAE8 EQ PUSH2 0x1EA JUMPI PUSH1 0x0 DUP1 REVERT JUMPDEST DUP1 PUSH4 0x2D05D3F EQ PUSH2 0x11B JUMPI DUP1 PUSH4 0x1209B1F6 EQ PUSH2 0x145 JUMPI DUP1 PUSH4 0x15D655C9 EQ PUSH2 0x157 JUMPI DUP1 PUSH4 0x18160DDD EQ PUSH2 0x161 JUMPI JUMPDEST PUSH1 0x0 DUP1 REVERT JUMPDEST PUSH1 0x2 SLOAD PUSH1 0x1 PUSH1 0x1 PUSH1 0xA0 SHL SUB AND JUMPDEST PUSH1 0x40 MLOAD PUSH1 0x1 PUSH1 0x1 PUSH1 0xA0 SHL SUB SWAP1 SWAP2 AND DUP2 MSTORE PUSH1 0x20 ADD JUMPDEST PUSH1 0x40 MLOAD DUP1 SWAP2 SUB SWAP1 RETURN JUMPDEST PUSH1 0x9 SLOAD JUMPDEST PUSH1 0x40 MLOAD SWAP1 DUP2 MSTORE PUSH1 0x20 ADD PUSH2 0x13C JUMP JUMPDEST PUSH2 0x15F PUSH2 0x292 JUMP JUMPDEST STOP JUMPDEST PUSH1 0x8 SLOAD PUSH2 0x149 JUMP JUMPDEST PUSH2 0x15F PUSH2 0x177 CALLDATASIZE PUSH1 0x4 PUSH2 0xEE2 JUMP JUMPDEST PUSH2 0x3DA JUMP JUMPDEST PUSH1 0xB SLOAD PUSH1 0x40 MLOAD PUSH1 0x1 PUSH1 0x1 PUSH1 0x40 SHL SUB SWAP1 SWAP2 AND DUP2 MSTORE PUSH1 0x20 ADD PUSH2 0x13C JUMP JUMPDEST PUSH1 0xB SLOAD PUSH1 0x1 PUSH1 0x40 SHL SWAP1 DIV PUSH1 0xFF AND PUSH1 0x40 MLOAD SWAP1 ISZERO ISZERO DUP2 MSTORE PUSH1 0x20 ADD PUSH2 0x13C JUMP JUMPDEST PUSH2 0x1CB PUSH1 0x5 SLOAD PUSH1 0x6 SLOAD PUSH1 0x1 PUSH1 0x1 PUSH1 0xA0 SHL SUB SWAP1 SWAP2 AND SWAP2 JUMP JUMPDEST PUSH1 0x40 DUP1 MLOAD PUSH1 0x1 PUSH1 0x1 PUSH1 0xA0 SHL SUB SWAP1 SWAP4 AND DUP4 MSTORE PUSH1 0x20 DUP4 ADD SWAP2 SWAP1 SWAP2 MSTORE ADD PUSH2 0x13C JUMP JUMPDEST PUSH2 0x15F PUSH2 0x62D JUMP JUMPDEST PUSH2 0x128 PUSH2 0x200 CALLDATASIZE PUSH1 0x4 PUSH2 0xF8A JUMP JUMPDEST PUSH1 0x0 SWAP1 DUP2 MSTORE PUSH1 0x20 DUP2 SWAP1 MSTORE PUSH1 0x40 SWAP1 KECCAK256 SLOAD PUSH1 0x1 PUSH1 0x1 PUSH1 0xA0 SHL SUB AND SWAP1 JUMP JUMPDEST PUSH2 0x15F PUSH2 0x756 JUMP JUMPDEST PUSH1 0x3 SLOAD PUSH1 0x1 PUSH1 0x1 PUSH1 0xA0 SHL SUB AND PUSH2 0x128 JUMP JUMPDEST PUSH2 0x247 PUSH2 0x242 CALLDATASIZE PUSH1 0x4 PUSH2 0xFA3 JUMP JUMPDEST PUSH2 0x8F5 JUMP JUMPDEST PUSH1 0x40 MLOAD PUSH2 0x13C SWAP2 SWAP1 PUSH2 0xFC7 JUMP JUMPDEST PUSH2 0x15F PUSH2 0x262 CALLDATASIZE PUSH1 0x4 PUSH2 0xF8A JUMP JUMPDEST PUSH2 0x961 JUMP JUMPDEST PUSH2 0x15F PUSH2 0x275 CALLDATASIZE PUSH1 0x4 PUSH2 0xF8A JUMP JUMPDEST PUSH2 0xAEA JUMP JUMPDEST PUSH2 0x149 PUSH2 0xD9E JUMP JUMPDEST PUSH1 0x7 SLOAD PUSH2 0x149 JUMP JUMPDEST PUSH2 0x128 PUSH2 0xDFE JUMP JUMPDEST PUSH1 0xB SLOAD PUSH1 0x1 PUSH1 0x1 PUSH1 0x40 SHL SUB AND TIMESTAMP LT ISZERO PUSH2 0x2BE JUMPI PUSH1 0x40 MLOAD PUSH4 0xC2695BF PUSH1 0xE1 SHL DUP2 MSTORE PUSH1 0x4 ADD PUSH1 0x40 MLOAD DUP1 SWAP2 SUB SWAP1 REVERT JUMPDEST PUSH1 0xB SLOAD PUSH1 0x1 PUSH1 0x40 SHL SWAP1 DIV PUSH1 0xFF AND PUSH2 0x2E8 JUMPI PUSH1 0x40 MLOAD PUSH4 0x16DE2349 PUSH1 0xE1 SHL DUP2 MSTORE PUSH1 0x4 ADD PUSH1 0x40 MLOAD DUP1 SWAP2 SUB SWAP1 REVERT JUMPDEST PUSH2 0x2F0 PUSH2 0xDFE JUMP JUMPDEST PUSH1 0x1 PUSH1 0x1 PUSH1 0xA0 SHL SUB AND CALLER PUSH1 0x1 PUSH1 0x1 PUSH1 0xA0 SHL SUB AND EQ PUSH2 0x321 JUMPI PUSH1 0x40 MLOAD PUSH4 0xB4E5B121 PUSH1 0xE0 SHL DUP2 MSTORE PUSH1 0x4 ADD PUSH1 0x40 MLOAD DUP1 SWAP2 SUB SWAP1 REVERT JUMPDEST PUSH1 0x5 SLOAD PUSH1 0x6 SLOAD PUSH1 0x40 MLOAD PUSH4 0x21421707 PUSH1 0xE1 SHL DUP2 MSTORE ADDRESS PUSH1 0x4 DUP3 ADD MSTORE CALLER PUSH1 0x24 DUP3 ADD MSTORE PUSH1 0x44 DUP2 ADD SWAP2 SWAP1 SWAP2 MSTORE PUSH1 0x1 PUSH1 0x1 PUSH1 0xA0 SHL SUB SWAP1 SWAP2 AND SWAP1 PUSH4 0x42842E0E SWAP1 PUSH1 0x64 ADD PUSH1 0x0 PUSH1 0x40 MLOAD DUP1 DUP4 SUB DUP2 PUSH1 0x0 DUP8 DUP1 EXTCODESIZE ISZERO DUP1 ISZERO PUSH2 0x377 JUMPI PUSH1 0x0 DUP1 REVERT JUMPDEST POP GAS CALL ISZERO DUP1 ISZERO PUSH2 0x38B JUMPI RETURNDATASIZE PUSH1 0x0 DUP1 RETURNDATACOPY RETURNDATASIZE PUSH1 0x0 REVERT JUMPDEST POP POP PUSH1 0x5 SLOAD PUSH1 0x6 SLOAD PUSH1 0x40 MLOAD SWAP1 DUP2 MSTORE PUSH1 0x1 PUSH1 0x1 PUSH1 0xA0 SHL SUB SWAP1 SWAP2 AND SWAP3 POP CALLER SWAP2 POP ADDRESS SWAP1 PUSH32 0x1FC6B0218ACEB86978FCFEE181F91A4A3F28D1EDDFF4E6DF0C3DC99C79ACE6D4 SWAP1 PUSH1 0x20 ADD PUSH1 0x40 MLOAD DUP1 SWAP2 SUB SWAP1 LOG4 JUMP JUMPDEST PUSH1 0xC SLOAD PUSH2 0x100 SWAP1 DIV PUSH1 0xFF AND ISZERO DUP1 DUP1 ISZERO PUSH2 0x3FA JUMPI POP PUSH1 0xC SLOAD PUSH1 0x1 PUSH1 0xFF SWAP1 SWAP2 AND LT JUMPDEST DUP1 PUSH2 0x414 JUMPI POP ADDRESS EXTCODESIZE ISZERO DUP1 ISZERO PUSH2 0x414 JUMPI POP PUSH1 0xC SLOAD PUSH1 0xFF AND PUSH1 0x1 EQ JUMPDEST PUSH2 0x47B JUMPI PUSH1 0x40 MLOAD PUSH3 0x461BCD PUSH1 0xE5 SHL DUP2 MSTORE PUSH1 0x20 PUSH1 0x4 DUP3 ADD MSTORE PUSH1 0x2E PUSH1 0x24 DUP3 ADD MSTORE PUSH32 0x496E697469616C697A61626C653A20636F6E747261637420697320616C726561 PUSH1 0x44 DUP3 ADD MSTORE PUSH14 0x191E481A5B9A5D1A585B1A5E9959 PUSH1 0x92 SHL PUSH1 0x64 DUP3 ADD MSTORE PUSH1 0x84 ADD PUSH1 0x40 MLOAD DUP1 SWAP2 SUB SWAP1 REVERT JUMPDEST PUSH1 0xC DUP1 SLOAD PUSH1 0xFF NOT AND PUSH1 0x1 OR SWAP1 SSTORE DUP1 ISZERO PUSH2 0x49E JUMPI PUSH1 0xC DUP1 SLOAD PUSH2 0xFF00 NOT AND PUSH2 0x100 OR SWAP1 SSTORE JUMPDEST PUSH1 0x40 DUP1 DUP4 ADD MLOAD PUSH1 0x60 DUP5 ADD MLOAD SWAP2 MLOAD PUSH4 0x23B872DD PUSH1 0xE0 SHL DUP2 MSTORE CALLER PUSH1 0x4 DUP3 ADD MSTORE ADDRESS PUSH1 0x24 DUP3 ADD MSTORE PUSH1 0x44 DUP2 ADD SWAP3 SWAP1 SWAP3 MSTORE PUSH1 0x1 PUSH1 0x1 PUSH1 0xA0 SHL SUB AND SWAP1 PUSH4 0x23B872DD SWAP1 PUSH1 0x64 ADD PUSH1 0x0 PUSH1 0x40 MLOAD DUP1 DUP4 SUB DUP2 PUSH1 0x0 DUP8 DUP1 EXTCODESIZE ISZERO DUP1 ISZERO PUSH2 0x4F6 JUMPI PUSH1 0x0 DUP1 REVERT JUMPDEST POP GAS CALL ISZERO DUP1 ISZERO PUSH2 0x50A JUMPI RETURNDATASIZE PUSH1 0x0 DUP1 RETURNDATACOPY RETURNDATASIZE PUSH1 0x0 REVERT JUMPDEST POP POP DUP4 MLOAD PUSH1 0x4 DUP1 SLOAD PUSH1 0x1 PUSH1 0x1 PUSH1 0xA0 SHL SUB SWAP3 DUP4 AND PUSH1 0x1 PUSH1 0x1 PUSH1 0xA0 SHL SUB NOT SWAP2 DUP3 AND OR SWAP1 SWAP2 SSTORE PUSH1 0x2 DUP1 SLOAD DUP3 AND CALLER OR SWAP1 SSTORE PUSH1 0x20 DUP7 ADD MLOAD PUSH1 0x3 DUP1 SLOAD SWAP2 DUP5 AND SWAP2 DUP4 AND SWAP2 SWAP1 SWAP2 OR SWAP1 SSTORE PUSH1 0x40 DUP7 ADD MLOAD PUSH1 0x5 DUP1 SLOAD SWAP2 SWAP1 SWAP4 AND SWAP2 AND OR SWAP1 SSTORE POP POP PUSH1 0x60 DUP3 ADD MLOAD PUSH1 0x6 SSTORE PUSH1 0x80 DUP3 ADD MLOAD PUSH1 0x7 SSTORE PUSH1 0xA0 DUP3 ADD MLOAD PUSH1 0x9 SSTORE PUSH1 0xC0 DUP3 ADD MLOAD PUSH2 0x587 SWAP1 TIMESTAMP PUSH2 0x1021 JUMP JUMPDEST PUSH1 0xB DUP1 SLOAD PUSH8 0xFFFFFFFFFFFFFFFF NOT AND PUSH1 0x1 PUSH1 0x1 PUSH1 0x40 SHL SUB SWAP3 SWAP1 SWAP3 AND SWAP2 SWAP1 SWAP2 OR SWAP1 SSTORE PUSH1 0x40 MLOAD ADDRESS SWAP1 PUSH32 0x8E6ED988CA4466DEBD93187A712A711D162A86AFC40ACFC588C00EF76509FA7C SWAP1 PUSH2 0x5DB SWAP1 PUSH1 0x2 SWAP1 PUSH2 0x1048 JUMP JUMPDEST PUSH1 0x40 MLOAD DUP1 SWAP2 SUB SWAP1 LOG2 DUP1 ISZERO PUSH2 0x629 JUMPI PUSH1 0xC DUP1 SLOAD PUSH2 0xFF00 NOT AND SWAP1 SSTORE PUSH1 0x40 MLOAD PUSH1 0x1 DUP2 MSTORE PUSH32 0x7F26B83FF96E1F2B6A682F133852F6798A09C465DA95921460CEFB3847402498 SWAP1 PUSH1 0x20 ADD PUSH1 0x40 MLOAD DUP1 SWAP2 SUB SWAP1 LOG1 JUMPDEST POP POP JUMP JUMPDEST PUSH1 0xB SLOAD PUSH1 0x1 PUSH1 0x1 PUSH1 0x40 SHL SUB AND TIMESTAMP LT ISZERO PUSH2 0x659 JUMPI PUSH1 0x40 MLOAD PUSH4 0xC2695BF PUSH1 0xE1 SHL DUP2 MSTORE PUSH1 0x4 ADD PUSH1 0x40 MLOAD DUP1 SWAP2 SUB SWAP1 REVERT JUMPDEST PUSH1 0xB SLOAD PUSH1 0x1 PUSH1 0x40 SHL SWAP1 DIV PUSH1 0xFF AND ISZERO PUSH2 0x684 JUMPI PUSH1 0x40 MLOAD PUSH4 0xA7F733D PUSH1 0xE4 SHL DUP2 MSTORE PUSH1 0x4 ADD PUSH1 0x40 MLOAD DUP1 SWAP2 SUB SWAP1 REVERT JUMPDEST PUSH1 0x4 DUP1 SLOAD PUSH1 0x40 MLOAD PUSH4 0x2ABF579 PUSH1 0xE6 SHL DUP2 MSTORE PUSH14 0x2930B73237B6A83937BB34B232B9 PUSH1 0x91 SHL SWAP3 DUP2 ADD SWAP3 SWAP1 SWAP3 MSTORE PUSH1 0x1 PUSH1 0x1 PUSH1 0xA0 SHL SUB AND SWAP1 PUSH4 0xAAFD5E40 SWAP1 PUSH1 0x24 ADD PUSH1 0x20 PUSH1 0x40 MLOAD DUP1 DUP4 SUB DUP2 DUP7 GAS STATICCALL ISZERO DUP1 ISZERO PUSH2 0x6DE JUMPI RETURNDATASIZE PUSH1 0x0 DUP1 RETURNDATACOPY RETURNDATASIZE PUSH1 0x0 REVERT JUMPDEST POP POP POP POP PUSH1 0x40 MLOAD RETURNDATASIZE PUSH1 0x1F NOT PUSH1 0x1F DUP3 ADD AND DUP3 ADD DUP1 PUSH1 0x40 MSTORE POP DUP2 ADD SWAP1 PUSH2 0x702 SWAP2 SWAP1 PUSH2 0x10E8 JUMP JUMPDEST PUSH1 0x1 PUSH1 0x1 PUSH1 0xA0 SHL SUB AND PUSH4 0x8678A7B2 PUSH1 0x40 MLOAD DUP2 PUSH4 0xFFFFFFFF AND PUSH1 0xE0 SHL DUP2 MSTORE PUSH1 0x4 ADD PUSH1 0x0 PUSH1 0x40 MLOAD DUP1 DUP4 SUB DUP2 PUSH1 0x0 DUP8 DUP1 EXTCODESIZE ISZERO DUP1 ISZERO PUSH2 0x73C JUMPI PUSH1 0x0 DUP1 REVERT JUMPDEST POP GAS CALL ISZERO DUP1 ISZERO PUSH2 0x750 JUMPI RETURNDATASIZE PUSH1 0x0 DUP1 RETURNDATACOPY RETURNDATASIZE PUSH1 0x0 REVERT JUMPDEST POP POP POP POP JUMP JUMPDEST PUSH1 0xB SLOAD PUSH1 0x1 PUSH1 0x1 PUSH1 0x40 SHL SUB AND TIMESTAMP LT ISZERO PUSH2 0x782 JUMPI PUSH1 0x40 MLOAD PUSH4 0xC2695BF PUSH1 0xE1 SHL DUP2 MSTORE PUSH1 0x4 ADD PUSH1 0x40 MLOAD DUP1 SWAP2 SUB SWAP1 REVERT JUMPDEST PUSH1 0xB SLOAD PUSH1 0x1 PUSH1 0x40 SHL SWAP1 DIV PUSH1 0xFF AND PUSH2 0x7AC JUMPI PUSH1 0x40 MLOAD PUSH4 0x16DE2349 PUSH1 0xE1 SHL DUP2 MSTORE PUSH1 0x4 ADD PUSH1 0x40 MLOAD DUP1 SWAP2 SUB SWAP1 REVERT JUMPDEST PUSH1 0x2 SLOAD PUSH1 0x1 PUSH1 0x1 PUSH1 0xA0 SHL SUB AND CALLER EQ PUSH2 0x7D7 JUMPI PUSH1 0x40 MLOAD PUSH4 0x2CFF9427 PUSH1 0xE0 SHL DUP2 MSTORE PUSH1 0x4 ADD PUSH1 0x40 MLOAD DUP1 SWAP2 SUB SWAP1 REVERT JUMPDEST PUSH1 0x3 SLOAD PUSH1 0x40 MLOAD PUSH4 0x70A08231 PUSH1 0xE0 SHL DUP2 MSTORE ADDRESS PUSH1 0x4 DUP3 ADD MSTORE PUSH1 0x0 SWAP2 PUSH1 0x1 PUSH1 0x1 PUSH1 0xA0 SHL SUB AND SWAP1 PUSH4 0x70A08231 SWAP1 PUSH1 0x24 ADD PUSH1 0x20 PUSH1 0x40 MLOAD DUP1 DUP4 SUB DUP2 DUP7 GAS STATICCALL ISZERO DUP1 ISZERO PUSH2 0x820 JUMPI RETURNDATASIZE PUSH1 0x0 DUP1 RETURNDATACOPY RETURNDATASIZE PUSH1 0x0 REVERT JUMPDEST POP POP POP POP PUSH1 0x40 MLOAD RETURNDATASIZE PUSH1 0x1F NOT PUSH1 0x1F DUP3 ADD AND DUP3 ADD DUP1 PUSH1 0x40 MSTORE POP DUP2 ADD SWAP1 PUSH2 0x844 SWAP2 SWAP1 PUSH2 0x1105 JUMP JUMPDEST PUSH1 0x3 SLOAD PUSH1 0x40 MLOAD PUSH4 0xA9059CBB PUSH1 0xE0 SHL DUP2 MSTORE CALLER PUSH1 0x4 DUP3 ADD MSTORE PUSH1 0x24 DUP2 ADD DUP4 SWAP1 MSTORE SWAP2 SWAP3 POP PUSH1 0x1 PUSH1 0x1 PUSH1 0xA0 SHL SUB AND SWAP1 PUSH4 0xA9059CBB SWAP1 PUSH1 0x44 ADD PUSH1 0x20 PUSH1 0x40 MLOAD DUP1 DUP4 SUB DUP2 PUSH1 0x0 DUP8 GAS CALL ISZERO DUP1 ISZERO PUSH2 0x896 JUMPI RETURNDATASIZE PUSH1 0x0 DUP1 RETURNDATACOPY RETURNDATASIZE PUSH1 0x0 REVERT JUMPDEST POP POP POP POP PUSH1 0x40 MLOAD RETURNDATASIZE PUSH1 0x1F NOT PUSH1 0x1F DUP3 ADD AND DUP3 ADD DUP1 PUSH1 0x40 MSTORE POP DUP2 ADD SWAP1 PUSH2 0x8BA SWAP2 SWAP1 PUSH2 0x111E JUMP JUMPDEST POP PUSH1 0x40 MLOAD DUP2 DUP2 MSTORE CALLER SWAP1 ADDRESS SWAP1 PUSH32 0x2427926A2340A250197C73C9C1A12CA71EE0F1F53F8E08BADDA42770AFC6ECF6 SWAP1 PUSH1 0x20 ADD PUSH1 0x40 MLOAD DUP1 SWAP2 SUB SWAP1 LOG3 POP JUMP JUMPDEST PUSH1 0x1 PUSH1 0x1 PUSH1 0xA0 SHL SUB DUP2 AND PUSH1 0x0 SWAP1 DUP2 MSTORE PUSH1 0x1 PUSH1 0x20 SWAP1 DUP2 MSTORE PUSH1 0x40 SWAP2 DUP3 SWAP1 KECCAK256 DUP1 SLOAD DUP4 MLOAD DUP2 DUP5 MUL DUP2 ADD DUP5 ADD SWAP1 SWAP5 MSTORE DUP1 DUP5 MSTORE PUSH1 0x60 SWAP4 SWAP3 DUP4 ADD DUP3 DUP3 DUP1 ISZERO PUSH2 0x955 JUMPI PUSH1 0x20 MUL DUP3 ADD SWAP2 SWAP1 PUSH1 0x0 MSTORE PUSH1 0x20 PUSH1 0x0 KECCAK256 SWAP1 JUMPDEST DUP2 SLOAD DUP2 MSTORE PUSH1 0x20 ADD SWAP1 PUSH1 0x1 ADD SWAP1 DUP1 DUP4 GT PUSH2 0x941 JUMPI JUMPDEST POP POP POP POP POP SWAP1 POP SWAP2 SWAP1 POP JUMP JUMPDEST PUSH1 0xB SLOAD PUSH1 0x1 PUSH1 0x1 PUSH1 0x40 SHL SUB AND TIMESTAMP LT ISZERO PUSH2 0x98D JUMPI PUSH1 0x40 MLOAD PUSH4 0xC2695BF PUSH1 0xE1 SHL DUP2 MSTORE PUSH1 0x4 ADD PUSH1 0x40 MLOAD DUP1 SWAP2 SUB SWAP1 REVERT JUMPDEST PUSH1 0xB SLOAD PUSH1 0x1 PUSH1 0x40 SHL SWAP1 DIV PUSH1 0xFF AND ISZERO PUSH2 0x9B8 JUMPI PUSH1 0x40 MLOAD PUSH4 0xA7F733D PUSH1 0xE4 SHL DUP2 MSTORE PUSH1 0x4 ADD PUSH1 0x40 MLOAD DUP1 SWAP2 SUB SWAP1 REVERT JUMPDEST PUSH1 0x4 DUP1 SLOAD PUSH1 0x40 MLOAD PUSH4 0x2ABF579 PUSH1 0xE6 SHL DUP2 MSTORE PUSH14 0x2930B73237B6A83937BB34B232B9 PUSH1 0x91 SHL SWAP3 DUP2 ADD SWAP3 SWAP1 SWAP3 MSTORE CALLER SWAP2 PUSH1 0x1 PUSH1 0x1 PUSH1 0xA0 SHL SUB SWAP1 SWAP2 AND SWAP1 PUSH4 0xAAFD5E40 SWAP1 PUSH1 0x24 ADD PUSH1 0x20 PUSH1 0x40 MLOAD DUP1 DUP4 SUB DUP2 DUP7 GAS STATICCALL ISZERO DUP1 ISZERO PUSH2 0xA16 JUMPI RETURNDATASIZE PUSH1 0x0 DUP1 RETURNDATACOPY RETURNDATASIZE PUSH1 0x0 REVERT JUMPDEST POP POP POP POP PUSH1 0x40 MLOAD RETURNDATASIZE PUSH1 0x1F NOT PUSH1 0x1F DUP3 ADD AND DUP3 ADD DUP1 PUSH1 0x40 MSTORE POP DUP2 ADD SWAP1 PUSH2 0xA3A SWAP2 SWAP1 PUSH2 0x10E8 JUMP JUMPDEST PUSH1 0x1 PUSH1 0x1 PUSH1 0xA0 SHL SUB AND EQ PUSH2 0xA61 JUMPI PUSH1 0x40 MLOAD PUSH4 0x170CD40B PUSH1 0xE3 SHL DUP2 MSTORE PUSH1 0x4 ADD PUSH1 0x40 MLOAD DUP1 SWAP2 SUB SWAP1 REVERT JUMPDEST DUP1 PUSH1 0x0 SUB PUSH2 0xA82 JUMPI PUSH1 0x40 MLOAD PUSH4 0x98FCCB27 PUSH1 0xE0 SHL DUP2 MSTORE PUSH1 0x4 ADD PUSH1 0x40 MLOAD DUP1 SWAP2 SUB SWAP1 REVERT JUMPDEST PUSH1 0x8 SLOAD PUSH2 0xA8F SWAP1 DUP3 PUSH2 0x1140 JUMP JUMPDEST PUSH1 0xA DUP2 SWAP1 SSTORE PUSH1 0xB DUP1 SLOAD PUSH9 0xFF0000000000000000 NOT AND PUSH1 0x1 PUSH1 0x40 SHL OR SWAP1 SSTORE PUSH1 0x40 MLOAD ADDRESS SWAP2 PUSH32 0xBD2EF7D8E723142E22EED26D859400CDA0AC602EDACDDC8B13F96C921011A9AC SWAP2 PUSH2 0xADF SWAP2 DUP2 MSTORE PUSH1 0x20 ADD SWAP1 JUMP JUMPDEST PUSH1 0x40 MLOAD DUP1 SWAP2 SUB SWAP1 LOG2 POP JUMP JUMPDEST PUSH1 0xB SLOAD PUSH1 0x1 PUSH1 0x1 PUSH1 0x40 SHL SUB AND TIMESTAMP LT PUSH2 0xB15 JUMPI PUSH1 0x40 MLOAD PUSH4 0x377D0B85 PUSH1 0xE1 SHL DUP2 MSTORE PUSH1 0x4 ADD PUSH1 0x40 MLOAD DUP1 SWAP2 SUB SWAP1 REVERT JUMPDEST DUP1 PUSH1 0x0 SUB PUSH2 0xB36 JUMPI PUSH1 0x40 MLOAD PUSH4 0x98FCCB27 PUSH1 0xE0 SHL DUP2 MSTORE PUSH1 0x4 ADD PUSH1 0x40 MLOAD DUP1 SWAP2 SUB SWAP1 REVERT JUMPDEST PUSH1 0x7 SLOAD DUP2 PUSH2 0xB43 PUSH1 0x8 SLOAD SWAP1 JUMP JUMPDEST PUSH2 0xB4D SWAP2 SWAP1 PUSH2 0x1162 JUMP JUMPDEST GT ISZERO PUSH2 0xB6C JUMPI PUSH1 0x40 MLOAD PUSH4 0x84BFCB95 PUSH1 0xE0 SHL DUP2 MSTORE PUSH1 0x4 ADD PUSH1 0x40 MLOAD DUP1 SWAP2 SUB SWAP1 REVERT JUMPDEST PUSH1 0x3 SLOAD PUSH1 0x40 MLOAD PUSH4 0x70A08231 PUSH1 0xE0 SHL DUP2 MSTORE CALLER PUSH1 0x4 DUP3 ADD MSTORE PUSH1 0x1 PUSH1 0x1 PUSH1 0xA0 SHL SUB SWAP1 SWAP2 AND SWAP1 PUSH4 0x70A08231 SWAP1 PUSH1 0x24 ADD PUSH1 0x20 PUSH1 0x40 MLOAD DUP1 DUP4 SUB DUP2 DUP7 GAS STATICCALL ISZERO DUP1 ISZERO PUSH2 0xBB4 JUMPI RETURNDATASIZE PUSH1 0x0 DUP1 RETURNDATACOPY RETURNDATASIZE PUSH1 0x0 REVERT JUMPDEST POP POP POP POP PUSH1 0x40 MLOAD RETURNDATASIZE PUSH1 0x1F NOT PUSH1 0x1F DUP3 ADD AND DUP3 ADD DUP1 PUSH1 0x40 MSTORE POP DUP2 ADD SWAP1 PUSH2 0xBD8 SWAP2 SWAP1 PUSH2 0x1105 JUMP JUMPDEST PUSH2 0xBE1 DUP3 PUSH2 0xE76 JUMP JUMPDEST GT ISZERO PUSH2 0xC00 JUMPI PUSH1 0x40 MLOAD PUSH4 0x119563E5 PUSH1 0xE3 SHL DUP2 MSTORE PUSH1 0x4 ADD PUSH1 0x40 MLOAD DUP1 SWAP2 SUB SWAP1 REVERT JUMPDEST PUSH1 0x3 SLOAD PUSH1 0x1 PUSH1 0x1 PUSH1 0xA0 SHL SUB AND PUSH4 0x23B872DD CALLER ADDRESS PUSH2 0xC1C DUP6 PUSH2 0xE76 JUMP JUMPDEST PUSH1 0x40 MLOAD PUSH1 0x1 PUSH1 0x1 PUSH1 0xE0 SHL SUB NOT PUSH1 0xE0 DUP7 SWAP1 SHL AND DUP2 MSTORE PUSH1 0x1 PUSH1 0x1 PUSH1 0xA0 SHL SUB SWAP4 DUP5 AND PUSH1 0x4 DUP3 ADD MSTORE SWAP3 SWAP1 SWAP2 AND PUSH1 0x24 DUP4 ADD MSTORE PUSH1 0x44 DUP3 ADD MSTORE PUSH1 0x64 ADD PUSH1 0x20 PUSH1 0x40 MLOAD DUP1 DUP4 SUB DUP2 PUSH1 0x0 DUP8 GAS CALL ISZERO DUP1 ISZERO PUSH2 0xC70 JUMPI RETURNDATASIZE PUSH1 0x0 DUP1 RETURNDATACOPY RETURNDATASIZE PUSH1 0x0 REVERT JUMPDEST POP POP POP POP PUSH1 0x40 MLOAD RETURNDATASIZE PUSH1 0x1F NOT PUSH1 0x1F DUP3 ADD AND DUP3 ADD DUP1 PUSH1 0x40 MSTORE POP DUP2 ADD SWAP1 PUSH2 0xC94 SWAP2 SWAP1 PUSH2 0x111E JUMP JUMPDEST POP CALLER PUSH1 0x0 SWAP1 DUP2 MSTORE PUSH1 0x1 PUSH1 0x20 MSTORE PUSH1 0x40 DUP2 KECCAK256 PUSH1 0x8 SLOAD SWAP1 SWAP2 DUP4 PUSH1 0x1 PUSH1 0x1 PUSH1 0x40 SHL SUB DUP2 GT ISZERO PUSH2 0xCC1 JUMPI PUSH2 0xCC1 PUSH2 0xE8D JUMP JUMPDEST PUSH1 0x40 MLOAD SWAP1 DUP1 DUP3 MSTORE DUP1 PUSH1 0x20 MUL PUSH1 0x20 ADD DUP3 ADD PUSH1 0x40 MSTORE DUP1 ISZERO PUSH2 0xCEA JUMPI DUP2 PUSH1 0x20 ADD PUSH1 0x20 DUP3 MUL DUP1 CALLDATASIZE DUP4 CALLDATACOPY ADD SWAP1 POP JUMPDEST POP SWAP1 POP PUSH1 0x0 JUMPDEST DUP5 DUP2 LT ISZERO PUSH2 0xD56 JUMPI DUP3 DUP3 DUP3 DUP2 MLOAD DUP2 LT PUSH2 0xD0B JUMPI PUSH2 0xD0B PUSH2 0x1175 JUMP JUMPDEST PUSH1 0x20 SWAP1 DUP2 MUL SWAP2 SWAP1 SWAP2 ADD DUP2 ADD SWAP2 SWAP1 SWAP2 MSTORE DUP5 SLOAD PUSH1 0x1 DUP2 DUP2 ADD DUP8 SSTORE PUSH1 0x0 DUP8 DUP2 MSTORE DUP4 DUP2 KECCAK256 SWAP1 SWAP3 ADD DUP7 SWAP1 SSTORE DUP6 DUP3 MSTORE SWAP2 DUP2 SWAP1 MSTORE PUSH1 0x40 SWAP1 KECCAK256 DUP1 SLOAD PUSH1 0x1 PUSH1 0x1 PUSH1 0xA0 SHL SUB NOT AND CALLER OR SWAP1 SSTORE SWAP3 DUP4 ADD SWAP3 ADD PUSH2 0xCF0 JUMP JUMPDEST POP PUSH1 0x8 DUP3 SWAP1 SSTORE PUSH1 0x40 MLOAD CALLER SWAP1 ADDRESS SWAP1 PUSH32 0x3298F998ADC3EC4BDCC9BB12F2A924F1D28C61596124855D7D6D4D09E231847A SWAP1 PUSH2 0xD90 SWAP1 DUP6 SWAP1 PUSH2 0xFC7 JUMP JUMPDEST PUSH1 0x40 MLOAD DUP1 SWAP2 SUB SWAP1 LOG3 POP POP POP POP JUMP JUMPDEST PUSH1 0xB SLOAD PUSH1 0x0 SWAP1 PUSH1 0x1 PUSH1 0x1 PUSH1 0x40 SHL SUB AND TIMESTAMP LT ISZERO PUSH2 0xDCD JUMPI PUSH1 0x40 MLOAD PUSH4 0xC2695BF PUSH1 0xE1 SHL DUP2 MSTORE PUSH1 0x4 ADD PUSH1 0x40 MLOAD DUP1 SWAP2 SUB SWAP1 REVERT JUMPDEST PUSH1 0xB SLOAD PUSH1 0x1 PUSH1 0x40 SHL SWAP1 DIV PUSH1 0xFF AND PUSH2 0xDF7 JUMPI PUSH1 0x40 MLOAD PUSH4 0x16DE2349 PUSH1 0xE1 SHL DUP2 MSTORE PUSH1 0x4 ADD PUSH1 0x40 MLOAD DUP1 SWAP2 SUB SWAP1 REVERT JUMPDEST POP PUSH1 0xA SLOAD SWAP1 JUMP JUMPDEST PUSH1 0xB SLOAD PUSH1 0x0 SWAP1 PUSH1 0x1 PUSH1 0x1 PUSH1 0x40 SHL SUB AND TIMESTAMP LT ISZERO PUSH2 0xE2D JUMPI PUSH1 0x40 MLOAD PUSH4 0xC2695BF PUSH1 0xE1 SHL DUP2 MSTORE PUSH1 0x4 ADD PUSH1 0x40 MLOAD DUP1 SWAP2 SUB SWAP1 REVERT JUMPDEST PUSH1 0xB SLOAD PUSH1 0x1 PUSH1 0x40 SHL SWAP1 DIV PUSH1 0xFF AND PUSH2 0xE57 JUMPI PUSH1 0x40 MLOAD PUSH4 0x16DE2349 PUSH1 0xE1 SHL DUP2 MSTORE PUSH1 0x4 ADD PUSH1 0x40 MLOAD DUP1 SWAP2 SUB SWAP1 REVERT JUMPDEST POP PUSH1 0xA SLOAD PUSH1 0x0 SWAP1 DUP2 MSTORE PUSH1 0x20 DUP2 SWAP1 MSTORE PUSH1 0x40 SWAP1 KECCAK256 SLOAD PUSH1 0x1 PUSH1 0x1 PUSH1 0xA0 SHL SUB AND SWAP1 JUMP JUMPDEST PUSH1 0x9 SLOAD PUSH1 0x0 SWAP1 PUSH2 0xE87 SWAP1 DUP4 SWAP1 PUSH2 0x118B JUMP JUMPDEST SWAP3 SWAP2 POP POP JUMP JUMPDEST PUSH4 0x4E487B71 PUSH1 0xE0 SHL PUSH1 0x0 MSTORE PUSH1 0x41 PUSH1 0x4 MSTORE PUSH1 0x24 PUSH1 0x0 REVERT JUMPDEST PUSH1 0x1 PUSH1 0x1 PUSH1 0xA0 SHL SUB DUP2 AND DUP2 EQ PUSH2 0xEB8 JUMPI PUSH1 0x0 DUP1 REVERT JUMPDEST POP JUMP JUMPDEST DUP1 CALLDATALOAD PUSH2 0xEC6 DUP2 PUSH2 0xEA3 JUMP JUMPDEST SWAP2 SWAP1 POP JUMP JUMPDEST DUP1 CALLDATALOAD PUSH1 0x1 PUSH1 0x1 PUSH1 0x40 SHL SUB DUP2 AND DUP2 EQ PUSH2 0xEC6 JUMPI PUSH1 0x0 DUP1 REVERT JUMPDEST PUSH1 0x0 PUSH1 0xE0 DUP3 DUP5 SUB SLT ISZERO PUSH2 0xEF4 JUMPI PUSH1 0x0 DUP1 REVERT JUMPDEST PUSH1 0x40 MLOAD PUSH1 0xE0 DUP2 ADD DUP2 DUP2 LT PUSH1 0x1 PUSH1 0x1 PUSH1 0x40 SHL SUB DUP3 GT OR ISZERO PUSH2 0xF24 JUMPI PUSH4 0x4E487B71 PUSH1 0xE0 SHL PUSH1 0x0 MSTORE PUSH1 0x41 PUSH1 0x4 MSTORE PUSH1 0x24 PUSH1 0x0 REVERT JUMPDEST PUSH1 0x40 MSTORE PUSH2 0xF30 DUP4 PUSH2 0xEBB JUMP JUMPDEST DUP2 MSTORE PUSH2 0xF3E PUSH1 0x20 DUP5 ADD PUSH2 0xEBB JUMP JUMPDEST PUSH1 0x20 DUP3 ADD MSTORE PUSH2 0xF4F PUSH1 0x40 DUP5 ADD PUSH2 0xEBB JUMP JUMPDEST PUSH1 0x40 DUP3 ADD MSTORE PUSH1 0x60 DUP4 ADD CALLDATALOAD PUSH1 0x60 DUP3 ADD MSTORE PUSH1 0x80 DUP4 ADD CALLDATALOAD PUSH1 0x80 DUP3 ADD MSTORE PUSH1 0xA0 DUP4 ADD CALLDATALOAD PUSH1 0xA0 DUP3 ADD MSTORE PUSH2 0xF7E PUSH1 0xC0 DUP5 ADD PUSH2 0xECB JUMP JUMPDEST PUSH1 0xC0 DUP3 ADD MSTORE SWAP4 SWAP3 POP POP POP JUMP JUMPDEST PUSH1 0x0 PUSH1 0x20 DUP3 DUP5 SUB SLT ISZERO PUSH2 0xF9C JUMPI PUSH1 0x0 DUP1 REVERT JUMPDEST POP CALLDATALOAD SWAP2 SWAP1 POP JUMP JUMPDEST PUSH1 0x0 PUSH1 0x20 DUP3 DUP5 SUB SLT ISZERO PUSH2 0xFB5 JUMPI PUSH1 0x0 DUP1 REVERT JUMPDEST DUP2 CALLDATALOAD PUSH2 0xFC0 DUP2 PUSH2 0xEA3 JUMP JUMPDEST SWAP4 SWAP3 POP POP POP JUMP JUMPDEST PUSH1 0x20 DUP1 DUP3 MSTORE DUP3 MLOAD DUP3 DUP3 ADD DUP2 SWAP1 MSTORE PUSH1 0x0 SWAP2 SWAP1 DUP5 DUP3 ADD SWAP1 PUSH1 0x40 DUP6 ADD SWAP1 DUP5 JUMPDEST DUP2 DUP2 LT ISZERO PUSH2 0xFFF JUMPI DUP4 MLOAD DUP4 MSTORE SWAP3 DUP5 ADD SWAP3 SWAP2 DUP5 ADD SWAP2 PUSH1 0x1 ADD PUSH2 0xFE3 JUMP JUMPDEST POP SWAP1 SWAP7 SWAP6 POP POP POP POP POP POP JUMP JUMPDEST PUSH4 0x4E487B71 PUSH1 0xE0 SHL PUSH1 0x0 MSTORE PUSH1 0x11 PUSH1 0x4 MSTORE PUSH1 0x24 PUSH1 0x0 REVERT JUMPDEST PUSH1 0x1 PUSH1 0x1 PUSH1 0x40 SHL SUB DUP2 DUP2 AND DUP4 DUP3 AND ADD SWAP1 DUP1 DUP3 GT ISZERO PUSH2 0x1041 JUMPI PUSH2 0x1041 PUSH2 0x100B JUMP JUMPDEST POP SWAP3 SWAP2 POP POP JUMP JUMPDEST DUP2 SLOAD PUSH1 0x1 PUSH1 0x1 PUSH1 0xA0 SHL SUB AND DUP2 MSTORE PUSH2 0x160 DUP2 ADD PUSH1 0x1 DUP4 ADD SLOAD PUSH1 0x1 PUSH1 0x1 PUSH1 0xA0 SHL SUB SWAP1 DUP2 AND PUSH1 0x20 DUP5 ADD MSTORE PUSH1 0x2 DUP5 ADD SLOAD DUP2 AND PUSH1 0x40 DUP1 DUP6 ADD SWAP2 SWAP1 SWAP2 MSTORE PUSH1 0x3 DUP6 ADD SLOAD SWAP1 SWAP2 AND PUSH1 0x60 DUP5 ADD MSTORE PUSH1 0x4 DUP5 ADD SLOAD PUSH1 0x80 DUP5 ADD MSTORE PUSH1 0x5 DUP5 ADD SLOAD PUSH1 0xA0 DUP5 ADD MSTORE PUSH1 0x6 DUP5 ADD SLOAD PUSH1 0xC0 DUP5 ADD MSTORE PUSH1 0x7 DUP5 ADD SLOAD PUSH1 0xE0 DUP5 ADD MSTORE PUSH1 0x8 DUP5 ADD SLOAD PUSH2 0x100 DUP5 ADD MSTORE PUSH1 0x9 DUP5 ADD SLOAD PUSH1 0x1 PUSH1 0x1 PUSH1 0x40 SHL SUB DUP2 AND PUSH2 0x120 DUP6 ADD MSTORE SWAP1 DUP2 SWAP1 SHR PUSH1 0xFF AND ISZERO ISZERO PUSH2 0x140 DUP5 ADD MSTORE PUSH2 0x1041 JUMP JUMPDEST PUSH1 0x0 PUSH1 0x20 DUP3 DUP5 SUB SLT ISZERO PUSH2 0x10FA JUMPI PUSH1 0x0 DUP1 REVERT JUMPDEST DUP2 MLOAD PUSH2 0xFC0 DUP2 PUSH2 0xEA3 JUMP JUMPDEST PUSH1 0x0 PUSH1 0x20 DUP3 DUP5 SUB SLT ISZERO PUSH2 0x1117 JUMPI PUSH1 0x0 DUP1 REVERT JUMPDEST POP MLOAD SWAP2 SWAP1 POP JUMP JUMPDEST PUSH1 0x0 PUSH1 0x20 DUP3 DUP5 SUB SLT ISZERO PUSH2 0x1130 JUMPI PUSH1 0x0 DUP1 REVERT JUMPDEST DUP2 MLOAD DUP1 ISZERO ISZERO DUP2 EQ PUSH2 0xFC0 JUMPI PUSH1 0x0 DUP1 REVERT JUMPDEST PUSH1 0x0 DUP3 PUSH2 0x115D JUMPI PUSH4 0x4E487B71 PUSH1 0xE0 SHL PUSH1 0x0 MSTORE PUSH1 0x12 PUSH1 0x4 MSTORE PUSH1 0x24 PUSH1 0x0 REVERT JUMPDEST POP MOD SWAP1 JUMP JUMPDEST DUP1 DUP3 ADD DUP1 DUP3 GT ISZERO PUSH2 0xE87 JUMPI PUSH2 0xE87 PUSH2 0x100B JUMP JUMPDEST PUSH4 0x4E487B71 PUSH1 0xE0 SHL PUSH1 0x0 MSTORE PUSH1 0x32 PUSH1 0x4 MSTORE PUSH1 0x24 PUSH1 0x0 REVERT JUMPDEST DUP1 DUP3 MUL DUP2 ISZERO DUP3 DUP3 DIV DUP5 EQ OR PUSH2 0xE87 JUMPI PUSH2 0xE87 PUSH2 0x100B JUMP INVALID LOG2 PUSH5 0x6970667358 0x22 SLT KECCAK256 LOG3 ADDRESS CALLER 0x49 DUP13 PUSH16 0xDD5FDB0EFFCA4D0089BA1AFB5C8CAA0D TIMESTAMP CALLER PUSH17 0x40F0BA0EEAD63464736F6C634300081100 CALLER "},"gasEstimates":{"creation":{"codeDepositCost":"913600","executionCost":"948","totalCost":"914548"},"external":{"balanceOf(address)":"infinite","claimPrice()":"infinite","claimTicketSalesAmount()":"infinite","creator()":"2333","drawnRandomTicket()":"infinite","drawnTicket(uint256)":"infinite","endTime()":"2346","initialize((address,address,address,uint256,uint256,uint256,uint64))":"infinite","isTicketDrawn()":"2376","maxSupply()":"2380","nftToWin()":"4556","ownerOf(uint256)":"2492","purchaseCurrency()":"2387","purchaseTickets(uint256)":"infinite","ticketPrice()":"2327","totalSupply()":"2382","winnerAddress()":"8908","winningTicket()":"6664"},"internal":{"_calculateTotalTicketsPrice(uint256)":"infinite"}},"methodIdentifiers":{"balanceOf(address)":"70a08231","claimPrice()":"15d655c9","claimTicketSalesAmount()":"636ed74c","creator()":"02d05d3f","drawnRandomTicket()":"5e4aaae8","drawnTicket(uint256)":"87409f3c","endTime()":"3197cbb6","initialize((address,address,address,uint256,uint256,uint256,uint64))":"237be938","isTicketDrawn()":"32095a66","maxSupply()":"d5abeb01","nftToWin()":"3b398ff8","ownerOf(uint256)":"6352211e","purchaseCurrency()":"6a4a5b2d","purchaseTickets(uint256)":"a1277600","ticketPrice()":"1209b1f6","totalSupply()":"18160ddd","winnerAddress()":"ed7a4e0b","winningTicket()":"c26eea54"}},"storageLayout":{"storage":[{"astId":5447,"contract":"src/raffle/Raffle.sol:Raffle","label":"_ticketOwner","offset":0,"slot":"0","type":"t_mapping(t_uint256,t_address)"},{"astId":5452,"contract":"src/raffle/Raffle.sol:Raffle","label":"_ownerTickets","offset":0,"slot":"1","type":"t_mapping(t_address,t_array(t_uint256)dyn_storage)"},{"astId":5455,"contract":"src/raffle/Raffle.sol:Raffle","label":"_globalData","offset":0,"slot":"2","type":"t_struct(RaffleData)5419_storage"},{"astId":549,"contract":"src/raffle/Raffle.sol:Raffle","label":"_initialized","offset":0,"slot":"12","type":"t_uint8"},{"astId":552,"contract":"src/raffle/Raffle.sol:Raffle","label":"_initializing","offset":1,"slot":"12","type":"t_bool"}],"types":{"t_address":{"encoding":"inplace","label":"address","numberOfBytes":"20"},"t_array(t_uint256)dyn_storage":{"base":"t_uint256","encoding":"dynamic_array","label":"uint256[]","numberOfBytes":"32"},"t_bool":{"encoding":"inplace","label":"bool","numberOfBytes":"1"},"t_contract(IERC20)1376":{"encoding":"inplace","label":"contract IERC20","numberOfBytes":"20"},"t_contract(IERC721)2462":{"encoding":"inplace","label":"contract IERC721","numberOfBytes":"20"},"t_contract(IImplementationManager)4449":{"encoding":"inplace","label":"contract IImplementationManager","numberOfBytes":"20"},"t_mapping(t_address,t_array(t_uint256)dyn_storage)":{"encoding":"mapping","key":"t_address","label":"mapping(address => uint256[])","numberOfBytes":"32","value":"t_array(t_uint256)dyn_storage"},"t_mapping(t_uint256,t_address)":{"encoding":"mapping","key":"t_uint256","label":"mapping(uint256 => address)","numberOfBytes":"32","value":"t_address"},"t_struct(RaffleData)5419_storage":{"encoding":"inplace","label":"struct RaffleDataTypes.RaffleData","members":[{"astId":5395,"contract":"src/raffle/Raffle.sol:Raffle","label":"creator","offset":0,"slot":"0","type":"t_address"},{"astId":5398,"contract":"src/raffle/Raffle.sol:Raffle","label":"purchaseCurrency","offset":0,"slot":"1","type":"t_contract(IERC20)1376"},{"astId":5401,"contract":"src/raffle/Raffle.sol:Raffle","label":"implementationManager","offset":0,"slot":"2","type":"t_contract(IImplementationManager)4449"},{"astId":5404,"contract":"src/raffle/Raffle.sol:Raffle","label":"nftContract","offset":0,"slot":"3","type":"t_contract(IERC721)2462"},{"astId":5406,"contract":"src/raffle/Raffle.sol:Raffle","label":"nftId","offset":0,"slot":"4","type":"t_uint256"},{"astId":5408,"contract":"src/raffle/Raffle.sol:Raffle","label":"maxTicketSupply","offset":0,"slot":"5","type":"t_uint256"},{"astId":5410,"contract":"src/raffle/Raffle.sol:Raffle","label":"ticketSupply","offset":0,"slot":"6","type":"t_uint256"},{"astId":5412,"contract":"src/raffle/Raffle.sol:Raffle","label":"ticketPrice","offset":0,"slot":"7","type":"t_uint256"},{"astId":5414,"contract":"src/raffle/Raffle.sol:Raffle","label":"winningTicketNumber","offset":0,"slot":"8","type":"t_uint256"},{"astId":5416,"contract":"src/raffle/Raffle.sol:Raffle","label":"endTime","offset":0,"slot":"9","type":"t_uint64"},{"astId":5418,"contract":"src/raffle/Raffle.sol:Raffle","label":"isTicketDrawn","offset":8,"slot":"9","type":"t_bool"}],"numberOfBytes":"320"},"t_uint256":{"encoding":"inplace","label":"uint256","numberOfBytes":"32"},"t_uint64":{"encoding":"inplace","label":"uint64","numberOfBytes":"8"},"t_uint8":{"encoding":"inplace","label":"uint8","numberOfBytes":"1"}}},"userdoc":{"kind":"user","methods":{"balanceOf(address)":{"notice":"get all tickets number bought by a user"},"claimPrice()":{"notice":"Allows the winner to claim his price"},"claimTicketSalesAmount()":{"notice":"Allows the creator to claim the amount related to the ticket sales"},"creator()":{"notice":"get the address of the wallet that initiated the raffle"},"drawnRandomTicket()":{"notice":"Request a random number"},"drawnTicket(uint256)":{"notice":"Select the winning tickets number received from the RandomProvider contract"},"endTime()":{"notice":"get the end time before ticket sales closing"},"isTicketDrawn()":{"notice":"get info if the winning ticket has been drawn"},"maxSupply()":{"notice":"get the max amount of tickets that can be sold"},"nftToWin()":{"notice":"get the information regarding the nft to win"},"ownerOf(uint256)":{"notice":"get the wallet that bought a specific ticket number"},"purchaseCurrency()":{"notice":"get the address of the token used to buy tickets"},"purchaseTickets(uint256)":{"notice":"Allows users to purchase tickets"},"ticketPrice()":{"notice":"get the price of one ticket"},"totalSupply()":{"notice":"get the total amount of tickets sold"},"winnerAddress()":{"notice":"get the winner address"},"winningTicket()":{"notice":"get the winning ticket number"}},"version":1}}}}