{"src/libraries/helpers/ImplementationInterfaceNames.sol":{"ImplementationInterfaceNames":{"abi":[{"inputs":[],"name":"AccessController","outputs":[{"internalType":"bytes32","name":"","type":"bytes32"}],"stateMutability":"view","type":"function"},{"inputs":[],"name":"RaffleContract","outputs":[{"internalType":"bytes32","name":"","type":"bytes32"}],"stateMutability":"view","type":"function"},{"inputs":[],"name":"RandomProvider","outputs":[{"internalType":"bytes32","name":"","type":"bytes32"}],"stateMutability":"view","type":"function"}],"devdoc":{"kind":"dev","methods":{},"version":1},"evm":{"bytecode":{"linkReferences":{},"object":"60db610039600b82828239805160001a60731461002c57634e487b7160e01b600052600060045260246000fd5b30600052607381538281f3fe730000000000000000000000000000000000000000301460806040526004361060475760003560e01c80631ba8e4ec14604c57806337c1de4c146075578063d4fc882314608c575b600080fd5b60636d149859999b1950dbdb9d1c9858dd60921b81565b60405190815260200160405180910390f35b60636d2930b73237b6a83937bb34b232b960911b81565b60636f20b1b1b2b9b9a1b7b73a3937b63632b960811b8156fea26469706673582212200120bca0a62f73a85bb3718cdc3b81d3585c62cbf1fd31d7e5126abe0a6bb9e064736f6c63430008110033","opcodes":"PUSH1 0xDB PUSH2 0x39 PUSH1 0xB DUP3 DUP3 DUP3 CODECOPY DUP1 MLOAD PUSH1 0x0 BYTE PUSH1 0x73 EQ PUSH2 0x2C JUMPI PUSH4 0x4E487B71 PUSH1 0xE0 SHL PUSH1 0x0 MSTORE PUSH1 0x0 PUSH1 0x4 MSTORE PUSH1 0x24 PUSH1 0x0 REVERT JUMPDEST ADDRESS PUSH1 0x0 MSTORE PUSH1 0x73 DUP2 MSTORE8 DUP3 DUP2 RETURN INVALID PUSH20 0x0 ADDRESS EQ PUSH1 0x80 PUSH1 0x40 MSTORE PUSH1 0x4 CALLDATASIZE LT PUSH1 0x47 JUMPI PUSH1 0x0 CALLDATALOAD PUSH1 0xE0 SHR DUP1 PUSH4 0x1BA8E4EC EQ PUSH1 0x4C JUMPI DUP1 PUSH4 0x37C1DE4C EQ PUSH1 0x75 JUMPI DUP1 PUSH4 0xD4FC8823 EQ PUSH1 0x8C JUMPI JUMPDEST PUSH1 0x0 DUP1 REVERT JUMPDEST PUSH1 0x63 PUSH14 0x149859999B1950DBDB9D1C9858DD PUSH1 0x92 SHL DUP2 JUMP JUMPDEST PUSH1 0x40 MLOAD SWAP1 DUP2 MSTORE PUSH1 0x20 ADD PUSH1 0x40 MLOAD DUP1 SWAP2 SUB SWAP1 RETURN JUMPDEST PUSH1 0x63 PUSH14 0x2930B73237B6A83937BB34B232B9 PUSH1 0x91 SHL DUP2 JUMP JUMPDEST PUSH1 0x63 PUSH16 0x20B1B1B2B9B9A1B7B73A3937B63632B9 PUSH1 0x81 SHL DUP2 JUMP INVALID LOG2 PUSH5 0x6970667358 0x22 SLT KECCAK256 ADD KECCAK256 0xBC LOG0 0xA6 0x2F PUSH20 0xA85BB3718CDC3B81D3585C62CBF1FD31D7E5126A 0xBE EXP PUSH12 0xB9E064736F6C634300081100 CALLER "},"gasEstimates":{"creation":{"codeDepositCost":"43800","executionCost":"127","totalCost":"43927"},"external":{"AccessController()":"195","RaffleContract()":"151","RandomProvider()":"173"}},"methodIdentifiers":{"AccessController()":"d4fc8823","RaffleContract()":"1ba8e4ec","RandomProvider()":"37c1de4c"}},"storageLayout":{"storage":[],"types":null},"userdoc":{"kind":"user","methods":{},"version":1}}}}