{
  "_format": "hh-sol-artifact-1",
  "contractName": "AccessController",
  "sourceName": "src/core/AccessController.sol",
  "abi": [
    {
      "inputs": [
        {
          "internalType": "address",
          "name": "maintainer",
          "type": "address"
        }
      ],
      "stateMutability": "nonpayable",
      "type": "constructor"
    },
    {
      "anonymous": false,
      "inputs": [
        {
          "indexed": true,
          "internalType": "bytes32",
          "name": "role",
          "type": "bytes32"
        },
        {
          "indexed": true,
          "internalType": "bytes32",
          "name": "previousAdminRole",
          "type": "bytes32"
        },
        {
          "indexed": true,
          "internalType": "bytes32",
          "name": "newAdminRole",
          "type": "bytes32"
        }
      ],
      "name": "RoleAdminChanged",
      "type": "event"
    },
    {
      "anonymous": false,
      "inputs": [
        {
          "indexed": true,
          "internalType": "bytes32",
          "name": "role",
          "type": "bytes32"
        },
        {
          "indexed": true,
          "internalType": "address",
          "name": "account",
          "type": "address"
        },
        {
          "indexed": true,
          "internalType": "address",
          "name": "sender",
          "type": "address"
        }
      ],
      "name": "RoleGranted",
      "type": "event"
    },
    {
      "anonymous": false,
      "inputs": [
        {
          "indexed": true,
          "internalType": "bytes32",
          "name": "role",
          "type": "bytes32"
        },
        {
          "indexed": true,
          "internalType": "address",
          "name": "account",
          "type": "address"
        },
        {
          "indexed": true,
          "internalType": "address",
          "name": "sender",
          "type": "address"
        }
      ],
      "name": "RoleRevoked",
      "type": "event"
    },
    {
      "inputs": [],
      "name": "DEFAULT_ADMIN_ROLE",
      "outputs": [
        {
          "internalType": "bytes32",
          "name": "",
          "type": "bytes32"
        }
      ],
      "stateMutability": "view",
      "type": "function"
    },
    {
      "inputs": [],
      "name": "MAINTAINER_ROLE",
      "outputs": [
        {
          "internalType": "bytes32",
          "name": "",
          "type": "bytes32"
        }
      ],
      "stateMutability": "view",
      "type": "function"
    },
    {
      "inputs": [
        {
          "internalType": "bytes32",
          "name": "role",
          "type": "bytes32"
        }
      ],
      "name": "getRoleAdmin",
      "outputs": [
        {
          "internalType": "bytes32",
          "name": "",
          "type": "bytes32"
        }
      ],
      "stateMutability": "view",
      "type": "function"
    },
    {
      "inputs": [
        {
          "internalType": "bytes32",
          "name": "role",
          "type": "bytes32"
        },
        {
          "internalType": "address",
          "name": "account",
          "type": "address"
        }
      ],
      "name": "grantRole",
      "outputs": [],
      "stateMutability": "nonpayable",
      "type": "function"
    },
    {
      "inputs": [
        {
          "internalType": "bytes32",
          "name": "role",
          "type": "bytes32"
        },
        {
          "internalType": "address",
          "name": "account",
          "type": "address"
        }
      ],
      "name": "hasRole",
      "outputs": [
        {
          "internalType": "bool",
          "name": "",
          "type": "bool"
        }
      ],
      "stateMutability": "view",
      "type": "function"
    },
    {
      "inputs": [
        {
          "internalType": "bytes32",
          "name": "role",
          "type": "bytes32"
        },
        {
          "internalType": "address",
          "name": "account",
          "type": "address"
        }
      ],
      "name": "renounceRole",
      "outputs": [],
      "stateMutability": "nonpayable",
      "type": "function"
    },
    {
      "inputs": [
        {
          "internalType": "bytes32",
          "name": "role",
          "type": "bytes32"
        },
        {
          "internalType": "address",
          "name": "account",
          "type": "address"
        }
      ],
      "name": "revokeRole",
      "outputs": [],
      "stateMutability": "nonpayable",
      "type": "function"
    },
    {
      "inputs": [
        {
          "internalType": "bytes4",
          "name": "interfaceId",
          "type": "bytes4"
        }
      ],
      "name": "supportsInterface",
      "outputs": [
        {
          "internalType": "bool",
          "name": "",
          "type": "bool"
        }
      ],
      "stateMutability": "view",
      "type": "function"
    }
  ],
  "bytecode": "0x608060405234801561001057600080fd5b506040516108f23803806108f283398101604081905261002f91610116565b61003a60003361006a565b6100647f339759585899103d2ace64958e37e18ccb0504652c81d4a1b8aa80fe2126ab958261006a565b50610146565b6100748282610078565b5050565b6000828152602081815260408083206001600160a01b038516845290915290205460ff16610074576000828152602081815260408083206001600160a01b03851684529091529020805460ff191660011790556100d23390565b6001600160a01b0316816001600160a01b0316837f2f8788117e7eff1d82e926ec794901d17c78024a50270940304540a733656f0d60405160405180910390a45050565b60006020828403121561012857600080fd5b81516001600160a01b038116811461013f57600080fd5b9392505050565b61079d806101556000396000f3fe608060405234801561001057600080fd5b50600436106100885760003560e01c806391d148541161005b57806391d148541461010e578063a217fddf14610121578063d547741f14610129578063f87422541461013c57600080fd5b806301ffc9a71461008d578063248a9ca3146100b55780632f2ff15d146100e657806336568abe146100fb575b600080fd5b6100a061009b366004610599565b610163565b60405190151581526020015b60405180910390f35b6100d86100c33660046105c3565b60009081526020819052604090206001015490565b6040519081526020016100ac565b6100f96100f43660046105dc565b61019a565b005b6100f96101093660046105dc565b6101c4565b6100a061011c3660046105dc565b610247565b6100d8600081565b6100f96101373660046105dc565b610270565b6100d87f339759585899103d2ace64958e37e18ccb0504652c81d4a1b8aa80fe2126ab9581565b60006001600160e01b03198216637965db0b60e01b148061019457506301ffc9a760e01b6001600160e01b03198316145b92915050565b6000828152602081905260409020600101546101b581610295565b6101bf83836102a2565b505050565b6001600160a01b03811633146102395760405162461bcd60e51b815260206004820152602f60248201527f416363657373436f6e74726f6c3a2063616e206f6e6c792072656e6f756e636560448201526e103937b632b9903337b91039b2b63360891b60648201526084015b60405180910390fd5b6102438282610326565b5050565b6000918252602082815260408084206001600160a01b0393909316845291905290205460ff1690565b60008281526020819052604090206001015461028b81610295565b6101bf8383610326565b61029f813361038b565b50565b6102ac8282610247565b610243576000828152602081815260408083206001600160a01b03851684529091529020805460ff191660011790556102e23390565b6001600160a01b0316816001600160a01b0316837f2f8788117e7eff1d82e926ec794901d17c78024a50270940304540a733656f0d60405160405180910390a45050565b6103308282610247565b15610243576000828152602081815260408083206001600160a01b0385168085529252808320805460ff1916905551339285917ff6391f5c32d9c69d2a47ea670b442974b53935d1edc7fd64eb21e047a839171b9190a45050565b6103958282610247565b610243576103a2816103e4565b6103ad8360206103f6565b6040516020016103be92919061063c565b60408051601f198184030181529082905262461bcd60e51b8252610230916004016106b1565b60606101946001600160a01b03831660145b606060006104058360026106fa565b610410906002610711565b67ffffffffffffffff81111561042857610428610724565b6040519080825280601f01601f191660200182016040528015610452576020820181803683370190505b509050600360fc1b8160008151811061046d5761046d61073a565b60200101906001600160f81b031916908160001a905350600f60fb1b8160018151811061049c5761049c61073a565b60200101906001600160f81b031916908160001a90535060006104c08460026106fa565b6104cb906001610711565b90505b6001811115610543576f181899199a1a9b1b9c1cb0b131b232b360811b85600f16601081106104ff576104ff61073a565b1a60f81b8282815181106105155761051561073a565b60200101906001600160f81b031916908160001a90535060049490941c9361053c81610750565b90506104ce565b5083156105925760405162461bcd60e51b815260206004820181905260248201527f537472696e67733a20686578206c656e67746820696e73756666696369656e746044820152606401610230565b9392505050565b6000602082840312156105ab57600080fd5b81356001600160e01b03198116811461059257600080fd5b6000602082840312156105d557600080fd5b5035919050565b600080604083850312156105ef57600080fd5b8235915060208301356001600160a01b038116811461060d57600080fd5b809150509250929050565b60005b8381101561063357818101518382015260200161061b565b50506000910152565b7f416363657373436f6e74726f6c3a206163636f756e7420000000000000000000815260008351610674816017850160208801610618565b7001034b99036b4b9b9b4b733903937b6329607d1b60179184019182015283516106a5816028840160208801610618565b01602801949350505050565b60208152600082518060208401526106d0816040850160208701610618565b601f01601f19169190910160400192915050565b634e487b7160e01b600052601160045260246000fd5b8082028115828204841417610194576101946106e4565b80820180821115610194576101946106e4565b634e487b7160e01b600052604160045260246000fd5b634e487b7160e01b600052603260045260246000fd5b60008161075f5761075f6106e4565b50600019019056fea264697066735822122036205bdc7d0a45da18d9c40365053c1baf2272152c55f65f9761e1b090d272a364736f6c63430008110033",
  "linkReferences": {},
  "deployedLinkReferences": {}
}