{
  "_format": "hh-sol-artifact-1",
  "contractName": "Raffle",
  "sourceName": "src/raffle/Raffle.sol",
  "abi": [
    {
      "inputs": [],
      "name": "CANT_BE_ZERO",
      "type": "error"
    },
    {
      "inputs": [],
      "name": "MAX_TICKET_SUPPLY_EXCEEDED",
      "type": "error"
    },
    {
      "inputs": [],
      "name": "MSG_SENDER_NOT_WINNER",
      "type": "error"
    },
    {
      "inputs": [],
      "name": "NOT_CREATOR",
      "type": "error"
    },
    {
      "inputs": [],
      "name": "NOT_ENOUGH_BALANCE",
      "type": "error"
    },
    {
      "inputs": [],
      "name": "RAFFLE_CLOSE",
      "type": "error"
    },
    {
      "inputs": [],
      "name": "RAFFLE_STILL_OPEN",
      "type": "error"
    },
    {
      "inputs": [],
      "name": "TICKET_ALREADY_DRAWN",
      "type": "error"
    },
    {
      "inputs": [],
      "name": "TICKET_NOT_DRAWN",
      "type": "error"
    },
    {
      "anonymous": false,
      "inputs": [
        {
          "indexed": true,
          "internalType": "address",
          "name": "raffleContract",
          "type": "address"
        },
        {
          "indexed": true,
          "internalType": "address",
          "name": "winner",
          "type": "address"
        },
        {
          "indexed": false,
          "internalType": "uint256",
          "name": "amountReceived",
          "type": "uint256"
        }
      ],
      "name": "CreatorClaimTicketSalesAmount",
      "type": "event"
    },
    {
      "anonymous": false,
      "inputs": [
        {
          "indexed": false,
          "internalType": "uint8",
          "name": "version",
          "type": "uint8"
        }
      ],
      "name": "Initialized",
      "type": "event"
    },
    {
      "anonymous": false,
      "inputs": [
        {
          "indexed": true,
          "internalType": "address",
          "name": "raffleContract",
          "type": "address"
        },
        {
          "components": [
            {
              "internalType": "address",
              "name": "creator",
              "type": "address"
            },
            {
              "internalType": "contract IERC20",
              "name": "purchaseCurrency",
              "type": "address"
            },
            {
              "internalType": "contract IERC721",
              "name": "nftContract",
              "type": "address"
            },
            {
              "internalType": "uint256",
              "name": "nftId",
              "type": "uint256"
            },
            {
              "internalType": "uint256",
              "name": "maxTicketSupply",
              "type": "uint256"
            },
            {
              "internalType": "uint256",
              "name": "ticketSupply",
              "type": "uint256"
            },
            {
              "internalType": "uint256",
              "name": "ticketPrice",
              "type": "uint256"
            },
            {
              "internalType": "uint256",
              "name": "winningTicketNumber",
              "type": "uint256"
            },
            {
              "internalType": "uint64",
              "name": "endTime",
              "type": "uint64"
            },
            {
              "internalType": "bool",
              "name": "isTicketDrawn",
              "type": "bool"
            }
          ],
          "indexed": false,
          "internalType": "struct RaffleDataTypes.RaffleData",
          "name": "globalData",
          "type": "tuple"
        }
      ],
      "name": "NewRaffle",
      "type": "event"
    },
    {
      "anonymous": false,
      "inputs": [
        {
          "indexed": true,
          "internalType": "address",
          "name": "raffleContract",
          "type": "address"
        },
        {
          "indexed": true,
          "internalType": "address",
          "name": "buyer",
          "type": "address"
        },
        {
          "indexed": false,
          "internalType": "uint256[]",
          "name": "ticketNumbers",
          "type": "uint256[]"
        }
      ],
      "name": "TicketPurchased",
      "type": "event"
    },
    {
      "anonymous": false,
      "inputs": [
        {
          "indexed": true,
          "internalType": "address",
          "name": "raffleContract",
          "type": "address"
        },
        {
          "indexed": true,
          "internalType": "address",
          "name": "winner",
          "type": "address"
        },
        {
          "indexed": true,
          "internalType": "address",
          "name": "nftContract",
          "type": "address"
        },
        {
          "indexed": false,
          "internalType": "uint256",
          "name": "nftId",
          "type": "uint256"
        }
      ],
      "name": "WinnerClaimedPrice",
      "type": "event"
    },
    {
      "anonymous": false,
      "inputs": [
        {
          "indexed": true,
          "internalType": "address",
          "name": "raffleContract",
          "type": "address"
        },
        {
          "indexed": false,
          "internalType": "uint256",
          "name": "winningTicket",
          "type": "uint256"
        }
      ],
      "name": "WinningTicketDrawned",
      "type": "event"
    },
    {
      "inputs": [
        {
          "internalType": "address",
          "name": "user",
          "type": "address"
        }
      ],
      "name": "balanceOf",
      "outputs": [
        {
          "internalType": "uint256[]",
          "name": "",
          "type": "uint256[]"
        }
      ],
      "stateMutability": "view",
      "type": "function"
    },
    {
      "inputs": [],
      "name": "claimPrice",
      "outputs": [],
      "stateMutability": "nonpayable",
      "type": "function"
    },
    {
      "inputs": [],
      "name": "claimTicketSalesAmount",
      "outputs": [],
      "stateMutability": "nonpayable",
      "type": "function"
    },
    {
      "inputs": [],
      "name": "creator",
      "outputs": [
        {
          "internalType": "address",
          "name": "",
          "type": "address"
        }
      ],
      "stateMutability": "view",
      "type": "function"
    },
    {
      "inputs": [],
      "name": "drawnTicket",
      "outputs": [],
      "stateMutability": "nonpayable",
      "type": "function"
    },
    {
      "inputs": [],
      "name": "endTime",
      "outputs": [
        {
          "internalType": "uint64",
          "name": "",
          "type": "uint64"
        }
      ],
      "stateMutability": "view",
      "type": "function"
    },
    {
      "inputs": [
        {
          "components": [
            {
              "internalType": "address",
              "name": "creator",
              "type": "address"
            },
            {
              "internalType": "contract IERC20",
              "name": "purchaseCurrency",
              "type": "address"
            },
            {
              "internalType": "contract IERC721",
              "name": "nftContract",
              "type": "address"
            },
            {
              "internalType": "uint256",
              "name": "nftId",
              "type": "uint256"
            },
            {
              "internalType": "uint256",
              "name": "maxTicketSupply",
              "type": "uint256"
            },
            {
              "internalType": "uint256",
              "name": "ticketPrice",
              "type": "uint256"
            },
            {
              "internalType": "uint64",
              "name": "endTime",
              "type": "uint64"
            }
          ],
          "internalType": "struct RaffleDataTypes.InitRaffleParams",
          "name": "_data",
          "type": "tuple"
        }
      ],
      "name": "initialize",
      "outputs": [],
      "stateMutability": "nonpayable",
      "type": "function"
    },
    {
      "inputs": [],
      "name": "isTicketDrawn",
      "outputs": [
        {
          "internalType": "bool",
          "name": "",
          "type": "bool"
        }
      ],
      "stateMutability": "view",
      "type": "function"
    },
    {
      "inputs": [],
      "name": "maxSupply",
      "outputs": [
        {
          "internalType": "uint256",
          "name": "",
          "type": "uint256"
        }
      ],
      "stateMutability": "view",
      "type": "function"
    },
    {
      "inputs": [],
      "name": "nftToWin",
      "outputs": [
        {
          "internalType": "contract IERC721",
          "name": "nftContractAddress",
          "type": "address"
        },
        {
          "internalType": "uint256",
          "name": "nftId",
          "type": "uint256"
        }
      ],
      "stateMutability": "view",
      "type": "function"
    },
    {
      "inputs": [
        {
          "internalType": "uint256",
          "name": "id",
          "type": "uint256"
        }
      ],
      "name": "ownerOf",
      "outputs": [
        {
          "internalType": "address",
          "name": "",
          "type": "address"
        }
      ],
      "stateMutability": "view",
      "type": "function"
    },
    {
      "inputs": [],
      "name": "purchaseCurrency",
      "outputs": [
        {
          "internalType": "contract IERC20",
          "name": "",
          "type": "address"
        }
      ],
      "stateMutability": "view",
      "type": "function"
    },
    {
      "inputs": [
        {
          "internalType": "uint256",
          "name": "nbOfTickets",
          "type": "uint256"
        }
      ],
      "name": "purchaseTickets",
      "outputs": [],
      "stateMutability": "nonpayable",
      "type": "function"
    },
    {
      "inputs": [],
      "name": "ticketPrice",
      "outputs": [
        {
          "internalType": "uint256",
          "name": "",
          "type": "uint256"
        }
      ],
      "stateMutability": "view",
      "type": "function"
    },
    {
      "inputs": [],
      "name": "totalSupply",
      "outputs": [
        {
          "internalType": "uint256",
          "name": "",
          "type": "uint256"
        }
      ],
      "stateMutability": "view",
      "type": "function"
    },
    {
      "inputs": [],
      "name": "winnerAddress",
      "outputs": [
        {
          "internalType": "address",
          "name": "",
          "type": "address"
        }
      ],
      "stateMutability": "view",
      "type": "function"
    },
    {
      "inputs": [],
      "name": "winningTicket",
      "outputs": [
        {
          "internalType": "uint256",
          "name": "",
          "type": "uint256"
        }
      ],
      "stateMutability": "view",
      "type": "function"
    }
  ],
  "bytecode": "0x608060405234801561001057600080fd5b50610fb7806100206000396000f3fe608060405234801561001057600080fd5b506004361061010b5760003560e01c80636352211e116100a2578063a127760011610071578063a127760014610241578063c26eea5414610254578063ccf1125c1461025c578063d5abeb0114610264578063ed7a4e0b1461026c57600080fd5b80636352211e146101df578063636ed74c146102085780636a4a5b2d1461021057806370a082311461022157600080fd5b8063237be938116100de578063237be9381461015e5780633197cbb61461017157806332095a661461018c5780633b398ff8146101a957600080fd5b806302d05d3f146101105780631209b1f61461013a57806315d655c91461014c57806318160ddd14610156575b600080fd5b6002546001600160a01b03165b6040516001600160a01b0390911681526020015b60405180910390f35b6008545b604051908152602001610131565b610154610274565b005b60075461013e565b61015461016c366004610cda565b6103ba565b600a546040516001600160401b039091168152602001610131565b600a54600160401b900460ff166040519015158152602001610131565b6101c06004546005546001600160a01b0390911691565b604080516001600160a01b039093168352602083019190915201610131565b61011d6101ed366004610d82565b6000908152602081905260409020546001600160a01b031690565b610154610607565b6003546001600160a01b031661011d565b61023461022f366004610d9b565b6107a6565b6040516101319190610dbf565b61015461024f366004610d82565b610812565b61013e610ac6565b610154610b26565b60065461013e565b61011d610bf6565b600a546001600160401b03164210156102a057604051630c2695bf60e11b815260040160405180910390fd5b600a54600160401b900460ff166102ca576040516316de234960e11b815260040160405180910390fd5b6102d2610bf6565b6001600160a01b0316336001600160a01b0316146103035760405163b4e5b12160e01b815260040160405180910390fd5b60048054600554604051632142170760e11b8152309381019390935233602484015260448301526001600160a01b0316906342842e0e90606401600060405180830381600087803b15801561035757600080fd5b505af115801561036b573d6000803e3d6000fd5b50506004546005546040519081526001600160a01b03909116925033915030907f1fc6b0218aceb86978fcfee181f91a4a3f28d1eddff4e6df0c3dc99c79ace6d49060200160405180910390a4565b600b54610100900460ff16158080156103da5750600b54600160ff909116105b806103f45750303b1580156103f45750600b5460ff166001145b61045b5760405162461bcd60e51b815260206004820152602e60248201527f496e697469616c697a61626c653a20636f6e747261637420697320616c72656160448201526d191e481a5b9a5d1a585b1a5e995960921b606482015260840160405180910390fd5b600b805460ff19166001179055801561047e57600b805461ff0019166101001790555b6040828101518351606085015192516323b872dd60e01b81526001600160a01b039182166004820152306024820152604481019390935216906323b872dd90606401600060405180830381600087803b1580156104da57600080fd5b505af11580156104ee573d6000803e3d6000fd5b50508351600280546001600160a01b039283166001600160a01b03199182161790915560208601516003805491841691831691909117905560408601516004805491909316911617905550506060820151600555608082015160065560a082015160085560c08201516105619042610e19565b600a805467ffffffffffffffff19166001600160401b039290921691909117905560405130907f2db21921e7bb87a5d99fc29841e4b9ad6d32f7e9f0f12471f615d5c611dcf4e2906105b590600290610e40565b60405180910390a2801561060357600b805461ff0019169055604051600181527f7f26b83ff96e1f2b6a682f133852f6798a09c465da95921460cefb38474024989060200160405180910390a15b5050565b600a546001600160401b031642101561063357604051630c2695bf60e11b815260040160405180910390fd5b600a54600160401b900460ff1661065d576040516316de234960e11b815260040160405180910390fd5b6002546001600160a01b0316331461068857604051632cff942760e01b815260040160405180910390fd5b6003546040516370a0823160e01b81523060048201526000916001600160a01b0316906370a0823190602401602060405180830381865afa1580156106d1573d6000803e3d6000fd5b505050506040513d601f19601f820116820180604052508101906106f59190610ed1565b60035460405163a9059cbb60e01b8152336004820152602481018390529192506001600160a01b03169063a9059cbb906044016020604051808303816000875af1158015610747573d6000803e3d6000fd5b505050506040513d601f19601f8201168201806040525081019061076b9190610eea565b50604051818152339030907f2427926a2340a250197c73c9c1a12ca71ee0f1f53f8e08badda42770afc6ecf69060200160405180910390a350565b6001600160a01b03811660009081526001602090815260409182902080548351818402810184019094528084526060939283018282801561080657602002820191906000526020600020905b8154815260200190600101908083116107f2575b50505050509050919050565b600a546001600160401b0316421061083d5760405163377d0b8560e11b815260040160405180910390fd5b8060000361085e576040516398fccb2760e01b815260040160405180910390fd5b6006548161086b60075490565b6108759190610f0c565b1115610894576040516384bfcb9560e01b815260040160405180910390fd5b6003546040516370a0823160e01b81523360048201526001600160a01b03909116906370a0823190602401602060405180830381865afa1580156108dc573d6000803e3d6000fd5b505050506040513d601f19601f820116820180604052508101906109009190610ed1565b61090982610c6e565b11156109285760405163119563e560e31b815260040160405180910390fd5b6003546001600160a01b03166323b872dd333061094485610c6e565b6040516001600160e01b031960e086901b1681526001600160a01b03938416600482015292909116602483015260448201526064016020604051808303816000875af1158015610998573d6000803e3d6000fd5b505050506040513d601f19601f820116820180604052508101906109bc9190610eea565b503360009081526001602052604081206007549091836001600160401b038111156109e9576109e9610c85565b604051908082528060200260200182016040528015610a12578160200160208202803683370190505b50905060005b84811015610a7e5782828281518110610a3357610a33610f1f565b6020908102919091018101919091528454600181810187556000878152838120909201869055858252918190526040902080546001600160a01b031916331790559283019201610a18565b506007829055604051339030907f3298f998adc3ec4bdcc9bb12f2a924f1d28c61596124855d7d6d4d09e231847a90610ab8908590610dbf565b60405180910390a350505050565b600a546000906001600160401b0316421015610af557604051630c2695bf60e11b815260040160405180910390fd5b600a54600160401b900460ff16610b1f576040516316de234960e11b815260040160405180910390fd5b5060095490565b600a546001600160401b0316421015610b5257604051630c2695bf60e11b815260040160405180910390fd5b600a54600160401b900460ff1615610b7d57604051630a7f733d60e41b815260040160405180910390fd5b6000610b8a600143610f35565b60075490409150610b9b9082610f48565b6009819055600a805468ff00000000000000001916600160401b17905560405130917fbd2ef7d8e723142e22eed26d859400cda0ac602edacddc8b13f96c921011a9ac91610beb91815260200190565b60405180910390a250565b600a546000906001600160401b0316421015610c2557604051630c2695bf60e11b815260040160405180910390fd5b600a54600160401b900460ff16610c4f576040516316de234960e11b815260040160405180910390fd5b506009546000908152602081905260409020546001600160a01b031690565b600854600090610c7f908390610f6a565b92915050565b634e487b7160e01b600052604160045260246000fd5b6001600160a01b0381168114610cb057600080fd5b50565b8035610cbe81610c9b565b919050565b80356001600160401b0381168114610cbe57600080fd5b600060e08284031215610cec57600080fd5b60405160e081018181106001600160401b0382111715610d1c57634e487b7160e01b600052604160045260246000fd5b604052610d2883610cb3565b8152610d3660208401610cb3565b6020820152610d4760408401610cb3565b6040820152606083013560608201526080830135608082015260a083013560a0820152610d7660c08401610cc3565b60c08201529392505050565b600060208284031215610d9457600080fd5b5035919050565b600060208284031215610dad57600080fd5b8135610db881610c9b565b9392505050565b6020808252825182820181905260009190848201906040850190845b81811015610df757835183529284019291840191600101610ddb565b50909695505050505050565b634e487b7160e01b600052601160045260246000fd5b6001600160401b03818116838216019080821115610e3957610e39610e03565b5092915050565b81546001600160a01b03168152610140810160018301546001600160a01b0390811660208401526002840154166040808401919091526003840154606084015260048401546080840152600584015460a0840152600684015460c0840152600784015460e084015260088401546001600160401b0381166101008501529081901c60ff161515610120840152610e39565b600060208284031215610ee357600080fd5b5051919050565b600060208284031215610efc57600080fd5b81518015158114610db857600080fd5b80820180821115610c7f57610c7f610e03565b634e487b7160e01b600052603260045260246000fd5b81810381811115610c7f57610c7f610e03565b600082610f6557634e487b7160e01b600052601260045260246000fd5b500690565b8082028115828204841417610c7f57610c7f610e0356fea26469706673582212201e9fa1818240fa80f2f8f72dc0cbeee3fe798d4f94da487c070d59fb4b4a2f6764736f6c63430008110033",
  "linkReferences": {},
  "deployedLinkReferences": {}
}