{
  "_format": "hh-sol-artifact-1",
  "contractName": "ImplementationInterfaceNames",
  "sourceName": "src/libraries/helpers/ImplementationInterfaceNames.sol",
  "abi": [
    {
      "inputs": [],
      "name": "AccessController",
      "outputs": [
        {
          "internalType": "bytes32",
          "name": "",
          "type": "bytes32"
        }
      ],
      "stateMutability": "view",
      "type": "function"
    },
    {
      "inputs": [],
      "name": "ConfigManager",
      "outputs": [
        {
          "internalType": "bytes32",
          "name": "",
          "type": "bytes32"
        }
      ],
      "stateMutability": "view",
      "type": "function"
    },
    {
      "inputs": [],
      "name": "NFTWhitelist",
      "outputs": [
        {
          "internalType": "bytes32",
          "name": "",
          "type": "bytes32"
        }
      ],
      "stateMutability": "view",
      "type": "function"
    },
    {
      "inputs": [],
      "name": "ClooverRaffleFactory",
      "outputs": [
        {
          "internalType": "bytes32",
          "name": "",
          "type": "bytes32"
        }
      ],
      "stateMutability": "view",
      "type": "function"
    },
    {
      "inputs": [],
      "name": "RandomProvider",
      "outputs": [
        {
          "internalType": "bytes32",
          "name": "",
          "type": "bytes32"
        }
      ],
      "stateMutability": "view",
      "type": "function"
    },
    {
      "inputs": [],
      "name": "TokenWhitelist",
      "outputs": [
        {
          "internalType": "bytes32",
          "name": "",
          "type": "bytes32"
        }
      ],
      "stateMutability": "view",
      "type": "function"
    },
    {
      "inputs": [],
      "name": "Treasury",
      "outputs": [
        {
          "internalType": "bytes32",
          "name": "",
          "type": "bytes32"
        }
      ],
      "stateMutability": "view",
      "type": "function"
    }
  ],
  "bytecode": "0x61017461003a600b82828239805160001a60731461002d57634e487b7160e01b600052600060045260246000fd5b30600052607381538281f3fe73000000000000000000000000000000000000000030146080604052600436106100875760003560e01c8063563df32f11610065578063563df32f146100e357806376c1656c146100f5578063d4fc88231461010d578063e0dc3adb1461012757600080fd5b806324aa2b9a1461008c578063276b0a29146100b457806337c1de4c146100cb575b600080fd5b6100a26b13919515da1a5d195b1a5cdd60a21b81565b60405190815260200160405180910390f35b6100a26c526166666c65466163746f727960981b81565b6100a26d2930b73237b6a83937bb34b232b960911b81565b6100a267547265617375727960c01b81565b6100a26d151bdad95b95da1a5d195b1a5cdd60921b81565b6100a26f20b1b1b2b9b9a1b7b73a3937b63632b960811b81565b6100a26c21b7b73334b3a6b0b730b3b2b960991b8156fea264697066735822122094f3a556cf25ef52bbc28909b03c1c0de7eea831d03e28a3c205ff1be366325a64736f6c63430008110033",
  "linkReferences": {},
  "deployedLinkReferences": {}
}