{
  "_format": "hh-sol-artifact-1",
  "contractName": "ImplementationInterfaceNames",
  "sourceName": "src/libraries/helpers/ImplementationInterfaceNames.sol",
  "abi": [
    {
      "inputs": [],
      "name": "AccessController",
      "outputs": [
        {
          "internalType": "bytes32",
          "name": "",
          "type": "bytes32"
        }
      ],
      "stateMutability": "view",
      "type": "function"
    }
  ],
  "bytecode": "0x6099610038600b82828239805160001a607314602b57634e487b7160e01b600052600060045260246000fd5b30600052607381538281f3fe730000000000000000000000000000000000000000301460806040526004361060335760003560e01c8063d4fc8823146038575b600080fd5b60516f20b1b1b2b9b9a1b7b73a3937b63632b960811b81565b60405190815260200160405180910390f3fea2646970667358221220ac6f6510a92d14995f9f750c29677bcc272b7c21a5d6fc0c27970a792e05967764736f6c63430008110033",
  "linkReferences": {},
  "deployedLinkReferences": {}
}