{
  "_format": "hh-sol-artifact-1",
  "contractName": "ImplementationInterfaceNames",
  "sourceName": "src/libraries/helpers/ImplementationInterfaceNames.sol",
  "abi": [
    {
      "inputs": [],
      "name": "AccessController",
      "outputs": [
        {
          "internalType": "bytes32",
          "name": "",
          "type": "bytes32"
        }
      ],
      "stateMutability": "view",
      "type": "function"
    },
    {
      "inputs": [],
      "name": "RaffleContract",
      "outputs": [
        {
          "internalType": "bytes32",
          "name": "",
          "type": "bytes32"
        }
      ],
      "stateMutability": "view",
      "type": "function"
    },
    {
      "inputs": [],
      "name": "RandomProvider",
      "outputs": [
        {
          "internalType": "bytes32",
          "name": "",
          "type": "bytes32"
        }
      ],
      "stateMutability": "view",
      "type": "function"
    }
  ],
  "bytecode": "0x60db610039600b82828239805160001a60731461002c57634e487b7160e01b600052600060045260246000fd5b30600052607381538281f3fe730000000000000000000000000000000000000000301460806040526004361060475760003560e01c80631ba8e4ec14604c57806337c1de4c146075578063d4fc882314608c575b600080fd5b60636d149859999b1950dbdb9d1c9858dd60921b81565b60405190815260200160405180910390f35b60636d2930b73237b6a83937bb34b232b960911b81565b60636f20b1b1b2b9b9a1b7b73a3937b63632b960811b8156fea26469706673582212200120bca0a62f73a85bb3718cdc3b81d3585c62cbf1fd31d7e5126abe0a6bb9e064736f6c63430008110033",
  "linkReferences": {},
  "deployedLinkReferences": {}
}