{
  "_format": "hh-sol-artifact-1",
  "contractName": "ImplementationInterfaceNames",
  "sourceName": "src/libraries/helpers/ImplementationInterfaceNames.sol",
  "abi": [
    {
      "inputs": [],
      "name": "AccessController",
      "outputs": [
        {
          "internalType": "bytes32",
          "name": "",
          "type": "bytes32"
        }
      ],
      "stateMutability": "view",
      "type": "function"
    },
    {
      "inputs": [],
      "name": "RaffleFactory",
      "outputs": [
        {
          "internalType": "bytes32",
          "name": "",
          "type": "bytes32"
        }
      ],
      "stateMutability": "view",
      "type": "function"
    },
    {
      "inputs": [],
      "name": "RandomProvider",
      "outputs": [
        {
          "internalType": "bytes32",
          "name": "",
          "type": "bytes32"
        }
      ],
      "stateMutability": "view",
      "type": "function"
    }
  ],
  "bytecode": "0x60da610039600b82828239805160001a60731461002c57634e487b7160e01b600052600060045260246000fd5b30600052607381538281f3fe730000000000000000000000000000000000000000301460806040526004361060475760003560e01c8063276b0a2914604c57806337c1de4c146074578063d4fc882314608b575b600080fd5b60626c526166666c65466163746f727960981b81565b60405190815260200160405180910390f35b60626d2930b73237b6a83937bb34b232b960911b81565b60626f20b1b1b2b9b9a1b7b73a3937b63632b960811b8156fea26469706673582212201f19e54672d9f6fbc5c7c8598773a197107a0ba8427bfb5f41f2f02d736efe5164736f6c63430008110033",
  "linkReferences": {},
  "deployedLinkReferences": {}
}