{
  "_format": "hh-sol-artifact-1",
  "contractName": "RandomProvider",
  "sourceName": "src/core/RandomProvider.sol",
  "abi": [
    {
      "inputs": [
        {
          "internalType": "contract IImplementationManager",
          "name": "_implementationManager",
          "type": "address"
        },
        {
          "components": [
            {
              "internalType": "address",
              "name": "vrfCoordinator",
              "type": "address"
            },
            {
              "internalType": "bytes32",
              "name": "keyHash",
              "type": "bytes32"
            },
            {
              "internalType": "uint32",
              "name": "callbackGasLimit",
              "type": "uint32"
            },
            {
              "internalType": "uint16",
              "name": "requestConfirmations",
              "type": "uint16"
            },
            {
              "internalType": "uint64",
              "name": "subscriptionId",
              "type": "uint64"
            }
          ],
          "internalType": "struct RandomProvider.ChainlinkVRFData",
          "name": "_data",
          "type": "tuple"
        }
      ],
      "stateMutability": "nonpayable",
      "type": "constructor"
    },
    {
      "inputs": [],
      "name": "NOT_RAFFLE_CONTRACT",
      "type": "error"
    },
    {
      "inputs": [
        {
          "internalType": "address",
          "name": "have",
          "type": "address"
        },
        {
          "internalType": "address",
          "name": "want",
          "type": "address"
        }
      ],
      "name": "OnlyCoordinatorCanFulfill",
      "type": "error"
    },
    {
      "inputs": [],
      "name": "COORDINATOR",
      "outputs": [
        {
          "internalType": "contract VRFCoordinatorV2Interface",
          "name": "",
          "type": "address"
        }
      ],
      "stateMutability": "view",
      "type": "function"
    },
    {
      "inputs": [],
      "name": "chainlinkVRFData",
      "outputs": [
        {
          "internalType": "address",
          "name": "vrfCoordinator",
          "type": "address"
        },
        {
          "internalType": "bytes32",
          "name": "keyHash",
          "type": "bytes32"
        },
        {
          "internalType": "uint32",
          "name": "callbackGasLimit",
          "type": "uint32"
        },
        {
          "internalType": "uint16",
          "name": "requestConfirmations",
          "type": "uint16"
        },
        {
          "internalType": "uint64",
          "name": "subscriptionId",
          "type": "uint64"
        }
      ],
      "stateMutability": "view",
      "type": "function"
    },
    {
      "inputs": [],
      "name": "getRaffleFactory",
      "outputs": [
        {
          "internalType": "address",
          "name": "",
          "type": "address"
        }
      ],
      "stateMutability": "view",
      "type": "function"
    },
    {
      "inputs": [],
      "name": "implementationManager",
      "outputs": [
        {
          "internalType": "contract IImplementationManager",
          "name": "",
          "type": "address"
        }
      ],
      "stateMutability": "view",
      "type": "function"
    },
    {
      "inputs": [
        {
          "internalType": "uint256",
          "name": "requestId",
          "type": "uint256"
        },
        {
          "internalType": "uint256[]",
          "name": "randomWords",
          "type": "uint256[]"
        }
      ],
      "name": "rawFulfillRandomWords",
      "outputs": [],
      "stateMutability": "nonpayable",
      "type": "function"
    },
    {
      "inputs": [
        {
          "internalType": "uint256",
          "name": "",
          "type": "uint256"
        }
      ],
      "name": "requestIdToCaller",
      "outputs": [
        {
          "internalType": "address",
          "name": "",
          "type": "address"
        }
      ],
      "stateMutability": "view",
      "type": "function"
    },
    {
      "inputs": [
        {
          "internalType": "uint32",
          "name": "numWords",
          "type": "uint32"
        }
      ],
      "name": "requestRandomNumbers",
      "outputs": [
        {
          "internalType": "uint256",
          "name": "requestId",
          "type": "uint256"
        }
      ],
      "stateMutability": "nonpayable",
      "type": "function"
    }
  ],
  "bytecode": "0x60a060405234801561001057600080fd5b506040516108d63803806108d683398101604081905261002f9161014b565b80516001600160a01b039081166080908152600180549483166001600160a01b0319958616179055825160008054919093169085168117909255600280549094169091179092556020810151600355604081015160048054606084015194909301516001600160401b0316660100000000000002600160301b600160701b031961ffff9095166401000000000265ffffffffffff1990941663ffffffff909316929092179290921792909216919091179055610208565b6001600160a01b03811681146100fb57600080fd5b50565b8051610109816100e6565b919050565b805163ffffffff8116811461010957600080fd5b805161ffff8116811461010957600080fd5b80516001600160401b038116811461010957600080fd5b60008082840360c081121561015f57600080fd5b835161016a816100e6565b925060a0601f198201121561017e57600080fd5b5060405160a081016001600160401b03811182821017156101af57634e487b7160e01b600052604160045260246000fd5b6040526101be602085016100fe565b8152604084015160208201526101d66060850161010e565b60408201526101e760808501610122565b60608201526101f860a08501610134565b6080820152809150509250929050565b6080516106ac61022a600039600081816101c5015261020701526106ac6000f3fe608060405234801561001057600080fd5b506004361061007d5760003560e01c80637705a7f61161005b5780637705a7f6146100da5780637ef9af4e146100fb578063b671321114610189578063b6c5a1501461019157600080fd5b80631fe543e3146100825780632bafa11b146100975780633b2bcbf1146100c7575b600080fd5b6100956100903660046104be565b6101ba565b005b6001546100aa906001600160a01b031681565b6040516001600160a01b0390911681526020015b60405180910390f35b6000546100aa906001600160a01b031681565b6100ed6100e8366004610588565b610246565b6040519081526020016100be565b60025460035460045461013f926001600160a01b0316919063ffffffff811690640100000000810461ffff16906601000000000000900467ffffffffffffffff1685565b604080516001600160a01b039096168652602086019490945263ffffffff9092169284019290925261ffff909116606083015267ffffffffffffffff16608082015260a0016100be565b6100aa6103b0565b6100aa61019f3660046105b5565b6005602052600090815260409020546001600160a01b031681565b336001600160a01b037f000000000000000000000000000000000000000000000000000000000000000016146102385760405163073e64fd60e21b81523360048201526001600160a01b037f000000000000000000000000000000000000000000000000000000000000000016602482015260440160405180910390fd5b6102428282610432565b5050565b60006102506103b0565b6040516333a01c2b60e01b81523360048201526001600160a01b0391909116906333a01c2b90602401602060405180830381865afa158015610296573d6000803e3d6000fd5b505050506040513d601f19601f820116820180604052508101906102ba91906105ce565b6102d757604051635b4a90ad60e11b815260040160405180910390fd5b600054600354600480546040516305d3b1d360e41b8152918201929092526601000000000000820467ffffffffffffffff166024820152640100000000820461ffff16604482015263ffffffff918216606482015290841660848201526001600160a01b0390911690635d3b1d309060a4016020604051808303816000875af1158015610368573d6000803e3d6000fd5b505050506040513d601f19601f8201168201806040525081019061038c91906105f0565b600081815260056020526040902080546001600160a01b0319163317905592915050565b6001546040516302abf57960e61b81526c526166666c65466163746f727960981b60048201526000916001600160a01b03169063aafd5e4090602401602060405180830381865afa158015610409573d6000803e3d6000fd5b505050506040513d601f19601f8201168201806040525081019061042d9190610609565b905090565b6000828152600560205260409081902054905163cb784b4d60e01b81526001600160a01b0390911690819063cb784b4d90610471908590600401610632565b600060405180830381600087803b15801561048b57600080fd5b505af115801561049f573d6000803e3d6000fd5b50505050505050565b634e487b7160e01b600052604160045260246000fd5b600080604083850312156104d157600080fd5b8235915060208084013567ffffffffffffffff808211156104f157600080fd5b818601915086601f83011261050557600080fd5b813581811115610517576105176104a8565b8060051b604051601f19603f8301168101818110858211171561053c5761053c6104a8565b60405291825284820192508381018501918983111561055a57600080fd5b938501935b828510156105785784358452938501939285019261055f565b8096505050505050509250929050565b60006020828403121561059a57600080fd5b813563ffffffff811681146105ae57600080fd5b9392505050565b6000602082840312156105c757600080fd5b5035919050565b6000602082840312156105e057600080fd5b815180151581146105ae57600080fd5b60006020828403121561060257600080fd5b5051919050565b60006020828403121561061b57600080fd5b81516001600160a01b03811681146105ae57600080fd5b6020808252825182820181905260009190848201906040850190845b8181101561066a5783518352928401929184019160010161064e565b5090969550505050505056fea2646970667358221220c344bbce9847017358f788a1afc8ad536564633655c08e2798a74657ce0d81c564736f6c63430008110033",
  "linkReferences": {},
  "deployedLinkReferences": {}
}