{
  "address": "0xf6aB0372990d15ade2e42Bd7547E7AA6CC17652C",
  "abi": [
    {
      "inputs": [
        {
          "internalType": "contract IImplementationManager",
          "name": "_implementationManager",
          "type": "address"
        }
      ],
      "stateMutability": "nonpayable",
      "type": "constructor"
    },
    {
      "inputs": [],
      "name": "COLLECTION_ALREADY_WHITELISTED",
      "type": "error"
    },
    {
      "inputs": [],
      "name": "COLLECTION_NOT_WHITELISTED",
      "type": "error"
    },
    {
      "inputs": [],
      "name": "NOT_MAINTAINER",
      "type": "error"
    },
    {
      "anonymous": false,
      "inputs": [
        {
          "indexed": true,
          "internalType": "address",
          "name": "addedNftCollection",
          "type": "address"
        },
        {
          "indexed": true,
          "internalType": "address",
          "name": "creator",
          "type": "address"
        }
      ],
      "name": "AddedToWhitelist",
      "type": "event"
    },
    {
      "anonymous": false,
      "inputs": [
        {
          "indexed": true,
          "internalType": "address",
          "name": "removedNftCollection",
          "type": "address"
        }
      ],
      "name": "RemovedFromWhitelist",
      "type": "event"
    },
    {
      "inputs": [
        {
          "internalType": "address",
          "name": "newNftCollection",
          "type": "address"
        },
        {
          "internalType": "address",
          "name": "creator",
          "type": "address"
        }
      ],
      "name": "addToWhitelist",
      "outputs": [],
      "stateMutability": "nonpayable",
      "type": "function"
    },
    {
      "inputs": [
        {
          "internalType": "address",
          "name": "nftCollection",
          "type": "address"
        }
      ],
      "name": "getCollectionCreator",
      "outputs": [
        {
          "internalType": "address",
          "name": "creator",
          "type": "address"
        }
      ],
      "stateMutability": "view",
      "type": "function"
    },
    {
      "inputs": [],
      "name": "getWhitelist",
      "outputs": [
        {
          "internalType": "address[]",
          "name": "",
          "type": "address[]"
        }
      ],
      "stateMutability": "view",
      "type": "function"
    },
    {
      "inputs": [],
      "name": "implementationManager",
      "outputs": [
        {
          "internalType": "contract IImplementationManager",
          "name": "",
          "type": "address"
        }
      ],
      "stateMutability": "view",
      "type": "function"
    },
    {
      "inputs": [
        {
          "internalType": "address",
          "name": "nftCollectionToCheck",
          "type": "address"
        }
      ],
      "name": "isWhitelisted",
      "outputs": [
        {
          "internalType": "bool",
          "name": "",
          "type": "bool"
        }
      ],
      "stateMutability": "view",
      "type": "function"
    },
    {
      "inputs": [
        {
          "internalType": "address",
          "name": "nftCollectionToRemove",
          "type": "address"
        }
      ],
      "name": "removeFromWhitelist",
      "outputs": [],
      "stateMutability": "nonpayable",
      "type": "function"
    }
  ],
  "transactionHash": "0x9042a40bd3d542563cec79abd2b24c686dbb2909630a20150970b9d207480e47",
  "args": [
    "0x157d5673250BfD323Bdc6161C6dF767b8E6cC567"
  ],
  "numDeployments": 1,
  "solcInputHash": "c7d477d16723f237a0befe8f99e1b8ab",
  "bytecode": "0x608060405234801561001057600080fd5b506040516109f83803806109f883398101604081905261002f91610054565b600280546001600160a01b0319166001600160a01b0392909216919091179055610084565b60006020828403121561006657600080fd5b81516001600160a01b038116811461007d57600080fd5b9392505050565b610965806100936000396000f3fe608060405234801561001057600080fd5b50600436106100625760003560e01c80631f6b17af146100675780632bafa11b146100b05780633af32abf146100c357806357518243146100e65780638ab1d681146100fb578063d01f63f51461010e575b600080fd5b6100936100753660046107b0565b6001600160a01b039081166000908152600360205260409020541690565b6040516001600160a01b0390911681526020015b60405180910390f35b600254610093906001600160a01b031681565b6100d66100d13660046107b0565b610123565b60405190151581526020016100a7565b6100f96100f43660046107cd565b610135565b005b6100f96101093660046107b0565b61032b565b610116610519565b6040516100a79190610806565b600061012f81836105c7565b92915050565b6002546040516302abf57960e61b81526f20b1b1b2b9b9a1b7b73a3937b63632b960811b60048201526000916001600160a01b03169063aafd5e4090602401602060405180830381865afa158015610191573d6000803e3d6000fd5b505050506040513d601f19601f820116820180604052508101906101b59190610853565b9050806001600160a01b03166391d14854826001600160a01b031663f87422546040518163ffffffff1660e01b8152600401602060405180830381865afa158015610204573d6000803e3d6000fd5b505050506040513d601f19601f820116820180604052508101906102289190610870565b6040516001600160e01b031960e084901b1681526004810191909152336024820152604401602060405180830381865afa15801561026a573d6000803e3d6000fd5b505050506040513d601f19601f8201168201806040525081019061028e9190610889565b6102ab576040516337ab45b760e01b815260040160405180910390fd5b6102b66000846105ec565b6102d357604051630530e81b60e41b815260040160405180910390fd5b6001600160a01b0383811660008181526003602052604080822080546001600160a01b0319169487169485179055517f0c4b48e75a1f7ab0a9a2f786b5d6c1f7789020403bff177fb54d46edb89ccc009190a3505050565b6002546040516302abf57960e61b81526f20b1b1b2b9b9a1b7b73a3937b63632b960811b60048201526000916001600160a01b03169063aafd5e4090602401602060405180830381865afa158015610387573d6000803e3d6000fd5b505050506040513d601f19601f820116820180604052508101906103ab9190610853565b9050806001600160a01b03166391d14854826001600160a01b031663f87422546040518163ffffffff1660e01b8152600401602060405180830381865afa1580156103fa573d6000803e3d6000fd5b505050506040513d601f19601f8201168201806040525081019061041e9190610870565b6040516001600160e01b031960e084901b1681526004810191909152336024820152604401602060405180830381865afa158015610460573d6000803e3d6000fd5b505050506040513d601f19601f820116820180604052508101906104849190610889565b6104a1576040516337ab45b760e01b815260040160405180910390fd5b6104ac600083610601565b6104c957604051636191047560e11b815260040160405180910390fd5b6001600160a01b03821660008181526003602052604080822080546001600160a01b0319169055517fcdd2e9b91a56913d370075169cefa1602ba36be5301664f752192bb1709df7579190a25050565b606060006105276000610616565b905060008167ffffffffffffffff811115610544576105446108ab565b60405190808252806020026020018201604052801561056d578160200160208202803683370190505b50905060005b828110156105c057610586600082610620565b828281518110610598576105986108c1565b6001600160a01b03909216602092830291909101909101526105b9816108ed565b9050610573565b5092915050565b6001600160a01b038116600090815260018301602052604081205415155b9392505050565b60006105e5836001600160a01b03841661062c565b60006105e5836001600160a01b03841661067b565b600061012f825490565b60006105e5838361076e565b60008181526001830160205260408120546106735750815460018181018455600084815260208082209093018490558454848252828601909352604090209190915561012f565b50600061012f565b6000818152600183016020526040812054801561076457600061069f600183610906565b85549091506000906106b390600190610906565b90508181146107185760008660000182815481106106d3576106d36108c1565b90600052602060002001549050808760000184815481106106f6576106f66108c1565b6000918252602080832090910192909255918252600188019052604090208390555b855486908061072957610729610919565b60019003818190600052602060002001600090559055856001016000868152602001908152602001600020600090556001935050505061012f565b600091505061012f565b6000826000018281548110610785576107856108c1565b9060005260206000200154905092915050565b6001600160a01b03811681146107ad57600080fd5b50565b6000602082840312156107c257600080fd5b81356105e581610798565b600080604083850312156107e057600080fd5b82356107eb81610798565b915060208301356107fb81610798565b809150509250929050565b6020808252825182820181905260009190848201906040850190845b818110156108475783516001600160a01b031683529284019291840191600101610822565b50909695505050505050565b60006020828403121561086557600080fd5b81516105e581610798565b60006020828403121561088257600080fd5b5051919050565b60006020828403121561089b57600080fd5b815180151581146105e557600080fd5b634e487b7160e01b600052604160045260246000fd5b634e487b7160e01b600052603260045260246000fd5b634e487b7160e01b600052601160045260246000fd5b6000600182016108ff576108ff6108d7565b5060010190565b8181038181111561012f5761012f6108d7565b634e487b7160e01b600052603160045260246000fdfea26469706673582212203df2d1bd30528f68f8d8a2a06581ffbc86c7a31903c68cfc28c4f9956e4ff3fd64736f6c63430008110033",
  "devdoc": {
    "kind": "dev",
    "methods": {
      "addToWhitelist(address,address)": {
        "params": {
          "creator": "the address of the collection creator.",
          "newNftCollection": "the new address to add."
        }
      },
      "getCollectionCreator(address)": {
        "details": "used to send royalties part of the raffle.",
        "params": {
          "nftCollection": "The address to check."
        },
        "returns": {
          "creator": "address "
        }
      },
      "getWhitelist()": {
        "returns": {
          "_0": "The list of addresses on the whitelist."
        }
      },
      "isWhitelisted(address)": {
        "params": {
          "nftCollectionToCheck": "The address to check."
        },
        "returns": {
          "_0": "True if `collateralToCheck` is on the whitelist, or False."
        }
      },
      "removeFromWhitelist(address)": {
        "params": {
          "nftCollectionToRemove": "The existing address to remove."
        }
      }
    },
    "version": 1
  },
  "userdoc": {
    "kind": "user",
    "methods": {
      "addToWhitelist(address,address)": {
        "notice": "Adds an address to the whitelist."
      },
      "getCollectionCreator(address)": {
        "notice": "Return creator address for a specific nft collection."
      },
      "getWhitelist()": {
        "notice": "Gets all addresses that are currently included in the whitelist."
      },
      "isWhitelisted(address)": {
        "notice": "Checks whether an address is on the whitelist."
      },
      "removeFromWhitelist(address)": {
        "notice": "Removes an address from the whitelist."
      }
    },
    "version": 1
  },
  "storageLayout": {
    "storage": [
      {
        "astId": 5262,
        "contract": "src/core/NFTCollectionWhitelist.sol:NFTCollectionWhitelist",
        "label": "nftCollections",
        "offset": 0,
        "slot": "0",
        "type": "t_struct(AddressSet)4501_storage"
      },
      {
        "astId": 5265,
        "contract": "src/core/NFTCollectionWhitelist.sol:NFTCollectionWhitelist",
        "label": "implementationManager",
        "offset": 0,
        "slot": "2",
        "type": "t_contract(IImplementationManager)5890"
      },
      {
        "astId": 5269,
        "contract": "src/core/NFTCollectionWhitelist.sol:NFTCollectionWhitelist",
        "label": "collectionToCreator",
        "offset": 0,
        "slot": "3",
        "type": "t_mapping(t_address,t_address)"
      }
    ],
    "types": {
      "t_address": {
        "encoding": "inplace",
        "label": "address",
        "numberOfBytes": "20"
      },
      "t_array(t_bytes32)dyn_storage": {
        "base": "t_bytes32",
        "encoding": "dynamic_array",
        "label": "bytes32[]",
        "numberOfBytes": "32"
      },
      "t_bytes32": {
        "encoding": "inplace",
        "label": "bytes32",
        "numberOfBytes": "32"
      },
      "t_contract(IImplementationManager)5890": {
        "encoding": "inplace",
        "label": "contract IImplementationManager",
        "numberOfBytes": "20"
      },
      "t_mapping(t_address,t_address)": {
        "encoding": "mapping",
        "key": "t_address",
        "label": "mapping(address => address)",
        "numberOfBytes": "32",
        "value": "t_address"
      },
      "t_mapping(t_bytes32,t_uint256)": {
        "encoding": "mapping",
        "key": "t_bytes32",
        "label": "mapping(bytes32 => uint256)",
        "numberOfBytes": "32",
        "value": "t_uint256"
      },
      "t_struct(AddressSet)4501_storage": {
        "encoding": "inplace",
        "label": "struct EnumerableSet.AddressSet",
        "members": [
          {
            "astId": 4500,
            "contract": "src/core/NFTCollectionWhitelist.sol:NFTCollectionWhitelist",
            "label": "_inner",
            "offset": 0,
            "slot": "0",
            "type": "t_struct(Set)4186_storage"
          }
        ],
        "numberOfBytes": "64"
      },
      "t_struct(Set)4186_storage": {
        "encoding": "inplace",
        "label": "struct EnumerableSet.Set",
        "members": [
          {
            "astId": 4181,
            "contract": "src/core/NFTCollectionWhitelist.sol:NFTCollectionWhitelist",
            "label": "_values",
            "offset": 0,
            "slot": "0",
            "type": "t_array(t_bytes32)dyn_storage"
          },
          {
            "astId": 4185,
            "contract": "src/core/NFTCollectionWhitelist.sol:NFTCollectionWhitelist",
            "label": "_indexes",
            "offset": 0,
            "slot": "1",
            "type": "t_mapping(t_bytes32,t_uint256)"
          }
        ],
        "numberOfBytes": "64"
      },
      "t_uint256": {
        "encoding": "inplace",
        "label": "uint256",
        "numberOfBytes": "32"
      }
    }
  }
}