{
  "address": "0x28be2C99BABba484dc4DE25416B7e2CD53d04d1C",
  "abi": [
    {
      "inputs": [
        {
          "internalType": "contract IImplementationManager",
          "name": "_implementationManager",
          "type": "address"
        }
      ],
      "stateMutability": "nonpayable",
      "type": "constructor"
    },
    {
      "anonymous": false,
      "inputs": [
        {
          "indexed": true,
          "internalType": "address",
          "name": "raffleContract",
          "type": "address"
        },
        {
          "components": [
            {
              "internalType": "contract IERC20",
              "name": "purchaseCurrency",
              "type": "address"
            },
            {
              "internalType": "contract IERC721",
              "name": "nftContract",
              "type": "address"
            },
            {
              "internalType": "uint256",
              "name": "nftId",
              "type": "uint256"
            },
            {
              "internalType": "uint256",
              "name": "maxTicketSupply",
              "type": "uint256"
            },
            {
              "internalType": "uint256",
              "name": "ticketPrice",
              "type": "uint256"
            },
            {
              "internalType": "uint64",
              "name": "ticketSaleDuration",
              "type": "uint64"
            }
          ],
          "indexed": false,
          "internalType": "struct IRaffleFactory.Params",
          "name": "globalData",
          "type": "tuple"
        }
      ],
      "name": "NewRaffle",
      "type": "event"
    },
    {
      "inputs": [
        {
          "internalType": "address[]",
          "name": "_raffleContracts",
          "type": "address[]"
        }
      ],
      "name": "batchRaffleDrawnTickets",
      "outputs": [],
      "stateMutability": "nonpayable",
      "type": "function"
    },
    {
      "inputs": [
        {
          "components": [
            {
              "internalType": "contract IERC20",
              "name": "purchaseCurrency",
              "type": "address"
            },
            {
              "internalType": "contract IERC721",
              "name": "nftContract",
              "type": "address"
            },
            {
              "internalType": "uint256",
              "name": "nftId",
              "type": "uint256"
            },
            {
              "internalType": "uint256",
              "name": "maxTicketSupply",
              "type": "uint256"
            },
            {
              "internalType": "uint256",
              "name": "ticketPrice",
              "type": "uint256"
            },
            {
              "internalType": "uint64",
              "name": "ticketSaleDuration",
              "type": "uint64"
            }
          ],
          "internalType": "struct IRaffleFactory.Params",
          "name": "_params",
          "type": "tuple"
        }
      ],
      "name": "createNewRaffle",
      "outputs": [
        {
          "internalType": "contract Raffle",
          "name": "newRaffle",
          "type": "address"
        }
      ],
      "stateMutability": "nonpayable",
      "type": "function"
    },
    {
      "inputs": [
        {
          "internalType": "address",
          "name": "",
          "type": "address"
        }
      ],
      "name": "isRegisteredRaffle",
      "outputs": [
        {
          "internalType": "bool",
          "name": "",
          "type": "bool"
        }
      ],
      "stateMutability": "view",
      "type": "function"
    },
    {
      "inputs": [],
      "name": "randomProvider",
      "outputs": [
        {
          "internalType": "address",
          "name": "",
          "type": "address"
        }
      ],
      "stateMutability": "view",
      "type": "function"
    },
    {
      "inputs": [
        {
          "internalType": "uint256",
          "name": "",
          "type": "uint256"
        },
        {
          "internalType": "uint256",
          "name": "",
          "type": "uint256"
        }
      ],
      "name": "requestIdToContracts",
      "outputs": [
        {
          "internalType": "address",
          "name": "",
          "type": "address"
        }
      ],
      "stateMutability": "view",
      "type": "function"
    }
  ],
  "transactionHash": "0x2ed3825e90360af7ab363a079091d0b983a6ce227116cf2e392e08063a77a947",
  "args": [
    "0x157d5673250BfD323Bdc6161C6dF767b8E6cC567"
  ],
  "numDeployments": 1,
  "solcInputHash": "bd7801c8e23f97189b0335e98fa2af0d",
  "bytecode": "0x60c060405234801561001057600080fd5b50604051611d56380380611d5683398101604081905261002f91610084565b6001600160a01b03811660805260405161004890610077565b604051809103906000f080158015610064573d6000803e3d6000fd5b506001600160a01b031660a052506100b4565b61141d8061093983390190565b60006020828403121561009657600080fd5b81516001600160a01b03811681146100ad57600080fd5b9392505050565b60805160a0516108596100e0600039600061018f01526000818161029d015261047b01526108596000f3fe608060405234801561001057600080fd5b50600436106100575760003560e01c806333a01c2b1461005c578063447742921461009457806381a4d142146100a95780638f46500e146100d4578063da053d8f146100dc575b600080fd5b61007f61006a3660046105e1565b60006020819052908152604090205460ff1681565b60405190151581526020015b60405180910390f35b6100a76100a236600461064c565b6100ef565b005b6100bc6100b73660046106fe565b610188565b6040516001600160a01b03909116815260200161008b565b6100bc610452565b6100bc6100ea36600461079d565b6104f3565b60005b81518163ffffffff16101561018457818163ffffffff1681518110610119576101196107bf565b60200260200101516001600160a01b031663413c5f726040518163ffffffff1660e01b8152600401600060405180830381600087803b15801561015b57600080fd5b505af115801561016f573d6000803e3d6000fd5b505050508061017d906107d5565b90506100f2565b5050565b60006101bc7f00000000000000000000000000000000000000000000000000000000000000006001600160a01b031661052b565b602083015160408085015190516323b872dd60e01b81523360048201526001600160a01b038085166024830152604482019290925292935016906323b872dd90606401600060405180830381600087803b15801561021957600080fd5b505af115801561022d573d6000803e3d6000fd5b50505050806001600160a01b0316634d1d303161030584604080516101008082018352600080835260208084018290528385018290526060808501839052608080860184905260a080870185905260c080880186905260e097880195909552875195860188526001600160a01b037f0000000000000000000000000000000000000000000000000000000000000000811687528951811687860152938901519093168588015233858301529587015184870152860151838201529385015190820152929091015167ffffffffffffffff169082015290565b6040805160e084811b6001600160e01b031916825283516001600160a01b0390811660048401526020850151811660248401529284015183166044830152606084015190921660648201526080830151608482015260a083015160a482015260c083015160c482015291015167ffffffffffffffff1660e482015261010401600060405180830381600087803b15801561039e57600080fd5b505af11580156103b2573d6000803e3d6000fd5b505050506001600160a01b0381811660008181526020818152604091829020805460ff19166001179055815186518516815286820151909416908401528481015190830152606080850151908301526080808501519083015260a08085015167ffffffffffffffff1690830152907f6ad154c6e4272962da2be5932717cfce555489673cee99d99cfbd1c9742b3f859060c00160405180910390a2919050565b6040516302abf57960e61b81526d2930b73237b6a83937bb34b232b960911b60048201526000907f00000000000000000000000000000000000000000000000000000000000000006001600160a01b03169063aafd5e4090602401602060405180830381865afa1580156104ca573d6000803e3d6000fd5b505050506040513d601f19601f820116820180604052508101906104ee9190610806565b905090565b6001602052816000526040600020818154811061050f57600080fd5b6000918252602090912001546001600160a01b03169150829050565b6000763d602d80600a3d3981f3363d3d373d3d3d363d730000008260601b60e81c176000526e5af43d82803e903d91602b57fd5bf38260781b17602052603760096000f090506001600160a01b0381166105c45760405162461bcd60e51b8152602060048201526016602482015275115490cc4c4d8dce8818dc99585d194819985a5b195960521b604482015260640160405180910390fd5b919050565b6001600160a01b03811681146105de57600080fd5b50565b6000602082840312156105f357600080fd5b81356105fe816105c9565b9392505050565b634e487b7160e01b600052604160045260246000fd5b604051601f8201601f1916810167ffffffffffffffff8111828210171561064457610644610605565b604052919050565b6000602080838503121561065f57600080fd5b823567ffffffffffffffff8082111561067757600080fd5b818501915085601f83011261068b57600080fd5b81358181111561069d5761069d610605565b8060051b91506106ae84830161061b565b81815291830184019184810190888411156106c857600080fd5b938501935b838510156106f257843592506106e2836105c9565b82825293850193908501906106cd565b98975050505050505050565b600060c0828403121561071057600080fd5b60405160c0810167ffffffffffffffff828210818311171561073457610734610605565b8160405284359150610745826105c9565b908252602084013590610757826105c9565b81602084015260408501356040840152606085013560608401526080850135608084015260a08501359150808216821461079057600080fd5b5060a08201529392505050565b600080604083850312156107b057600080fd5b50508035926020909101359150565b634e487b7160e01b600052603260045260246000fd5b600063ffffffff8083168181036107fc57634e487b7160e01b600052601160045260246000fd5b6001019392505050565b60006020828403121561081857600080fd5b81516105fe816105c956fea2646970667358221220d66cc0b0dfa62294d07ee400741c908c0a7f4584570ad872373892e04754321164736f6c63430008110033608060405234801561001057600080fd5b506113fd806100206000396000f3fe608060405234801561001057600080fd5b50600436106101215760003560e01c80636a4a5b2d116100ad578063cb784b4d11610071578063cb784b4d1461024a578063ccfa213e1461025d578063cf6622ab14610277578063d5abeb0114610292578063ed7a4e0b1461029a57600080fd5b80636a4a5b2d146101f657806370a08231146102075780638f46500e14610227578063a12776001461022f578063c26eea541461024257600080fd5b80633b398ff8116100f45780633b398ff814610174578063413c5f72146101aa5780634d1d3031146101b25780636352211e146101c5578063636ed74c146101ee57600080fd5b806302d05d3f146101265780631209b1f61461015057806315d655c91461016257806318160ddd1461016c575b600080fd5b6003546001600160a01b03165b6040516001600160a01b0390911681526020015b60405180910390f35b600a545b604051908152602001610147565b61016a6102a2565b005b600954610154565b61018b6006546007546001600160a01b0390911691565b604080516001600160a01b039093168352602083019190915201610147565b61016a6103fe565b61016a6101c036600461109f565b6104f3565b6101336101d3366004611153565b6000908152600160205260409020546001600160a01b031690565b61016a6106af565b6004546001600160a01b0316610133565b61021a61021536600461116c565b61086c565b6040516101479190611190565b6101336108d8565b61016a61023d366004611153565b61095b565b610154610c17565b61016a6102583660046111d4565b610c99565b600c54600160401b900460ff16604051610147919061128f565b600c546040516001600160401b039091168152602001610147565b600854610154565b610133610dce565b600c546001600160401b03164210156102ce57604051630c2695bf60e11b815260040160405180910390fd5b6002600c54600160401b900460ff1660028111156102ee576102ee611279565b1461030c576040516316de234960e11b815260040160405180910390fd5b610314610dce565b6001600160a01b0316336001600160a01b0316146103455760405163b4e5b12160e01b815260040160405180910390fd5b600654600754604051632142170760e11b815230600482015233602482015260448101919091526001600160a01b03909116906342842e0e90606401600060405180830381600087803b15801561039b57600080fd5b505af11580156103af573d6000803e3d6000fd5b50506006546007546040519081526001600160a01b03909116925033915030907f1fc6b0218aceb86978fcfee181f91a4a3f28d1eddff4e6df0c3dc99c79ace6d49060200160405180910390a4565b600c546001600160401b031642101561042a57604051630c2695bf60e11b815260040160405180910390fd5b6002600c54600160401b900460ff16600281111561044a5761044a611279565b0361046857604051630a7f733d60e41b815260040160405180910390fd5b600c805460ff60401b1916600160401b1790556104836108d8565b604051633b82d3fb60e11b8152600160048201526001600160a01b039190911690637705a7f6906024016020604051808303816000875af11580156104cc573d6000803e3d6000fd5b505050506040513d601f19601f820116820180604052508101906104f091906112b7565b50565b600054610100900460ff16158080156105135750600054600160ff909116105b8061052d5750303b15801561052d575060005460ff166001145b6105945760405162461bcd60e51b815260206004820152602e60248201527f496e697469616c697a61626c653a20636f6e747261637420697320616c72656160448201526d191e481a5b9a5d1a585b1a5e995960921b606482015260840160405180910390fd5b6000805460ff1916600117905580156105b7576000805461ff0019166101001790555b6105c082610e68565b8151600580546001600160a01b039283166001600160a01b031991821617909155606084015160038054918416918316919091179055602084015160048054918416918316919091179055604084015160068054919093169116179055608082015160075560a082015160085560c0820151600a5560e082015161064490426112e6565b600c805467ffffffffffffffff19166001600160401b039290921691909117905580156106ab576000805461ff0019169055604051600181527f7f26b83ff96e1f2b6a682f133852f6798a09c465da95921460cefb38474024989060200160405180910390a15b5050565b600c546001600160401b03164210156106db57604051630c2695bf60e11b815260040160405180910390fd5b6002600c54600160401b900460ff1660028111156106fb576106fb611279565b14610719576040516316de234960e11b815260040160405180910390fd5b6003546001600160a01b0316331461074457604051632cff942760e01b815260040160405180910390fd5b600480546040516370a0823160e01b815230928101929092526000916001600160a01b03909116906370a0823190602401602060405180830381865afa158015610792573d6000803e3d6000fd5b505050506040513d601f19601f820116820180604052508101906107b691906112b7565b6004805460405163a9059cbb60e01b81523392810192909252602482018390529192506001600160a01b039091169063a9059cbb906044016020604051808303816000875af115801561080d573d6000803e3d6000fd5b505050506040513d601f19601f82011682018060405250810190610831919061130d565b50604051818152339030907f2427926a2340a250197c73c9c1a12ca71ee0f1f53f8e08badda42770afc6ecf69060200160405180910390a350565b6001600160a01b0381166000908152600260209081526040918290208054835181840281018401909452808452606093928301828280156108cc57602002820191906000526020600020905b8154815260200190600101908083116108b8575b50505050509050919050565b6005546040516302abf57960e61b81526d2930b73237b6a83937bb34b232b960911b60048201526000916001600160a01b03169063aafd5e4090602401602060405180830381865afa158015610932573d6000803e3d6000fd5b505050506040513d601f19601f82011682018060405250810190610956919061132f565b905090565b600c546001600160401b031642106109865760405163377d0b8560e11b815260040160405180910390fd5b806000036109a7576040516398fccb2760e01b815260040160405180910390fd5b600854816109b460095490565b6109be919061134c565b11156109dd576040516384bfcb9560e01b815260040160405180910390fd5b600480546040516370a0823160e01b815233928101929092526001600160a01b0316906370a0823190602401602060405180830381865afa158015610a26573d6000803e3d6000fd5b505050506040513d601f19601f82011682018060405250810190610a4a91906112b7565b610a5382611006565b1115610a725760405163119563e560e31b815260040160405180910390fd5b6004546001600160a01b03166323b872dd3330610a8e85611006565b6040516001600160e01b031960e086901b1681526001600160a01b03938416600482015292909116602483015260448201526064016020604051808303816000875af1158015610ae2573d6000803e3d6000fd5b505050506040513d601f19601f82011682018060405250810190610b06919061130d565b503360009081526002602052604081206009549091836001600160401b03811115610b3357610b3361101d565b604051908082528060200260200182016040528015610b5c578160200160208202803683370190505b50905060005b84811015610bcf57610b738361135f565b925082828281518110610b8857610b88611378565b6020908102919091018101919091528454600181810187556000878152838120909201869055858252918290526040902080546001600160a01b0319163317905501610b62565b506009829055604051339030907f3298f998adc3ec4bdcc9bb12f2a924f1d28c61596124855d7d6d4d09e231847a90610c09908590611190565b60405180910390a350505050565b6000610c2b600c546001600160401b031690565b6001600160401b0316421015610c5457604051630c2695bf60e11b815260040160405180910390fd5b6002600c54600160401b900460ff166002811115610c7457610c74611279565b14610c92576040516316de234960e11b815260040160405180910390fd5b50600b5490565b33610ca26108d8565b6001600160a01b031614610cc95760405163170cd40b60e31b815260040160405180910390fd5b6001600c54600160401b900460ff166002811115610ce957610ce9611279565b14610d07576040516345a4ca3b60e11b815260040160405180910390fd5b80600081518110610d1a57610d1a611378565b60200260200101516000148015610d3057508051155b15610d4357600c805460ff60401b191690555b60036006015481600081518110610d5c57610d5c611378565b6020026020010151610d6e919061138e565b610d7990600161134c565b600b819055600c805460ff60401b191668020000000000000000179055604080519182525130917fbd2ef7d8e723142e22eed26d859400cda0ac602edacddc8b13f96c921011a9ac919081900360200190a250565b6000610de2600c546001600160401b031690565b6001600160401b0316421015610e0b57604051630c2695bf60e11b815260040160405180910390fd5b6002600c54600160401b900460ff166002811115610e2b57610e2b611279565b14610e49576040516316de234960e11b815260040160405180910390fd5b50600b546000908152600160205260409020546001600160a01b031690565b80516001600160a01b0316610e9057604051639f34e01960e01b815260040160405180910390fd5b60208101516001600160a01b0316610ebb57604051639f34e01960e01b815260040160405180910390fd5b306001600160a01b031681604001516001600160a01b0316636352211e83608001516040518263ffffffff1660e01b8152600401610efb91815260200190565b602060405180830381865afa158015610f18573d6000803e3d6000fd5b505050506040513d601f19601f82011682018060405250810190610f3c919061132f565b6001600160a01b031614610f6357604051637bed417b60e01b815260040160405180910390fd5b60608101516001600160a01b0316610f8e57604051639f34e01960e01b815260040160405180910390fd5b8060c00151600003610fb3576040516398fccb2760e01b815260040160405180910390fd5b8060a00151600003610fd8576040516398fccb2760e01b815260040160405180910390fd5b8060e001516001600160401b03166000036104f0576040516398fccb2760e01b815260040160405180910390fd5b600a546000906110179083906113b0565b92915050565b634e487b7160e01b600052604160045260246000fd5b604051601f8201601f191681016001600160401b038111828210171561105b5761105b61101d565b604052919050565b6001600160a01b03811681146104f057600080fd5b803561108381611063565b919050565b80356001600160401b038116811461108357600080fd5b60006101008083850312156110b357600080fd5b604051908101906001600160401b03821181831017156110d5576110d561101d565b81604052833591506110e682611063565b8181526110f560208501611078565b602082015261110660408501611078565b604082015261111760608501611078565b60608201526080840135608082015260a084013560a082015260c084013560c082015261114660e08501611088565b60e0820152949350505050565b60006020828403121561116557600080fd5b5035919050565b60006020828403121561117e57600080fd5b813561118981611063565b9392505050565b6020808252825182820181905260009190848201906040850190845b818110156111c8578351835292840192918401916001016111ac565b50909695505050505050565b600060208083850312156111e757600080fd5b82356001600160401b03808211156111fe57600080fd5b818501915085601f83011261121257600080fd5b8135818111156112245761122461101d565b8060051b9150611235848301611033565b818152918301840191848101908884111561124f57600080fd5b938501935b8385101561126d57843582529385019390850190611254565b98975050505050505050565b634e487b7160e01b600052602160045260246000fd5b60208101600383106112b157634e487b7160e01b600052602160045260246000fd5b91905290565b6000602082840312156112c957600080fd5b5051919050565b634e487b7160e01b600052601160045260246000fd5b6001600160401b03818116838216019080821115611306576113066112d0565b5092915050565b60006020828403121561131f57600080fd5b8151801515811461118957600080fd5b60006020828403121561134157600080fd5b815161118981611063565b80820180821115611017576110176112d0565b600060018201611371576113716112d0565b5060010190565b634e487b7160e01b600052603260045260246000fd5b6000826113ab57634e487b7160e01b600052601260045260246000fd5b500690565b8082028115828204841417611017576110176112d056fea264697066735822122045e8e0259963e20293a7b7a2c016f53e7baa4470c1655f8d714e38e6ad33a6d464736f6c63430008110033",
  "devdoc": {
    "kind": "dev",
    "methods": {
      "batchRaffleDrawnTickets(address[])": {
        "params": {
          "_raffleContracts": "the array of raffle addresses to call drawnTickets()"
        }
      },
      "createNewRaffle((address,address,uint256,uint256,uint256,uint64))": {
        "details": "must transfer the nft to the contract before initialize()",
        "params": {
          "_params": "used for initialization (see Params struct in RaffleFactory.sol)"
        },
        "returns": {
          "newRaffle": "the instance of the raffle contract"
        }
      },
      "randomProvider()": {
        "returns": {
          "_0": "The address of the randomProvider contract"
        }
      }
    },
    "stateVariables": {
      "isRegisteredRaffle": {
        "params": {
          "_raffleAddress": "the address to check"
        },
        "return": "bool is true if it's a raffle deployed by this factory, false otherwise",
        "returns": {
          "_0": "bool is true if it's a raffle deployed by this factory, false otherwise"
        }
      }
    },
    "version": 1
  },
  "userdoc": {
    "kind": "user",
    "methods": {
      "batchRaffleDrawnTickets(address[])": {
        "notice": "call by batch drawnTickets() for each raffleContract passed"
      },
      "createNewRaffle((address,address,uint256,uint256,uint256,uint64))": {
        "notice": "Deploy a new raffle contract"
      },
      "isRegisteredRaffle(address)": {
        "notice": "Return if the address is a raffle deployed by this factory"
      },
      "randomProvider()": {
        "notice": "get the randomProvider contract address from the implementationManager"
      }
    },
    "version": 1
  },
  "storageLayout": {
    "storage": [
      {
        "astId": 6063,
        "contract": "src/raffle/RaffleFactory.sol:RaffleFactory",
        "label": "isRegisteredRaffle",
        "offset": 0,
        "slot": "0",
        "type": "t_mapping(t_address,t_bool)"
      },
      {
        "astId": 6068,
        "contract": "src/raffle/RaffleFactory.sol:RaffleFactory",
        "label": "requestIdToContracts",
        "offset": 0,
        "slot": "1",
        "type": "t_mapping(t_uint256,t_array(t_address)dyn_storage)"
      }
    ],
    "types": {
      "t_address": {
        "encoding": "inplace",
        "label": "address",
        "numberOfBytes": "20"
      },
      "t_array(t_address)dyn_storage": {
        "base": "t_address",
        "encoding": "dynamic_array",
        "label": "address[]",
        "numberOfBytes": "32"
      },
      "t_bool": {
        "encoding": "inplace",
        "label": "bool",
        "numberOfBytes": "1"
      },
      "t_mapping(t_address,t_bool)": {
        "encoding": "mapping",
        "key": "t_address",
        "label": "mapping(address => bool)",
        "numberOfBytes": "32",
        "value": "t_bool"
      },
      "t_mapping(t_uint256,t_array(t_address)dyn_storage)": {
        "encoding": "mapping",
        "key": "t_uint256",
        "label": "mapping(uint256 => address[])",
        "numberOfBytes": "32",
        "value": "t_array(t_address)dyn_storage"
      },
      "t_uint256": {
        "encoding": "inplace",
        "label": "uint256",
        "numberOfBytes": "32"
      }
    }
  }
}